:10000000F8FF022099010000C98E0000818E0000D7
:10001000818E0000818E0000818E0000818E0000A4
:10002000818E0000818E0000818E0000C98E00004C
:10003000C98E0000818E000039A900003DAA000091
:10004000C98E0000C98E0000C98E0000C98E000054
:10005000C98E0000C98E0000C98E0000C98E000044
:10006000C98E0000C98E0000C98E0000C98E000034
:10007000C98E0000C98E0000C98E0000C98E000024
:10008000C98E0000C98E0000C98E0000C98E000014
:10009000C98E0000C98E0000C98E0000C98E000004
:1000A000C98E0000C98E0000C98E0000C98E0000F4
:1000B000C98E0000C98E0000C98E000025AC00006A
:1000C000C98E00005D940000C98E00007597000085
:1000D000C98E000051AD0000C98E0000D549000056
:1000E000C98E0000C98E0000C98E0000C98E0000B4
:1000F000C98E0000C98E0000C98E0000C98E0000A4
:10010000C98E0000C98E0000C98E0000C98E000093
:10011000C98E0000019A0000C98E0000C98E00003F
:10012000C98E0000C98E0000C98E0000C98E000073
:10013000C98E0000C98E0000C98E0000C98E000063
:10014000C98E0000C98E000049AE0000C98E0000B3
:1001500041AF0000C98E0000C98E0000C98E0000AA
:10016000C98E0000C98E0000C98E0000C98E000033
:10017000C98E0000C98E0000C98E0000C98E000023
:10018000C98E0000C98E0000C98E0000C98E000013
:10019000C98E0000C98E0000584B4CF2205210B599
:1001A0001A804DF628121A8000BF00BF08F090FE9A
:1001B000534B4FF030621A60524A9A60524ADA60EA
:1001C000524B4FF470021A60514A136813F4807353
:1001D00004D150490B604FF4A85313604E4B1A786A
:1001E000110703D51A7842F008021A704B4B4C499C
:1001F0002A221A704B4A4C4B8B4204D252F8040FFD
:1002000043F8040BF8E7494B494900228B4202D2DC
:1002100043F8042BFAE74749474A002352F82300E2
:1002200041F823000133662BF8D1444B444A802126
:1002300003F8011B9342FBD1424B3E4A1A60424BEA
:100240008A221A70A3F5805324225A70A0221A70B1
:100250009A799207FCD59A79D406FCD43B4A9379D3
:1002600003F00C03082B394BF9D103221A714622F3
:100270005A719A799006FCD5344A9179334B4906E4
:10028000FBD5334A4FF08271116009215160202261
:100290001A709A7902F00C020C2AFAD12D4B2E4AD0
:1002A0001A602E4B2E4A1A6000225A60072243F829
:1002B000042C2C4AC3F80C2D62B608F013FF154B22
:1002C0001B68DA0705D5284808F0A0FE274B284A06
:1002D0001A60284B1B785B0609D5244C244B2268F6
:1002E0009A4204D1204808F091FE002323600CF0CC
:1002F00049F808F0F3FD0AF0A9FBFEE70E200540DF
:1003000030800440823F04000100002B88ED00E0B3
:1003100010D0034014D0034002D0074000E0074053
:10032000FC15FF1FA0100100F806FF1FFC15FF1FA2
:1003300050BFFF1F0002FF1F0000000000E400E0AC
:1003400056E400E008ED00E00050064000400640A2
:100350004480044004800440C010050014E000E024
:10036000BFD401000000202026003B5F1CE00340BA
:10037000A5C3945A00F00740FFFFFFFFFFFFFFFFF8
:10038000FFFFFFFFFFFFFFFFFFFFFFFFFFFFFFFF7D
:10039000FFFFFFFFFFFFFFFFFFFFFFFFFFFFFFFF6D
:1003A000FFFFFFFFFFFFFFFFFFFFFFFFFFFFFFFF5D
:1003B000FFFFFFFFFFFFFFFFFFFFFFFFFFFFFFFF4D
:1003C000FFFFFFFFFFFFFFFFFFFFFFFFFFFFFFFF3D
:1003D000FFFFFFFFFFFFFFFFFFFFFFFFFFFFFFFF2D
:1003E000FFFFFFFFFFFFFFFFFFFFFFFFFFFFFFFF1D
:1003F000FFFFFFFFFFFFFFFFFFFFFFFFFFFFFFFF0D
:10040000FFFFFFFFFFFFFFFFFFFFFFFFDEF9FFFF23
:1004100010B5054C237833B9044B13B10448AFF33E
:1004200000800123237010BDFC15FF1F0000000099
:10043000A4100100084B10B51BB108490848AFF3E0
:1004400000800848036803B910BD074B002BFBD0A0
:10045000BDE81040184700BF000000000016FF1F55
:10046000A4100100FC15FF1F0000000010B403469B
:1004700000F57A74002103F8011BA3424FF000023B
:10048000F9D1A0F8E823A0F8EA2380F8EC235DF87E
:10049000044B7047B0F8E83303B97047F0B5044631
:1004A00083B0224804F0D0F8182805463CD9B4F8A7
:1004B000EA331F4E1CE0CDF800E004F05FF894F83A
:1004C000EC330133DBB2183D312B84F8EC33ADB2A1
:1004D000B4F8EA3306D901339BB20022A4F8EA3318
:1004E00084F8EC23B4F8E8239A4218D9182D1BD9C4
:1004F000DA1003F00703A15CF75C0E4A0B480F40CB
:100500004FF0000E4FF018034FF06101D3D1009768
:100510001823094A0548612104F030F8CFE7002389
:10052000A4F8EA33A4F8E83303B0F0BD3C1AFF1F87
:1005300094CF0000F806FF1F1816FF1F2DE9F047A3
:1005400005460F46144600214FF47A720CF002FA69
:1005500000230822A5F8E823A5F8EA3385F8EC3350
:10056000002C64D004F1FF3C3649374E57FA8CFC1E
:1005700007F1FF3E40F2E2371EF8019FB9F1410F4B
:100580005BD00124422004E0814518D016F82800F1
:100590001C46631CDBB203EB43080028F4D1F4458E
:1005A000EAD1082A43D0053292B2A5F8E8232749B8
:1005B000274812B207F0DAFC0020BDE8F08704EB10
:1005C000440306EB830320481B7A002BE7D004EB9F
:1005D000440400EB8404013B02F1010858FA83F85B
:1005E000D4F804901FFA88F84FF0004411E011F895
:1005F00003A02B5C23EA0A0302F1010ABA422B543E
:100600001FFA8AF24FEA540411D84245A5F8E823AC
:10061000C5D034EA090A4FEAE20002F00703E6D146
:100620009A462B5C11F80AA04AEA0303E4E7002388
:10063000A5F8E8330420BDE8F08703480823002428
:10064000C5E700BF94CF000090CD000074CD00003E
:100650004442FF1F0023A0F8E833A0F8EA3380F8F3
:10066000EC337047F0B5002200F108040646027032
:100670004270426023462A3003F8012B83424FF038
:100680000001F9D1094F86F82A1007F1200E3D46E6
:100690000FCD754520606160A260E3602F4604F1D4
:1006A0001004F4D12B8823803046F0BD90D0000098
:1006B000114AC1EBC1015318F0B5515C867D9A799E
:1006C000057F5C78C47522F00F0201F00F0405F07D
:1006D0000F0526F00F01214393F802E0DF781E7921
:1006E0005C79817545EA020380F818E047768676E2
:1006F000C4760377F0BD00BF9CCF0000114AC1EB68
:10070000C1015318F0B5515C867D9A79057F5C78FC
:10071000C47522F00F0201F00F0405F00F0526F05A
:100720000F01214393F802E0DF781E795C7981752F
:1007300045EA020380F818E047768676C4760377A8
:10074000F0BD00BF1CD0000010B50446304802F0D8
:10075000CBFB2F4802F058FA48B16378013B032BDA
:1007600003D8DFE803F0182D40050023637010BDA7
:10077000274802F03FFC63681E339842F7D90021F6
:10078000234802F0E1F9224802F030FC002384F80B
:100790002A30637010BD01211D4802F001FC0922BE
:1007A0001C491B4802F07CF922221B49184802F020
:1007B00047F90121164802F0C7F90223637010BD02
:1007C00094F82A102046FFF773FF222204F1080153
:1007D0000F4802F035F994F82A30052B0FD0013379
:1007E00084F82A3010BD22220C49094802F028F969
:1007F000074802F0FFFB04236060637010BD23789C
:10080000002284F82A20002BB1D10323637010BD8D
:10081000A845FF1F10D000006CD00000C8CF00001A
:1008200010B504461F4801F0C7F81E4801F02AF928
:1008300050B16378022B08D0032B21D0012B17D0A5
:100840000023637084F82A3010BD94F82A102046E3
:10085000FFF754FF222204F10801124801F062F868
:1008600094F82A30052B13D0013384F82A3010BDB8
:1008700022220D490B4801F055F80223637010BD88
:1008800022220A49074801F04DF80023637010BD89
:100890002378002284F82A20002BD5D1032363700B
:1008A00010BD00BFF0B5FF1FECCF000048D0000026
:1008B00008B5124B1B785C3B062B18D8DFE803F019
:1008C00013170F0417170400017889B10C48012190
:1008D00002F048F90A48BDE8084002F005BBBDE84F
:1008E0000840FFF731BFBDE80840FFF799BF08BDDA
:1008F0000348BDE8084002F035B900BFA445FF1F1A
:10090000A845FF1F012A01D0042070470A78012A58
:100910000CBF01230023037009D143783BB906497A
:10092000097801F0FD015C2903D0184670470020CA
:100930007047427018467047A445FF1F002210B44C
:1009400002600271826000F10C0300F13C0423F8A4
:10095000022BA3424FF00001F9D180F83C105DF862
:10096000044B7047F0B5836800294FEA4303B8BFD2
:1009700043F001038360064690F83C00421C06EBFE
:100980004000D2B286F83C20172A8181334888BFC4
:10099000002223F07F4388BF86F83C2083B0584074
:1009A00007F0D4FC022813D82D4806F10A0306F1FB
:1009B0003A014FF47A5433F9022F9042B8BF1046EF
:1009C0009442A8BF14469942F5D1031B052B32DC93
:1009D000B368244823F07F43584007F0B7FC02284F
:1009E00013D81F4D06F10A0306F13A014FF47A5469
:1009F00033F9022F9542B8BF15469442A8BF14465A
:100A00009942F5D12B1B052B01DC03B0F0BD8023EF
:100A10002F1226120522694613488DF802508DF8D0
:100A200001708DF804408DF803608DF8003007F0F8
:100A30003FFA03B0F0BD0712251200238DF8020023
:100A40000522694608488DF801708DF804408DF83C
:100A500003508DF8003007F02BFAB9E768B4AA000C
:100A600080C1FFFF974B55004442FF1F6AB370B52A
:100A7000561EB6B2044601EB46068D1E02E0B54294
:100A800023601FD035F9021F2379C80F83421AD083
:100A90002368B3F5004F03F2991224BF6FF4CC72B0
:100AA0009A18226002F54C533333B3F5803F20711E
:100AB000E5D3A2F54C42CD3A22602046FFF752FF23
:100AC000B542DFD170BD2268ECE7704700220270AA
:100AD0004280704710B5044684B0C74803F056F909
:100AE00023780BB904B010BDC34803F027FA0428DB
:100AF000F8D9C24B01AA03F10B009E2101E013F8C3
:100B0000011F02F8011B8342F9D16288BC48A2FB95
:100B10000001531A01EB53031B0903EB4303C3EB1F
:100B2000C303D31A9BB2002B41D0012A5CD0022A06
:100B300050D0032A62D0042A6AD0052A72D0062A2D
:100B40007AD0072A00F08280082A00F08980012BE1
:100B500000F09080022B00F09780032B00F09E8025
:100B6000042B00F0A580052B00F0AC80062B00F0D4
:100B7000B380072B00F0B880082B00F0D480092A3E
:100B800000F0AC80092B00F0EC800A2A40F0C08015
:100B90000B2B00F0A7800C2B40F0CF803D210222D0
:100BA000D7238DF80D108DF80E208DF80F3001A988
:100BB0000C22914802F090FF6188924B01314A0863
:100BC000A3FB0232120A40F2762303FB1213638066
:100BD00004B010BD34211922DE238DF80D108DF8DC
:100BE0000E208DF80F30E2E730210222DE238DF84F
:100BF0000D108DF80E208DF80F30D8E731216F22BF
:100C0000DE238DF80D108DF80E208DF80F30CEE715
:100C10001F212B22F6238DF80D108DF80E208DF854
:100C20000F30C4E732212222B3238DF80D108DF846
:100C30000E208DF80F30BAE724212A22E0238DF808
:100C40000D108DF80E208DF80F30B0E733213B22C8
:100C5000B3238DF80D108DF80E208DF80F30A6E718
:100C600050216F22B3238DF80D108DF80E208DF8D2
:100C70000F309CE725214F2293238DF80D108DF81E
:100C80000E208DF80F3092E770210B22DA238DF8B9
:100C90000D108DF80E208DF80F3088E725211D22CC
:100CA000D6238DF80D108DF80E208DF80F307EE7CD
:100CB00033211B22B3238DF80D108DF80E208DF8F3
:100CC0000F3074E725216F22D7238DF80D108DF892
:100CD0000E208DF80F306AE73921E0E70A2B0DD09E
:100CE0000B2B60D12521BCE725210C22C7238DF8D1
:100CF0000D108DF80E208DF80F3058E721210C22B1
:100D0000C2238DF80D108DF80E208DF80F304EE7B0
:100D10000A2BF3D00B2A2ED10C2B3FF43FAF0D2B17
:100D20003BD1252157E750216F22D0238DF80D109C
:100D30008DF80E208DF80F3039E70D2BF1D00E2AEB
:100D40002BD10F2B39D0102B41D0112B49D016218C
:100D50002922F5238DF80D108DF80E208DF80F3017
:100D600025E725211E22D0238DF80D108DF80E20A9
:100D70008DF80F301BE70B2BB4D00C2A13D10D2BA1
:100D8000CFD00E2B3FF46CAF0F2B16D0102ADCD037
:100D9000102B1CD0112AD8D1D9E70E2B3FF460AF0D
:100DA0000F2AD0D0F0E70C2B3FF4F8AE0D2AC4D1B7
:100DB0000E2B3FF455AF0F2BEAD125211B22D62352
:100DC0008DF80D108DF80E208DF80F30EFE62321F1
:100DD0001B223A238DF80D108DF80E208DF80F3060
:100DE000E5E621212522F5238DF80D108DF80E2042
:100DF0008DF80F30DBE600BFF822FF1FE0D00000C7
:100E000087611886D1000DD0012A01D004207047D7
:100E100038B50B78012B04460CBF0125002503785B
:100E200003D05BB92570002038BD002BFAD1438078
:100E300029220449044802F029FEF3E7024802F09F
:100E400071FEEFE7B4D00000F822FF1F002202700D
:100E500042708270704700BF10B50446114804F01C
:100E600047FB104804F0C6FB28B16378012B03D080
:100E700000236370A37010BDA3780B490948C3EB2E
:100E8000C303C3EBC3031944312204F0DDFAA37892
:100E90002278013303F00303A370002AEBD16270C0
:100EA00010BD00BF6C1DFF1FECD00000012A01D057
:100EB000042070470A78012A0CBF01230023037025
:100EC00004D1437813B94270184670470020704728
:100ED000002202704270704710B50446114805F0B8
:100EE00001FA104805F076FA60B16378012B0AD058
:100EF000022B10D1D9220C490A4805F095F9237824
:100F000063B9637010BDD9220849064805F08CF911
:100F10000223637010BD00236370F3E70123637045
:100F200010BD00BF9446FF1F0408FF1F2807FF1FC6
:100F3000012A01D0042070470A78012A0CBF01233E
:100F40000023037004D1437813B9427018467047E8
:100F50000020704700220270704700BF08B5037878
:100F600003B908BD054803F06FFBA528F9D9AA21EC
:100F70000348BDE8084005F08BBA00BF3C1AFF1FCC
:100F80005843FF1F012A01D0042070470B78A3F1BA
:100F90000103B3FA83F35B0903700020704700BFBD
:100FA00000224FF6FF71018102604260428170476A
:100FB000002A48D02DE9F043561EB6B283B004464D
:100FC00001EB46068D1E45F6BF5701E0AE4237D015
:100FD00035F8022F618963689142218938BF6281A7
:100FE0009142134488BF2281226863600132BA4271
:100FF0002260EBD9B3FBF2F3B4F80AC0B4F808E00E
:101000008DF805304FEA1C29C3F307234FEA1E2849
:1010100006220D488DF8043069468DF801C08DF820
:1010200000908DF803E08DF8028006F06DFF00233C
:101030004FF6FF72AE422360636063812281C7D1A5
:1010400003B0BDE8F08370474442FF1F034600F140
:101050001401002243F8042B8B42FBD130B400F67C
:101060005435002423F8024BAB424FF00002F9D173
:1010700042F20F7300F5B554A0F85C3BA0F8542B76
:10108000A0F8562BA0F8582BA0F85A2BC0F8602BCC
:10109000A0F8642BA0F8662BA0F8682BA0F86A2BA8
:1010A000A0F86C2BA0F86E2BA0F8702BA0F8722B78
:1010B00080F8742B80F8752B80F8762B80F8772BCE
:1010C00080F8782B80F8792B80F87A2B1C3400F686
:1010D0007C3323F8022B9C42FBD130BC704700BF0D
:1010E000002342F20F72A0F85C2BA0F8583BC0F826
:1010F000603B80F8753B80F8763B80F8783BA0F841
:101100005A3B70472DE9F047BDF82050BDF924C087
:10111000BDF92880002A6CD0013A05F1040ED2B244
:10112000AE1C0EEB42020135334F1FFA8CFC1FFA46
:1011300082FEB6B2ADB2C8F1000924E04FEAE20A7D
:1011400002F0070213F80A40BA5C24EA020203F82C
:101150000A20EA1005F0070A9C5C17F80AA04AEA80
:1011600004049C544A1D92B2B2F5B46F06F1020613
:1011700028BFA1F29B51B6B22CBF89B211460235ED
:10118000B645ADB235D000EB4104B21EA48ACCEB1B
:10119000040424B24C4592B2D0DB002C1FDB444542
:1011A00013DA4FEAE20A02F0070213F80A40BA5CC7
:1011B000224303F80A20EA1005F0070A9C5C17F89E
:1011C0000AA024EA0A049C54CCE7D41002F00702D7
:1011D00013F804A0BA5C42EA0A021A55B9E74FEACA
:1011E000E20A02F0070213F80A40BA5C24EA02029B
:1011F000DFE7BDE8F08700BF48D300002DE9F04FDE
:101200000546A348B5F8543B55F8233089B023F080
:101210007F435840049107F099F8C31EDBB2122BAC
:1012200040F20781B5F8569BDFF878E2994F09F252
:101230002D5189B2B1F5B46F0646974826BFA9F182
:10124000730292B20A4600F1180A4FF47A5C002445
:1012500005EB4203B3F914309F42B8BF1F469C45CB
:10126000A8BF9C46022E94BF90F900B09EF900B032
:10127000BBF1010F00F0E080BBF1030F00F0DE8056
:10128000BBF1FF3F01D003EB43031C44531D9BB252
:10129000B3F5B46F28BFA2F29B5200F101002CBF3E
:1012A00092B21A4682450EF1010ED1D1D5F8603BBB
:1012B0009C4240F3BE800CEB070A4FEA6A0ACAEB75
:1012C000070844F6314303FB08F848F3CF33B1F580
:1012D000B46F059328BFA9F17301059B02934FF0EA
:1012E00004020FFA8AFA0DF1180928BF89B2009298
:1012F000CDF804A04B4618222846FFF703FF022E24
:101300004FF0000843D94746DFF89CB1634E0720F1
:101310004FF00F0E03E01BF801EF16F8010F19F85C
:1013200008100EEA0101484007F00AF808F1010828
:101330003844B8F1070FC7B2EDD1032F79D8049B19
:10134000002B00F09280059AA5F8722B0023A5F8D7
:10135000702BA5F86E2BA5F86C2BA5F86AABA5F839
:1013600068ABA5F866ABA5F864AB85F8743BB5F837
:10137000563BC5F8604B03F21A4292B22021B2F5F7
:10138000B46FA5F8583B85F8751B44D341E0DFF8EE
:1013900018B1434E47460D204FF00F0E03E01BF8E7
:1013A00001EF16F8010F19F808100EEA0101484084
:1013B00006F0C6FF08F101083844B8F1070FC7B2BC
:1013C000EDD1032F35D8049B002B3BD0059AA5F80F
:1013D000722B0023A5F8702BA5F86E2BA5F86C2BAB
:1013E000A5F86AABA5F868ABA5F866ABA5F864AB41
:1013F00085F8743BB5F8563BC5F8604B03F21A42CA
:1014000092B24021B2F5B46FA5F8583B85F8751B30
:1014100001D3A3F5C372A5F85A2B03F20D1292B2B1
:10142000B2F5B46F2ABFA3F29343A5F85C2BA5F8DD
:101430005C3B09B0BDE8F08FE41A27E703EB4303F8
:10144000E41A23E795F8743BBDF8141005EB43024A
:101450000133DBB2032B88BF9DF81030A2F86C1B60
:10146000A2F864AB85F8743BC4E795F8743BBDF80B
:10147000141005EB43020133DBB2032B88BF9DF848
:101480001030A2F86C1BA2F864AB85F8743B6EE7D1
:101490006E28760080C1FFFF50D30000B8D1000055
:1014A000C0D10000C8D10000B0D1000080F8771B87
:1014B000704700BFB0F85A3B3C33F0B40A469BB2C9
:1014C0004FF40774002600EB43015D1CADB2B1F888
:1014D0007C7B013CB5F5B46FA3F29F53A4B23E44AC
:1014E0002CBF9BB22B46002CEDD1084B0848A3FB28
:1014F00006135B0AC3F3072182F8233082F8221017
:1015000024230121F0BC06F04BBB00BF49D6B9F241
:101510004442FF1FF0B5B0F8565B00EB45030029CD
:101520009982A3F87C2BB0F8542B50F822304FEA64
:101530004303B8BF43F0010340F8223090F8783BF2
:101540008FB00446002B00F0A380B0F8581B01F2C6
:101550009F539BB2B3F5B46F01F1010292B224BF65
:1015600001F1FF339BB2B2F5B46F24BFA1F29F52D9
:1015700092B2934222D3AB4224D9AA4222D2B4F8E7
:101580005C3BAB4228D094F8780B003018BF0120A8
:101590000135ADB2B5F5B46F24BF0023A4F8563BB6
:1015A000B4F8543B38BFA4F8565B01339BB2042B0C
:1015B00088BF0023A4F8543B0FB0F0BDAB42DED887
:1015C000AA42DCD300212046FFF718FEB4F8565B90
:1015D000B4F85C3BAB42D6D1B4F96E3BB4F96C7B4A
:1015E000B4F9662BB4F9701BB4F9646BB4F9680BE9
:1015F0001F441644B4F9723BB4F96A2B0F4405F248
:10160000123189B20644B1F5B46F16441F4428BFA5
:10161000A5F28E2194F8753B8DF814304FF0080236
:1016200046F38F0647F38F0728BF89B205AB0092B8
:101630000297019684222046FFF764FD94F8753BDB
:10164000402B55D0202B00F0E88094F8782BB2B3D3
:1016500094F8763B0133DBB20C2B84F8763B1DD833
:10166000012A35D194F8793B042B3AD80133DBB207
:1016700084F8793B8DF8143005AA2223012178489B
:1016800006F08EFA94F8780B003018BF012017E0AE
:101690000121FFF7B3FDB4F8565B70E701217048F4
:1016A00006F0B2FA002342F20F72A4F8583B84F815
:1016B000763B84F8783BA4F85A3BA4F85C2B0020D6
:1016C0000023B4F8565BC4F8603B84F8753B5FE7D1
:1016D000022A04D194F87A3B002B40F0B380012019
:1016E000EEE7202200238DF8142084F8793BC3E72D
:1016F00004A801F08BF80DF113030DF1120204A8F8
:101700000DF1150101F09EF894F8772B9DF8123039
:101710009A42B7D19DF814209DF8133000211A4346
:101720008DF8142084F8761B84F8791B0A2B6ED868
:10173000DFE803F06353346D6D6D2006066D06001F
:1017400094F8780B02289FD1B4F9582B45494448A6
:101750000097334606F064FC204605A9FFF7AAFE71
:1017600094F8780B9DF8133084F87A3B003018BF5A
:101770000120A5E7B4F9582B3B4939480097334677
:1017800006F04EFC204605A9FFF794FE0222002336
:1017900084F8782B84F87A3B012091E794F8780B51
:1017A00001287FF471AF3149B4F9582B00973346C3
:1017B0002B4806F035FC204605A9FFF77BFE0020EC
:1017C00042F20F73A4F8580B84F8760B84F8780B68
:1017D000A4F85A0BA4F85C3B72E72549B4F9582BDE
:1017E000009733461E4806F01BFC05A92046FFF76C
:1017F00061FE012084F8780B62E794F8783B012BB6
:10180000F7D1B4F9582B1B4900973346EAE7B4F9EE
:10181000582B194900973346CAE7B4F9582B174992
:101820000F480097334606F0FBFB204605A9FFF75B
:1018300041FE0023012084F8780B84F8763B84F87D
:10184000793B3DE743F04003204605A98DF814306D
:10185000FFF730FE94F8780B003018BF01202FE717
:101860004442FF1F14D20000E0D10000B4D20000B7
:1018700048D200007CD20000ECD2000018D3000057
:10188000B3B1F8B55E1EF6B2074601EB46068C1EF4
:10189000951E34F9021F35F8022F3846FFF73AFE3D
:1018A000B442F6D10146BDE8F840034802F0D0BE8C
:1018B0001946014802F0CCBE3C1AFF1F38B54FF460
:1018C000B971044604F11C0506F09CFC0023236159
:1018D00019466361A36104F13C022B4623F8021B05
:1018E0009342FBD104F2EC40002203F8012B984212
:1018F0004FF00001F9D1F023A4F8EC14A4F8EE1491
:10190000C4F8F034202228460BF024F805210922DF
:10191000034B2174A56162826361204638BD00BF1C
:10192000E008FF1F222A01D00420704770B5054649
:101930000C4606F07BFC202801D8052070BD04F180
:10194000210614F8011F284606F0B8FCB442F8D16D
:10195000002070BDF0B58FB002AC04AA4FF4E37E56
:1019600040F252574FF6AE264FF63A6501F0C003EB
:10197000802B1CD0C02B18D0ABB12680023489003C
:101980009442C9B2F2D102A922461030042309F0D0
:1019900047FC00230093224614230221054802F04D
:1019A000EDFD0FB0F0BD2580E8E72780E6E7A4F85D
:1019B00000E0E3E73C1AFF1F70B5B0F8EC540446B2
:1019C0000DB32D4802F040FE1428054652D9B4F854
:1019D000EE3401E0142D2FD95A1C2344A4F8EE2430
:1019E00093F83C102046FFF7B5FFB4F8EE34B4F896
:1019F000EC24143D9A42ADB2ECD80023A4F8EE34A6
:101A0000A4F8EC3470BD06F037FC70B31B4B1B78A8
:101A10009BB9D4F8F01441B15F20E21801339BB2B6
:101A2000994282F83C00F8D88DB20023A4F8EC5417
:101A3000A4F8EE34002DC4D170BD04F13B0604F1CE
:101A40005C05204606F066FC06F8010FAE42F8D1B0
:101A50000B496322002301E011F8012F05F8012F43
:101A60000133272BF8D14825DFE7B4F8EC54002DDB
:101A7000E2D0A6E770BD00BF3C1AFF1F0077FF1F32
:101A800068D3000008B506F0D1FB044BA3FB00238C
:101A9000C01A03EB5000C0F3471008BDD5411DD458
:101AA0000C234FF4167203FB0121B1F5966F8ABF28
:101AB0004FF49663C0F8F014C0F8F034704700BFDC
:101AC000034600F11401002243F8042B8B42FBD1A2
:101AD00030B400F23C55002423F8024B9D424FF0F5
:101AE0000002F9D142F20F73A0F83C25A0F83E2580
:101AF000C0F84425A0F84825A0F84A2580F84C25D0
:101B0000A0F8403530BC7047002342F20F72A0F8B5
:101B10004025A0F83E35A0F83C35C0F84435A0F883
:101B20004A35A0F8483570472DE9F047BDF82050F8
:101B3000BDF924C0BDF92880002A6CD0013A05F116
:101B4000040ED2B2AE1C0EEB42020135334F1FFA27
:101B50008CFC1FFA82FEB6B2ADB2C8F1000924E0D7
:101B60004FEAE20A02F0070213F80A40BA5C24EADC
:101B7000020203F80A20EA1005F0070A9C5C17F835
:101B80000AA04AEA04049C544A1D92B2B2F5257F89
:101B900006F1020628BFA1F28F21B6B22CBF89B28E
:101BA00011460235B645ADB235D000EB4104B21E48
:101BB000A48ACCEB040424B24C4592B2D0DB002CB6
:101BC0001FDB444513DA4FEAE20A02F0070213F87A
:101BD0000A40BA5C224303F80A20EA1005F0070A1B
:101BE0009C5C17F80AA024EA0A049C54CCE7D410A1
:101BF00002F0070213F804A0BA5C42EA0A021A557E
:101C0000B9E74FEAE20A02F0070213F80A40BA5CA9
:101C100024EA0202DFE7BDE8F08700BFCCD3000072
:101C20002DE9F04FB0F83C2550F8223000294FEA5A
:101C30004303B8BF43F0010340F82230B0F83E251B
:101C4000044604EB42028348918223F07F4391B023
:101C5000584006F07BFB0228B4F83EC57ED80CF253
:101C6000212189B2B1F5257F7B487C4F26BFACF19D
:101C700073031FFA83F8884600F1170E6FF0020312
:101C80004FF47A56002504EB4802B2F9142097422B
:101C9000B8BF17469642A8BF1646012B19D0032B92
:101CA00013D0013301D002EB4202154408F10503C1
:101CB0009BB2B3F5257F24BFA8F28F239BB2864544
:101CC00009D0984610F9013FDDE702EB4202AD1A58
:101CD000ECE7AD1AEAE7D4F844359D423EDD3E44D8
:101CE0007610BF1B44F6314909FB07F747F3CF33A2
:101CF000B1F5257F059328BFACF17301059B0293D5
:101D00004FF0040236B20DF11C0A28BF89B20092CE
:101D100020460196534618224FF00008FFF704FFB3
:101D2000DFF848B14E4FC1460D200F2103E01BF8EC
:101D3000011F17F8010F1AF808200A40504006F05A
:101D4000FFFA08F101084844B8F1070F5FFA80F97B
:101D5000EDD1B9F1030F52D9B4F83EC5B4F840350E
:101D60009C4518D00CF1010C1FFA8CFCBCF5257FAA
:101D700024BF0023A4F83E35B4F83C3538BFA4F89E
:101D80003EC501339BB2042B88BF0023A4F83C3529
:101D900011B0BDE8F08F0CF1060189B2B1F5257FD5
:101DA00028BFACF28E21B4F94A35B4F94805019048
:101DB0004FF0080228BF89B20293009207AB842239
:101DC0002046FFF7B1FE06A800F020FD0DF11B0331
:101DD0000DF11A0206A80DF11D0100F033FD94F873
:101DE0004C259DF81A309A4225D042F20F720023FA
:101DF000B4F83EC5A4F84025C4F84435B2E7059FC1
:101E0000184919483B46324606F0B6F8B4F83EC5C4
:101E1000C4F844550CF20D139BB2B3F5257FA4F81A
:101E20004865A4F84A7503D36FF4C37363449BB247
:101E3000A4F8403594E79DF81B30032BD5D1C3257A
:101E400007AA2223002108488DF81C5005F0A8FE9F
:101E5000CBE700BF6E287600D4D3000080C1FFFF1F
:101E600098D30000A0D300004442FF1F90D300008D
:101E700072B170B5551EEDB2064601EB45058C1EDC
:101E800034F9021F3046FFF7CBFEAC42F8D170BDEB
:101E9000704700BF80F84C15704700BF10B5002197
:101EA000044600F063F804F65460012100F05EF887
:101EB000204610BD2DE9F0479DF820407CB3074631
:101EC000601E80B201EB40095E1E8C1E951E07F657
:101ED000546814E0082B384601D100F095F834F925
:101EE000021F35F8022F384600F0C0FA2A88B4F9EC
:101EF00000108246404600F0B9FA4C4505D016F86D
:101F0000013F042BE6D14046E7E7BAF1000F0CBFD2
:101F1000014601210348BDE8F04702F099BB214684
:101F2000F8E700BF3C1AFF1F38B504460D4600F025
:101F30006BFA294604F65460BDE8384000F064BAF4
:101F400038B504460D4600F063FA294604F654609D
:101F5000BDE8384000F05CBA10B5044600F060F807
:101F600004F65460BDE8104000F05AB8034630B49F
:101F700003F8041B00F11804002243F8042BA342C9
:101F8000FBD100F5E465002423F8024BAB424FF08F
:101F90000002F9D142F20F73A0F82837A0F82027E9
:101FA000A0F82227A0F82427A0F82627A0F82A279F
:101FB000C0F82C27A0F83027A0F83227A0F8342743
:101FC000A0F83627A0F83827A0F83A27A0F83C2731
:101FD000A0F83E2780F8402780F8412780F8422764
:101FE00080F84327A0F8442780F8462780F8472741
:101FF00080F8482700F24A7300F6526123F8022B5A
:102000009942FBD130BC70470023A0F82237A0F8DA
:102010002A37A0F82037C0F82C3780F841377047AE
:10202000002342F20F72A0F82827A0F82437A0F866
:102030002237A0F82A37A0F82037C0F82C3780F8CC
:10204000413780F8423780F84637A0F82637704786
:102050002DE9F04F87B08146BDF94840BDF84000FA
:10206000BDF944700494002A00F08A80013A2646A3
:10207000D2B2041D04EB4202851C01301FFA82FB20
:1020800082B27042019048461FFA87FAD946ADB233
:10209000834618E03C483C4E10F8084013F80E0008
:1020A00016F80CC020EA040003F80E00D85D4CEAD4
:1020B000000C03F807C00235ADB205310232A94564
:1020C00089B292B25CD001F10C00019E3BF8104045
:1020D000CAEB040424B2A81E80B2B4424FEAE2075D
:1020E00002F0070C4FEAE00E00F00708D2DB002CEC
:1020F00034DB00F007064FEAE00802963046049E03
:102100004FEAE20C02F00707B442C6460397CDF847
:1021100014C010DA06461C48845D13F808001A4EF5
:10212000204303F80800F75D13F80C0020EA0707C6
:1021300003F80C70BFE7144C245C13F8080020432C
:1021400003F808003E46D0100F4F185C17F806C081
:102150004CEA000CD01003F800C0ACE7C7100A4EE0
:10216000DC5D00F00700305C24EA0000D855D01098
:1021700002F007071C5CF75D24EA07041C549AE789
:1021800007B0BDE8F08F00BFA4D500002DE9F04FE7
:1021900005469648B5F8203705EB830389B05B68A0
:1021A00023F07F4358400F4606F0D0F8C31EDBB241
:1021B000122B3AD9B5F822878D49DFF844C2A8F12D
:1021C000730906461FFA89F908F1050889481FFABC
:1021D00088F84B464FF47A5E002403F10C0235F97F
:1021E00012209445B8BF94469645A8BF9646022E45
:1021F00094BF91F900A090F900A0BAF1010F17D097
:10220000BAF1030F16D0BAF1FF3F01D002EB420240
:10221000144405339BB2434501F1010100F1010073
:10222000DBD1D5F82C379C4208DC09B0BDE8F08F33
:10223000A41AEEE702EB4202A41AEAE70EEB0C0343
:102240005B10C3EB0C0C44F6314B0BFB0CFC4CF35A
:10225000CF321BB2104605920DF1180A04220493E6
:102260000193029000924946534618222846FFF7F0
:10227000EFFE022E4FF0000B45D8DFF888915E4E3E
:10228000D8460D204FF00F0E03E019F801EF16F8B5
:10229000010F1AF80B100EEA0101484006F050F841
:1022A0000BF1010B4044BBF1070F5FFA80F8ECD152
:1022B000B8F1030FB9D8002F6BD195F84037BDF8AE
:1022C000141005EB43020133DBB2A2F83817032BDD
:1022D000BDF81010A2F8301794BF85F8403785F884
:1022E0004077B5F82237C5F82C47A3F5C37003F241
:1022F0000D114022A5F82437A5F82607A5F82817C0
:1023000085F8412791E7D846DFF8F8903B4E072043
:102310004FF00F0E03E019F801EF16F8010F1AF84D
:102320000B100EEA0101484006F00AF80BF1010B10
:102330004044BBF1070F5FFA80F8ECD1B8F1030F0E
:102340003FF673AFDFBB95F84037BDF8141005EBCF
:1023500043020133DBB2A2F83817032BBDF810108B
:10236000A2F8301794BF85F8403785F84077B5F864
:102370002237C5F82C47A3F5C37003F20D112022B4
:10238000A5F82437A5F82607A5F8281785F84127CA
:102390004BE7059AA5F83E270023A5F83C27A5F8AA
:1023A0003A27A5F83827049AA5F83627A5F8342740
:1023B000A5F83227A5F8302785F8403791E7059A28
:1023C000A5F83E270023A5F83C27A5F83A27A5F84D
:1023D0003827049AA5F83627A5F83427A5F8322718
:1023E000A5F8302785F84037C1E700BF6E28760092
:1023F000ACD5000004D40000FCD30000F4D30000EE
:1024000080C1FFFFECD3000080F84317704700BF86
:10241000A0F84417704700BF0A46B0F8261701F12C
:102420003C0301F5167130B49BB28CB20546002115
:1024300005EB43000133B0F84A079BB2A3420144C5
:10244000F6D1084B0848A3FB01135B0AC3F307212D
:1024500082F8233082F822102978242330BC05F03A
:102460009FBB00BF49D6B9F24442FF1FF0B5B0F898
:102470002A37B0F8444701339BB29C428FB0A0F892
:102480002A3738D8B0F82237B0F82857AB4232D8BC
:10249000B3F5617F2FD200EB430400292183A4F818
:1024A0004A27B0F8202700EB820254684FEA440420
:1024B000B8BF44F00104546090F8462704460ABBB4
:1024C000A3F5C8725A2A2FD9AB4235D094F84607E3
:1024D000003018BF0120B4F82027013292B2013336
:1024E000042AA4F822378ABF0023A4F82027A4F8DE
:1024F00020370FB0F0BD90F84607003018BF01201C
:102500000FB0F0BDB0F82427511E89B28B42DBD347
:10251000013292B29342D7D80021FFF737FEB4F8C8
:102520002237B4F82857CFE70121FFF72FFEB4F880
:102530002237B4F82857C7E7B4F930E7B4F932576F
:10254000B4F93A27B4F93477B4F93867B4F93C07E9
:10255000B4F93617754416443D44B4F93E2794F84F
:1025600041E70EAF064407F824ED0D441644A3F2EC
:102570008E21082245F38F0546F38F063B460092D5
:1025800089B20195029684222046FFF761FD94F8F6
:102590004137402B4DD0202B31D094F8462762B3E1
:1025A00094F842370133DBB20C2B84F8423719D848
:1025B000012A5DD194F84737042B52D920220023F9
:1025C0008DF8142084F847377C4821783A46222336
:1025D00005F0E6FA94F84607003018BF0120B4F879
:1025E000223778E72178754805F00EFB002242F289
:1025F0000F7384F84627A4F828370020EFE72278E5
:10260000B4F924376E496D480196002A0CBF0122A7
:102610000222009505F070FD20463946FFF7FCFECA
:102620000023012084F8460784F8423784F84737AE
:10263000D5E704A800F0EAF80DF113030DF112023A
:1026400004A80DF1150100F0FDF894F843279DF85A
:1026500012309A4215D094F84607003018BF012076
:10266000BDE70133DBB284F847378DF81430ABE7B0
:10267000022A04D194F84837002B40F096800120BC
:10268000ADE79DF814209DF8133000211A438DF812
:10269000142084F8421784F847170A2B7AD8DFE809
:1026A00003F06A553879797920060679060094F89E
:1026B00046070228D1D12278B4F9243741493F484E
:1026C0000196002A0CBF01220222009505F014FD9C
:1026D00039462046FFF7A0FE9DF8133084F84837AE
:1026E000B9E72278B4F92437374934480196002AEB
:1026F0000CBF01220222009505F0FEFC204639465F
:10270000FFF78AFE0220002384F8460784F8483742
:10271000A3E794F8460701289FD122782B49B4F902
:1027200024370196002A00950CBF0122022223487B
:1027300005F0E2FC20463946FFF76EFE002042F22B
:102740000F7384F84607A4F8283786E722782049D3
:10275000B4F924370196002A00950CBF0122022209
:10276000164805F0C9FC39462046FFF755FE012002
:1027700084F8460771E794F84637012BF7D12278A1
:10278000B4F9243713490196002A00950CBF0122A1
:102790000222E5E72278B4F924370F490196002A8E
:1027A00000950CBF01220222C1E743F040033946E5
:1027B00020468DF81430FFF72FFE4CE74442FF1FF0
:1027C0006CD5000054D400001CD4000000D50000DB
:1027D0008CD40000C4D400003CD5000020F4FF637A
:1027E00023F007038BB14FF4802340F67541034279
:1027F00008BF5B08FBD0DA0A01FB02F2504020F46C
:10280000FF6222F00702002AF1D17047704700BF33
:102810004B78887810B50C78DB0003EBC42303EB0E
:102820005014B4F5006F204606DA054B53F820002B
:102830006040C0F3C72010BDFFF7D0FFF5E700BF31
:10284000C4D70000F0B517464E7BCA7C0C7D91F8CA
:102850000CE0B500910025F03F0501F03C0183B08C
:102860002943A200B60946EA8E0641EA941422F0F2
:102870000F0201A91D468DF804608DF805408DF802
:102880000620FFF7C5FF030900F00F003B7028701A
:1028900003B0F0BD02F00F0242EA0111C9B2144ABE
:1028A000F0B532F811701D7D5E7B1C7B93F813E050
:1028B000F8B205F0030545EA801506F00F0680081A
:1028C000BF0A46EA811600F0300224F03F0407F008
:1028D0003C072EF00F0E00F00F0044EA9101164362
:1028E0004EEA00003D4319735E73D8741D75F0BD48
:1028F000C4D50000F8B54FF4B971044605F082FC68
:102900004FF4B97104F1100005F07CFC04F12C05C2
:102910000023236218466362A36204F14C012B4634
:1029200023F8020B8B424FF00002F9D184F84C20BF
:1029300004F14D0304F16E00002103F8011B9842DD
:102940004FF00002F9D104F16F0684F86E2033468F
:1029500004F17B0703F8012BBB42FBD13B4604F19A
:102960008701002203F8012B8B42FBD104F1AF0158
:10297000002203F8012B8B42FBD104F1D700002287
:1029800003F8012B98424FF00001F9D1A4F8D810B8
:10299000A4F8DA10C4F8DC10C4F8E010C4F8E410AD
:1029A00084F8E81084F8E9102022284609F0D2FFC4
:1029B0000B4BDFF830E0A56207CBC4F87B000520A5
:1029C00084F820000C3B09206084C4F824E079607E
:1029D000BA6007CBC4F86F007160B2602046F8BDE2
:1029E00008F800003C09FF1F222A01D0042070478C
:1029F00070B505460C4605F019FC202801D80520C5
:102A000070BD95F8E8308BB904F1210614F8011F68
:102A1000284605F053FCB442F8D1084B187818B991
:102A2000012385F84C3070BD002070BD284605F0AC
:102A3000F7FB002385F8E830E6E700BF0077FF1FCB
:102A4000222A01D004207047F8B500F1100605468F
:102A500030460C4605F0EAFB202801D80520F8BDD9
:102A600095F8E93093B904F1210714F8011F3046B5
:102A700005F024FCBC42F8D1084B1B7823B9012295
:102A8000184685F84C20F8BD0020F8BD304605F00A
:102A9000C7FB002385F8E930E5E700BF0077FF1F9B
:102AA000092A01D004207047F0B50024C0F87B400B
:102AB0002246C0F87F40C0F88340DFF858E0144F4A
:102AC000402401264FF0800C12E095F87B301C4327
:102AD000531C1A46442ADBB285F87B4003F00703F7
:102AE00014D01EF8016F17F803C006F00703FC5C52
:102AF000D31000EBD605CB5C1CEA030FE5D100EB4D
:102B0000D60595F87B3023EA0404E1E70020F0BD08
:102B100038F80000C4F70000012A01D004207047F3
:102B20000978012908D00229F8D1002380F8E9208A
:102B3000C0F8E43018467047002380F8E810C0F869
:102B4000E0301846704700BF002380F84C10C0F8F2
:102B5000DC30C0F8E030C0F8E43080F8E83080F8CD
:102B6000E9307047002914BF0523002380F84C305A
:102B7000704700BFF0B595B0164603AC05AA4FF4F8
:102B8000E37C40F2525E4FF6AE274FF63A6501F015
:102B9000C003802B24D0C02B1FD0E3B12780023488
:102BA00089009442C9B2F2D1002503A90AAA2030B3
:102BB000042305956560A560E56025618DF81E60BC
:102BC00008F02EFB0AAA009414230221064801F003
:102BD000D5FC15B0F0BD2580E1E7A4F800E0DEE704
:102BE000A4F800C0DBE700BF3C1AFF1F08B505F0E2
:102BF0001DFB044BA3FB0023C01A03EB5000C0F3E2
:102C0000471008BDD5411DD408B5103005F00EFBA6
:102C1000044BA3FB0023C01A03EB5000C0F3471082
:102C200008BD00BFD5411DD42DE9F84300EB0117C5
:102C3000064638460C4605F01FFB202803D9D6F877
:102C4000DC30132B1BD83119002481F8E84006F141
:102C50004C0306F1AE0106F1860206F16D0513F88C
:102C6000010F01F8010FAB4202F8014FF7D1212209
:102C70000023A6F8D820A6F8DA30BDE8F88304F1DE
:102C8000380356F82330052BDDD906F1AE0406F1E2
:102C9000860506F1CF094FF00008384605F03AFBEB
:102CA00004F8010F4C4505F8018FF6D1DFE700BFAE
:102CB000214B1B78622B30B427D05F2B20D100F141
:102CC000AE0300F1860200F1B5055524002103F89A
:102CD000014FAB4202F8011FF9D103465F2203F80E
:102CE000B62F00F1BD0500F18E02FF24002103F88C
:102CF000014FAB4202F8011FF9D10F23A0F8D830E1
:102D00000023A0F8DA3030BC704700F1AE0300F1C8
:102D1000860200F1CF055F24002103F8014F9D4298
:102D200002F8011FF9D12123A0F8D8300023A0F820
:102D3000DA3030BC704700BFA445FF1FF8B5044629
:102D4000D0F8E06094F86E30D0F8E4000D46D4F886
:102D5000DC10771C013001310B2B1646C4F8E070F3
:102D6000C4F8E400C4F8DC1018D9002384F86E30ED
:102D7000204605F081FA002800F09180234604F1F6
:102D80006F0253F87B0F59689B68C4F86F0051605D
:102D9000936094F86E30D4F8DC1003E004F16F0215
:102DA000002BE5D01A44012E1788927884F8B120C0
:102DB0004FF0000014BF042208221329A4F8AF70BA
:102DC00084F8892084F8870084F8880042D8A5F127
:102DD0000106B6FA86F67609002B4AD1012D94F841
:102DE000AF2073D0314630464FF0010E1F4600260B
:102DF000002F94F8B05042EA06020CBF002680264D
:102E0000BEF1000F84F8AF2045EA06050CBF002292
:102E1000082294F8B1608E4514BF2021002115438B
:102E20003143874214BF02220022864514BF02208C
:102E300000202A43033340EA010584F8B020032030
:102E4000002184F86E3084F8B150A4F8D800A4F8BA
:102E5000DA10F8BD04EB061005F00EFAA5F1010634
:102E600094F86E300030B6FA86F618BF0120760965
:102E70008BB1B3F1090E18BF4FF0010E012794F882
:102E8000AF2087EA060142EAC012C9B27040002EA4
:102E9000ADD00826ACE71F464FF0010EEFE704F176
:102EA000100005F0E9F900287FF468AF0D4B07CB5F
:102EB00004F16F03C4F87310C4F87720C4F86F00EE
:102EC0001A46D4F8DC1094F86E306BE742F0080232
:102ED00084F8AF20AE463146304694F8B0501F46D5
:102EE000082296E708F8000038B590F84C3033B364
:102EF000B0F8D82004461AB3284801F0A5FB1428DE
:102F000005464AD9B4F8DA3001E0142D17D9E21891
:102F1000013392F8AF1092F88720A4F8DA302046F7
:102F2000FFF728FEB4F8DA30B4F8D820143D9A42FE
:102F3000ADB2EAD80023A4F8DA30A4F8D83038BD0E
:102F4000013B042B21D8DFE803F01920120A03000B
:102F5000FFF7AEFEB4F8D830002BCDD138BD00223B
:102F60000121FFF7EBFE032384F84C30F2E7012147
:102F7000FFF75AFE022384F84C30EBE70021FFF7FD
:102F800053FE042384F84C30E4E701220021FFF7CC
:102F9000D5FE012384F84C30DCE738BD3C1AFF1F16
:102FA0002DE9F041104E00F14D0782B088463D46B4
:102FB00006F1200E34460FCC744528606960AA6083
:102FC000EB60264605F11005F4D123782B7001A89B
:102FD000FFF71CFC3B4601A841460922FFF75AFCBB
:102FE00002B0BDE8F08100BF14F80000103005F019
:102FF00017B900BFD0F8DC00704700BF002110B443
:10300000016001714171816000F10C0300F17004F5
:1030100003F8011BA3424FF00002F9D10267426797
:103020008267C267C0F88020C0F88420C0F888207A
:1030300000F18C0100F59A7341F8042B8B42FBD10F
:1030400000F5EE71002243F8042B8B42FBD100F512
:103050002171002243F8042B8B42FBD100F54B7108
:10306000002243F8042B8B42FBD100F2563400219E
:1030700003F8011BA3424FF00002F9D1C0F8582316
:10308000A0F85C235DF8044B704700BF0023036089
:1030900003714371836003674367C0F85833A0F836
:1030A0005C337047B0F85C3310B504464BB9292245
:1030B0000E4804F0CDFC0023C4F85833A4F85C3368
:1030C00010BDD4F85823B2FBF3F3C3F3072281F801
:1030D0002A3081F8292005482B2204F0B9FC00236E
:1030E000C4F85833A4F85C3310BD00BF4442FF1F3E
:1030F000B0F85C3310B504464BB90C220D4804F00F
:10310000D9FC0023C4F85833A4F85C3310BDD4F8BC
:103110005823B2FBF3F3C3F307224B730A7305483A
:103120000E2204F0C7FC0023C4F85833A4F85C3323
:1031300010BD00BF4442FF1F836870B55B000446AA
:1031400009B143F001032648A36023F07F435840B0
:1031500005F0FCF802282FD9A368224823F07F430A
:10316000584005F0F3F8054600B170BD1E491F48F0
:1031700004F0F6FE01211E4801F06AFA01211C4804
:1031800001F072FA1B4BC4F8585307CB04F10C063C
:10319000E06021616261A4F85C5331462046FFF78C
:1031A000A7FF4FF416520223E56025616561258370
:1031B00025676267637170BD0F490C4804F0D0FE4B
:1031C0005322002104F10C0009F0C4FB002301226A
:1031D0002367C4F85833A4F85C33627170BD00BF34
:1031E0005076550068B4AA0008FE00004442FF1F54
:1031F0003C1AFF1F74000100E4FD0000F8B583686D
:10320000026F5B0004468360F1B100EBD205484ECB
:1032100043F0010302F00700A360297B305C014307
:103220004448297301322267584005F08FF801287D
:1032300067D9236F5C2B10D8656F013D65677DB33F
:10324000236F602B3DD0F8BD02F007013A4804EB34
:10325000D205405C297B0140E2E7A368374823F0B0
:103260007F43584005F072F8022838D9236F602B4D
:10327000E2D1324F01256FF07F46A36826FA05F0B0
:10328000034027FA05F0584005F060F802284AD9B3
:103290000135042DF1D1656F013D6567002DCFD15A
:1032A0002749284804F05CFE2946274801F0D0F958
:1032B0002946254801F0D8F9224804F02DFC657113
:1032C000F8BD04F10C0529460C221E4804F0F2FB5F
:1032D00000232B606B60AB60AB812367F8BD602679
:1032E00042F27F5055212D22162304F10C05606710
:1032F00061752667A275E37529462046FFF7F8FE3B
:10330000E6E712490F4804F02BFE00210E4801F0B9
:103310009FF900210C4801F0A7F90A4804F01EFCAF
:1033200000236371F8BD236FEDB25D1B256783E752
:10333000DCFD00005E13AAAAD4FD000068B4AA0058
:103340004CFE00004442FF1F3C1AFF1F2CFE0000F1
:103350002DE9F041D0F87CC00D68D0F884E00F6909
:10336000826F65447744BD4284B04FEAD20302F0D5
:10337000070450DA9B0000EB0308404ED8F88C702D
:10338000365D00953740C8F88C704E684D696644CC
:103390007544AE4250DA00EB030E384DDEF834715E
:1033A0002D5D01963D40CEF83451D0F880E08F6815
:1033B000D0F888C08E6977446644B74252DA00EB91
:1033C00003082E4ED8F8DC51365D02973540C8F818
:1033D000DC51CD68CE690EEB05010CEB0605A94268
:1033E00036DA0344254ED3F88452345D039105EA5E
:1033F0000401C3F88412009D019C0299039BC567D8
:1034000001328267C0F88040C0F88410C0F888306C
:1034100004B0BDE8F0819B0000EB0308184ED8F81B
:103420008C50365D00973543C8F88C504E684D6916
:1034300066447544AE42AEDB00EB030E104EDEF880
:103440003471365D019547EA0605CEF83451ACE794
:1034500003440B49D3F88462095D03953143C3F8F3
:103460008412C8E700EB0308054DD8F8DC712D5D28
:1034700002962F43C8F8DC71ABE700BFC4FD000023
:10348000CCFD000070B50B4628CB88B085F0010458
:1034900083F00102A61869461C442A442B44019675
:1034A0000496029407940392069200930593FFF703
:1034B0004FFF08B070BD00BF2DE9F043644D654E6D
:1034C0002F464FF07F0C402440F24912002317E0B2
:1034D00000EBD30E013A9EF82C430CEA04018EF85F
:1034E0002C13511C03F1010300F09B80584C5949E7
:1034F00002F0070C03F0070E14F80C4011F80EC090
:10350000D11000EB8101D1F88C100C42E0D000EB1F
:10351000D30402F1FF3E94F82C130CEA01010133AD
:1035200084F82C13002A00F08D80494C49494FEA59
:10353000EE0200EB82020EF0070CD2F8DC2115F847
:103540000CC003F007081CEA020F00EBD30C16F8BE
:1035500008809CF82C2308EA02028CF82C2303F143
:10356000010326D00EF1FF38BEF1000F6CD04FEAF8
:10357000E80200EB820208F00709D2F8842215F86D
:10358000099019EA020F00EBD30E03F0070C36D0B6
:103590009EF82C2315F80CC008F1FF384CEA020203
:1035A000B8F1FF3F03F101038EF82C23DFD1BDE812
:1035B000F0830EF1FF3CBEF1000F47D04FEAEC0262
:1035C00000EB82020CF0070ED2F8342115F80EE061
:1035D0001EEA020F00EBD30E03F007089EF82C231F
:1035E00021D015F8088048EA02028EF82C23013316
:1035F0000CF1FF3EBCF1000F99D1BDE8F08300EB68
:10360000D30E03F0070C9EF82C2317F80CC04CEADD
:1036100002028EF82C23013308F1FF3CB8F1000FB1
:10362000CCD1BDE8F08317F8088048EA02028EF892
:103630002C2301330CF1FF32BCF1000F7FF458AFA3
:10364000BDE8F083BDE8F083BDE8F083BDE8F0831A
:10365000CCFD0000C4FD000030B4134D481E01F144
:1036600026044FF0FF3210F8013F5340DBB2C2F3A3
:10367000072235F81330844283EA02031A46F2D156
:10368000DA4391F82700D3B2984202D0002030BC30
:10369000704791F82800C2F30723181AB0FA80F097
:1036A000400930BC704700BF74FE00002DE9F043B4
:1036B0004E1E0546144699B0DFF820E230467027CA
:1036C000002201E01EF8017F10F8013F01327B402B
:1036D000532A06F8013FF5D10DF10B030DF15F0000
:1036E000002203F8012F8342FBD1DFF8F4C1042745
:1036F00063464FF0000E80264FEAEE02885CC20758
:103700000ED51CF81E2093F801800DF160094A4483
:1037100026FA08F912F8548C49EA080802F8548C81
:1037200082070DD59A7893F803800DF160094A4419
:1037300026FA08F912F8548C49EA080802F8548C61
:1037400042070DD51A7993F805800DF160094A44B6
:1037500026FA08F912F8548C49EA080802F8548C41
:1037600002076BD59A7993F807800DF160094A44F6
:1037700026FA08F912F8548CB7F5257F49EA0808AB
:1037800002F8548C5DD10023EB67C5F88030C5F892
:103790008430C5F88830AB6799464FF08008012720
:1037A000402618AA02EBE90209F0070312F8542C8C
:1037B00028FA03F1114026FA03F30CBF0291029795
:1037C00009F10209134001A9284614BF019701938A
:1037D000FFF758FEB9F5257FE3D12846FFF76CFEC9
:1037E000631E04F12801002203F8012F9942FBD146
:1037F000DFF8F0E0402140F24912012701E01EF815
:103800000C1005EBE200C2F5A47390F82C630133B1
:10381000013AD808314203F0070302F0070C07FA17
:1038200003F302D0215C0B432354531CE7D1214600
:103830002846FFF711FF19B0BDE8F083B7F5257FE3
:10384000A1D0C2060DD51A7A93F809800DF160094E
:103850004A4426FA08F912F8548C49EA080802F892
:10386000548C82060DD59A7A93F80B800DF160097D
:103870004A4426FA08F912F8548C49EA080802F872
:10388000548C42060CD402061AD40EF1080EBEF572
:10389000267F03F1100307F108077FF42DAF72E7CD
:1038A0001A7B93F80D800DF160094A4426FA08F955
:1038B00012F8548C49EA080802F8548C0206E4D540
:1038C0009A7BD87B0DF16008424426FA00F812F882
:1038D000540C48EA000002F8540CD6E768FD0000DA
:1038E00040F80000CCFD000030B58268036F520044
:1038F0008DB0826091B100EBD30142F0010203F080
:1039000007041F4D82600A7B2C5D01332243B3F50F
:10391000257F0A7303670FD00DB030BD03F0070297
:1039200000EBD301174CA45C0A7B01332240B3F5B2
:10393000257F0A730367EFD100F10C05294601AA20
:103940000446FFF7B3FE10B960710DB030BD012120
:103950000D4800F07DFE01210B4800F085FE01A915
:103960002046FFF79FFB002302214FF41652E3602D
:10397000236163612383236761716267CCE700BFC2
:10398000DCFD0000D4FD00003C1AFF1F002B47D0D7
:10399000F8B55F1EBFB2044602EB4707951E8E1EA8
:1039A00002E02060BD4232D0B4F85C2335F8023F1B
:1039B000D4F8580394F804E00132A4F85C2336F8F4
:1039C000021FC90B03448E45C4F85833236808D03E
:1039D000B3F5004F2ABF6FF4CC7203F299139B1812
:1039E000236003F54C503330B0F5803F2171D8D3BC
:1039F0006279A3F54C43CD3B012A236008D00BD359
:103A0000022ACFD12046FFF7F9FBBD42CCD1F8BD49
:103A10002046FFF769FFC5E72046FFF78DFBC1E7AA
:103A2000704700BF38B54FF4B971044604F11C0566
:103A300004F0E8FB0023236119466361A36104F1EC
:103A400044022B4623F8021B9342FBD104F5277056
:103A5000002203F8012B98424FF00001F9D13C23DA
:103A6000A4F89C12A4F89E12A4F8A032282228469A
:103A700008F070FF05210322034B2174A5616282C7
:103A80006361204638BD00BF9809FF1F292A01D075
:103A90000420704770B506460D4604F0C7FB292880
:103AA00006D802B20A490B4804F060FA052070BD3E
:103AB0000021304604F002FC6C1E283514F8011F6A
:103AC000304604F0FBFBAC42F8D1002070BD00BFD3
:103AD000040601004442FF1F0C2A01D00420704755
:103AE00070B505460C4604F0A1FB0C2806D802B2BE
:103AF0000A490B4804F03AFA052070BD0121284616
:103B000004F0DCFB661E0B3416F8011F284604F097
:103B1000D5FBA642F8D1002070BD00BF24060100ED
:103B20004442FF1F10B5044604F080FB30B9024642
:103B30000549064804F01AFA052010BD2046022166
:103B400004F0BCFB002010BD440601004442FF1FEE
:103B50002DE9F04F9BB0531E0392029318460DF1CE
:103B600066040DF11303002203F8012F9C4200F8B4
:103B7000012FF9D100234A1EDFF8C0A10093019262
:103B80001E461C464FF00109019A12F8018F01925E
:103B9000009A33460020264609FA00F118EA010F80
:103BA00018BF012402F1010108BF00241AAD05EB82
:103BB000D20E05EBD1071D193344234413F0010F36
:103BC00002F0070C01F0070100F1010005F001050A
:103BD000334602F1020207D01AF80CB01EF854CC9A
:103BE0004BEA0C0C0EF854CC35B11AF8015017F80A
:103BF000541C294307F8541C082801D02646CBE75B
:103C0000009B1033B3F5287F0093BDD1494F039B30
:103C100004253946002601241AAA02EBD60212F81E
:103C2000542C10060BD517F8160091F801C013F8A4
:103C300000E004FA0CFC4CEA0E0E03F800E050061B
:103C40000AD591F802C0C87813F80CE004FA00F025
:103C500040EA0E0003F80C0090060AD591F804C063
:103C6000487913F80CE004FA00F040EA0E0003F87B
:103C70000C00D00620D591F806C0C87913F80CE0E6
:103C800004FA00F040EA0E00B5F5257F03F80C00B9
:103C900015D1029D284C00231946284601E014F84E
:103CA000013F10F8012F01315340532905F8013F1E
:103CB000F5D11BB0BDE8F08FB5F5257FE9D0100731
:103CC0000BD591F808C091F809E013F80C0004FA3C
:103CD0000EFE4EEA000003F80C0050070BD591F8D9
:103CE0000AC091F80BE013F80C0004FA0EFE4EEA3D
:103CF000000003F80C0090070BD591F80CC091F868
:103D00000DE013F80C0004FA0EFE4EEA000003F872
:103D10000C00D20709D591F80EE0C87B13F80E20ED
:103D200004FA00F0024303F80E200836103108357B
:103D300072E700BF80000100A805010064060100D1
:103D400070B59AB002AC06AA012340F249354FF68D
:103D5000B74633EA010E0CBF2680258002345B0093
:103D60009442DBB2F5D102A922461030082307F0B5
:103D700057FA00230093224628230121024800F02D
:103D8000FDFB1AB070BD00BF3C1AFF1F70B5A2B09A
:103D9000044604F071FA20B9B4F89C320BB922B091
:103DA00070BD204604F0B0FA38B3012841D1B4F810
:103DB0009C32002B63D0564800F046FC282805466C
:103DC000EDD9B4F89E3201E0282DE8D95A1C2344DD
:103DD000A4F89E2293F844102046FFF7B1FFB4F8F0
:103DE0009E32B4F89C22283D9A42ADB2ECD8002312
:103DF000A4F89E32A4F89C32D1E7B4F89C32002B90
:103E0000D9D1444A1278002A53D1B4F8A0524DB106
:103E1000AA21E21801339BB29D4282F84410F8D1E6
:103E2000A4F89C520023A4F89E32002DC3D122B0E6
:103E300070BD022867D1B4F89C32002BBBD120465C
:103E400004F068FAB4F89C3203F11205ADB2981D83
:103E5000314E80B2552201E016F8012FE1180133EE
:103E60009BB2834281F84420F6D1AB42EFD10023CC
:103E7000A4F89C52A4F89E32002DD8D09BE720468F
:103E800004F048FA0C25B4F89C62731CA4F89C3228
:103E9000204604F03FFA26446B1E13F0FF0586F817
:103EA0004400F0D1A4F89E52B4F89C52002DBED02C
:103EB00081E7204604F02EFA0DF103050BAE2046F3
:103EC00004F028FA05F8010FB542F8D10DF13202DD
:103ED00001A92046FFF73CFEB4F89C32EA2203F128
:103EE0005505A620ADB20CA98DF830208DF8310013
:103EF00001E011F8012FE01801339BB29D4280F8D8
:103F00004420F6D18CE7B4F89C52002D8FD052E7B4
:103F10003C1AFF1F0077FF1F6C06010001EB4101F7
:103F2000490001F5967189B2B1F5167F8ABF4FF449
:103F30001673A0F8A012A0F8A032704708B504F0DC
:103F400075F9034BA3FB0030C0F3870008BD00BF29
:103F50004FECC44E70B506460624002585F00105D9
:103F60002946304600F03CFD2946304600F040FD31
:103F7000FA21304600F040FD631E13F0FF04EDD13E
:103F800070BD00BF2DE9F04F0024804683B04FF490
:103F9000167100F8044B02F0A3FB4FF4FA7108F11C
:103FA000180002F09DFB4FF4167108F12C0002F08E
:103FB00039FB08F19803C8F83C402146C8F8404056
:103FC000C8F84440C8F848401A46C8F84C40C8F8F9
:103FD0005040C8F85440C8F8584008F14C0B08F558
:103FE000927622F8021B9642FBD108F5BA79324646
:103FF000002122F8021B4A45FBD108F5D87A4A462F
:10400000002122F8021B5245FBD108F523755246C8
:10401000002122F8021BAA42FBD108F541702A4672
:10402000002122F8021B002490422746F9D14FF4C8
:1040300080424FF40061A8F80623A8F80823A8F8E6
:104040000A23A8F80C23A8F80E23A8F81023A8F830
:104050001223A8F814234FF00102184688F80443ED
:10406000C8F81C4388F82143A8F82243A8F8244341
:10407000C8F8284388F82C43A8F81613A8F8181392
:1040800088F8202321468C22019308F063FC214606
:104090005022304608F05EFC21463C22484608F09B
:1040A00059FC2146DC22504608F054FC2146782277
:1040B000284608F04FFC0123C8F84C40CBF80440D8
:1040C000CBF80840CBF80C40C8F83C30019BDFF837
:1040D00088E01D491D4AC8F840B04FF00C0C88F824
:1040E0004870C8F86030C8F86C60194BC8F8789010
:1040F0001848DFF86890C8F844E02A244FF0060B0F
:1041000052272026C8F86400A8F868C0C8F87010C4
:10411000C8F87C20C8F888304046C8F884A0C8F8A1
:104120009050A8F85C40A8F874B0A8F88070A8F87F
:104130008C60C8F8949000F01FFB4046FFF70AFF20
:10414000404603B0BDE8F08FB809FF1FCC0AFF1F3F
:10415000D009FF1FD80AFF1FB40AFF1F740AFF1FF0
:10416000027802B1704710B5044600F019FB012334
:10417000237010BD2DE9F043D0F81C3302780133D1
:104180008DB00446C0F81C33002A57D0D0F828134D
:104190004BF67F3291420CD9B04D2A78511E052939
:1041A00004D8022A00F0C68000222A700022C4F837
:1041B000282345F6BF5293425BD804F1180002F061
:1041C000C9FA40B9A64B1A782AB1187094F80413AA
:1041D000204600F009FC261D304602F0BBFA0128FB
:1041E00029D904F12C08002503AF40F6FF7902AB72
:1041F0005A190AA9304602F0F7FA04AB03EB45015D
:10420000404602F043FA94F821333BBBBDF8283016
:10421000B4F81613B4F906235B1A1BB203FB02F3BE
:10422000DB1303F30F0327F815300135022DDED120
:1042300094F82C3383B30DB0BDE8F08389498B42E9
:10424000F9D990F82013C0F81C2381F0010180F8FF
:10425000201300F0C5FB0DB0BDE8F083BDF8283099
:104260000BB14B45D4D1B4F822230132A4F8222358
:10427000CEE794F82013002381F00101204684F852
:104280002013C4F81C3300F0ABFB04F1180002F05B
:1042900061FA00289FD195E708A92A46384606F01A
:1042A0002DFF2B460AAA08A904F13C0007F0FCFEEA
:1042B0000A9B0B9A694EBDF80C00BDF80E103678BB
:1042C0001A4402EBD2735B1403F30F039BB2C21ABE
:1042D000CB1AADF81420ADF81630002E36D1624B53
:1042E0001B78002B6ED1614B1B78002B5CD1604B8F
:1042F0001B78002B43D15F4D5F4E2B7813B9337879
:10430000002B98D00223394604F15C0007AA07F07D
:1043100071FC3378002B76D12B78002B8BD0574B48
:104320001B78002B00F0938007A902225448FDF768
:104330009FFD80E74A4A1278002A3FF435AF0021FA
:104340005048FEF701FCD4F81C332DE7012E47D06E
:10435000022E5FD0032E00F0A580042E00F0B58061
:10436000052E00F0C580632E00F0DC80602E7FF407
:1043700062AF04A902224448FCF71AFE5BE706AAD2
:1043800005A904F18000022307F034FC06A907AA5E
:1043900004F18C00022307F02DFC07A9022304AAD4
:1043A0003A4800F0B7FFA6E707AA05A904F1740090
:1043B000022307F01FFC07A9022304AA344801F0D6
:1043C00079FE94E707AA2B4605A904F1680007F0D7
:1043D00011FC2B4604AA07A92E48FFF7D7FA82E75B
:1043E000214B1B78002B3FF426AF04F1680007AA8D
:1043F0002B4605A907F0FEFB2B4604AA07A9254872
:10440000FFF7C4FA17E7022304AA07A9224804F019
:104410006DFB81E7174B1B78002B3FF40CAF2B464D
:10442000394604F15C0007AA07F0E4FB134B1B7844
:10443000002B00F08A800A4B1B78002B7FD0009560
:1044400002AB04AA07A91548FDF734FDF3E604AA58
:1044500007A902231248FDF713FAECE6A445FF1F53
:104460000077FF1F7FA90300300BFF1F310BFF1FD9
:104470002D0BFF1F2F0BFF1F2E0BFF1F2C0BFF1FE2
:104480000C4CFF1FA845FF1F9845FF1F44A6FF1FA8
:104490005C51FF1FA073FF1F0877FF1F9C25FF1FA4
:1044A000888AFF1F2C4B1B78002B3FF4C4AE04F10D
:1044B0005C0007AA2B4605A907F09CFB2B4604AA23
:1044C00007A9264804F012FBB5E6254B1B78002B04
:1044D0003FF4B1AE04F1740007AA2B4605A907F01A
:1044E00089FB2B4604AA07A91E4801F0E3FDA2E6BA
:1044F0001D4B1B78002B3FF49EAE06AA2B4605A948
:1045000004F1800007F076FB06A904F18C0007AAED
:104510002B4607F06FFB2B4604AA07A9134800F0AF
:10452000F9FE88E6394604F1680007AA2B4607F031
:1045300061FB2A4607A90E48FCF798FA7BE62A4653
:1045400007A90C48FDF794FC75E62B4604AA07A9B9
:104550000948FDF795F96EE62E0BFF1F0877FF1F40
:10456000310BFF1F5C51FF1F2D0BFF1F44A6FF1FC8
:10457000488AFF1F0C4CFF1F888AFF1F2DE9F04758
:104580000678089F002E43D090F82C430546002C57
:104590003ED11E462B4B14461A78884632B990F805
:1045A0000413012251401A7000F01EFA08F1FF3185
:1045B000052904D8DFE801F03D3A3734312EB5F94A
:1045C00008932EB3013EB6B204EB4606BA46023C4F
:1045D00005F1180834F9023FB5F8182303FB09F375
:1045E000DB1303F30F0313449BB2B3F5805F19464B
:1045F000404604D3B5F824230132A5F82423DFB1C3
:104600009AF8002002F0C8F8B4420AF1010AE1D198
:10461000BDE8F087B5F91493D3E7B5F91293D0E765
:10462000B5F91093CDE7B5F90E93CAE7B5F90C9338
:10463000C7E7B5F90A93C4E719463A46404602F07F
:10464000ABF8E1E70077FF1F183002F05DB800BF5C
:1046500038B5044C23788B420D4601D000F0C8F9E0
:10466000257038BDA545FF1F80F82113704700BF96
:10467000704700BF2DE9F04780F804339DF824709F
:10468000BDF94460BDF940A09DF820509DF8284038
:104690009DF82C909DF830809DF834C09DF838E04E
:1046A0009DF83C30FF0106F500660AF5006AED0151
:1046B000E4014FEAC9194FEAC8184FEACC1C4FEA87
:1046C000CE1EDB01A0F80873A0F81663A0F818A3AB
:1046D000A0F80653A0F80A43A0F80C93A0F80E83A4
:1046E000A0F810C3A0F812E3A0F8143311B16D4282
:1046F000A0F80653AAB16442C9F10009C8F1000844
:10470000CCF1000CCEF1000E5B42A0F80A43A0F8F9
:104710000C93A0F80E83A0F810C3A0F812E3A0F841
:104720001433BDE8F08700BF30B4B0F82243B0F8CE
:1047300024330025641B18BF01245B1B18BF012311
:104740000C701370A0F82253A0F8245330BC7047AB
:10475000183002F075B800BF043002F071B800BF25
:104760000023C0F828337047D0F82803704700BFF3
:1047700090F82C03704700BF08B50121052004F014
:104780005DFC0121062004F059FC0121032004F006
:1047900055FC00210420BDE8084004F04FBC00BFD8
:1047A0004F4A5049F8B513684F4E504F504D514C39
:1047B00043F480531360C02333700B68A2F550425A
:1047C000083A43F000630B604FF0350E04231226C5
:1047D0004021C7F800E02E6021601360136843F0A9
:1047E00080031360136813F08003FBD14249434AEE
:1047F000434D0F681268434C2E68CD6824683A44D4
:10480000143132440968404E404F2A4422440A443D
:10481000C2F34E023E4D3F493F4C42F400423260EB
:10482000452680222E600A6021683C4A3C4E05F5F0
:10483000002541F0006121602035352139601224C6
:10484000042134602B601160136843F0800313600F
:104850001346196811F08004FBD1324A324B334DB4
:10486000D2F800E01B6832492F68D6680D6890F8CE
:1048700004133048734414323B4412682E4F3344BF
:104880002B441344C3F34E032C4E2D4D2D4A43F4B9
:1048900000433B608E274FF4407337602B60036802
:1048A000294EA5F530450C3D43F001030360042774
:1048B00040F2F310222314603760286013601368FD
:1048C00043F001031360052004F0B2FB21460620EB
:1048D00004F0AEFB01210320BDE8F84004F0A8BBC2
:1048E0002C8004403C80044021C00C4008B00340B0
:1048F0000CB0034020B0034038B003403CB003404C
:1049000040B0034048B003402CB0034008B00B4017
:1049100000B0034004E100E03080044024B00B40CC
:104920000CB00B4038B00B403CB00B4040B00B40DB
:1049300048B00B40388004402CB00B401880044035
:1049400014B00440000004400400044030B583B0BB
:104950004FF400630DF105020DF106010446002538
:104960001830ADF806308DF8055001F03DFF154BBD
:10497000154A1B68BDF8061011801B0616D4134B90
:10498000196811F080011DBF196904F12C0089B26A
:1049900004F12C0001F054FE0C4B04221A60D4F8F0
:1049A00028330133C4F8283303B030BD084B9DF8D9
:1049B00005201B689BB21946201DADF8063001F09A
:1049C000EBFEDCE700B0034000C00C4000B00B4041
:1049D00010B003400148FFF7B9BF00BF3C1AFF1FEA
:1049E000032004F025BB00BF052004F021BB00BF5D
:1049F000062004F01DBB00BF084604F025BB00BF25
:104A0000014802F069BC00BF4442FF1F10B5434893
:104A1000434C02F067FC4348FFF7ACFB424B1B786A
:104A2000002B3FD02378012B39D0404A12780AB1AD
:104A3000022B3ED03E4A12780AB1032B5FD03D4A8A
:104A400012780AB1042B5FD03B4A12780AB1052BC9
:104A500050D03A4A127852B1062B04D0384801F0AF
:104A6000F3FC00283ED0364801F062FD2378632B2A
:104A70003BD0A3F15C02D2B2062A0AD84D2121FA1A
:104A800002F2D20703D52F48FBF712FF23785D2BE4
:104A900017D05B2B1BD0652B1FD02BB110BD2A4824
:104AA000FFF774F92378C0E72848BDE81040FBF70A
:104AB000F1BC274B1B7863B32648FEF715FA237821
:104AC000B8E72548FCF708FA23785B2BE3D12348A5
:104AD000FCF7C2F92378652BDFD12148FCF73EFAB9
:104AE0002378DAE72378632BC3D11E48FBF7F2FF64
:104AF0002378BEE71C4800F0FBFC2378A9E71B489D
:104B000004F008F923789AE7194801F0EBFB2378C1
:104B10009AE71848FCF750FF23788BE74442FF1FC1
:104B2000A445FF1F3C1AFF1F300BFF1F2F0BFF1F59
:104B30002E0BFF1F310BFF1F2D0BFF1F320BFF1F13
:104B40005843FF1FC0B5FF1FF822FF1F4816FF1F65
:104B50002C0BFF1FA845FF1F40A6FF1F0477FF1F58
:104B6000381AFF1FECB5FF1F6C1DFF1F44A1FF1F6C
:104B70009446FF1FF0B5FF1F08B52548FEF73EFA23
:104B80002448FEF74FFF2448FCF79AFF2348FDF71F
:104B900085F92348FDF7AEFE2248FCF757FA224874
:104BA000FCF78CFE214803F0EBFB214803F0F4FFF7
:104BB000204800F02BFD204801F0EAFA1F4800F0E1
:104BC00057F81F4800F0F8FB1E4801F00FFC1E4884
:104BD000FBF7B4FE1D48FBF779FF1D48FBF742FDCC
:104BE0001C48FCF775F91C48FCF730F91B48FCF72A
:104BF000B1F91B48FCF7D4F91A48FBF737FC1A48FF
:104C000002F01AF81948BDE80840FFF7BBB900BF29
:104C1000A073FF1FF822FF1F0C4CFF1F9C25FF1FD6
:104C2000A845FF1F888AFF1FF0B5FF1F0877FF1FE9
:104C300044A1FF1F5C51FF1F9446FF1F44A6FF1FA6
:104C40006C1DFF1F5843FF1F488AFF1FECB5FF1F55
:104C5000C0B5FF1F40A6FF1F0477FF1F381AFF1FB4
:104C60009845FF1F4816FF1F4442FF1F3C1AFF1FB5
:104C70000346002203F8022B00F1160123F8022B51
:104C80008B42FBD130B400F61675002423F8024B9A
:104C9000AB424FF00002F9D142F20F73A0F81A3F75
:104CA000A0F81C3FA0F81E3FA0F8203FA0F8223F2C
:104CB000A0F8162FA0F8182FC0F8242FA0F8282F3E
:104CC00080F82A2F00F62C7300F64C7423F8022B80
:104CD000A3424FF00001F9D1A0F84C1F00F64E732B
:104CE00000F66E7423F8021B9C424FF00002F9D1CB
:104CF0006323A0F86E2FC0F8742FA0F8782F80F8E7
:104D0000703F30BC704700BF002342F20F72632136
:104D100080F8701F0370A0F8183FA0F8163FC0F885
:104D2000243FA0F84C3FA0F86E3FA0F8283F80F841
:104D30002A3FC0F8743FA0F8783FA0F81A2FA0F8D7
:104D40001C2FA0F81E2FA0F8202FA0F8222F7047AC
:104D5000F0B5044683B0002A7BD0404F4FF47A5E12
:104D60003E467546002015E09E42B8BF1E469D4255
:104D7000A8BF1D4601F10A039BB2B3F5F06F00F125
:104D80000100A1F2767138BF194683B228BF89B2FB
:104D90009A420CD904EB4103B3F91630002BE3DC43
:104DA0009E45A8BF9E469F42B8BF1F46E2E77219C4
:104DB0000EEB070352105B10D6187610951B1BB232
:104DC0002DB236B212B2019500962549254803F05E
:104DD00093F994F8703F632B29D004EB430201331D
:104DE000DBB20F2BA2F82C6FA2F84E5F04F62A71EB
:104DF00084F8703F04F64C7004F64A7725D80022F8
:104E00001346A4F84C2FA4F86E2F31F8026F30F837
:104E1000025F32442B44B94212B21BB2F5D11211D7
:104E20001B11A4F84C2FA4F86E3F03B0F0BD04F69C
:104E30002A7104F64C700B46024604F64A7723F8B2
:104E4000026FBB4222F8025FF9D1002384F8703F61
:104E5000D5E7154616461346B5E700BF80C1FFFFEC
:104E60008C0601004442FF1F2DE9F04FBDF824508D
:104E7000BDF928C0BDF92C80002A7AD0AE1C0135BE
:104E8000DFF8F4E01FFA8CFCB6B2ADB2C8F100094D
:104E900000272AE04FEAE40A04F0070413F80AB0F6
:104EA0001EF804402BEA040403F80A4005F0070B3F
:104EB000EC101EF80BB013F804A04BEA0A0A03F832
:104EC00004A001F10A04A4B2B4F5F06F07F10107E0
:104ED00028BFA1F27671BFB22CBF89B2214602363B
:104EE0000235BA42B6B2ADB243D000EB410AB41EAD
:104EF000BAF816A0CCEB0A0A0FFA8AFACA45A4B28D
:104F0000C8DBBAF1000F1CDBC2454FEAE40A04F02B
:104F1000070413F80AB01EF8044044EA0B0403F82F
:104F20000A4005F0070B4FEAE5041EF80BB013F832
:104F300004A0B4BF2AEA0B0A4BEA0A0A03F804A049
:104F4000BFE74FEAE40A04F0070413F80AB01EF8BA
:104F500004402BEA040403F80A4005F0070BEC10A8
:104F60001EF80BB013F804A02AEA0B0A03F804A0F9
:104F7000A7E7BDE8F08F00BFFC060100B0F8163FC0
:104F800000EB43032DE9F04F05465888C0F30900B4
:104F900080F4A67089B080F0010003F0D7F90228F0
:104FA00040D8B5F818CF5549554F0CF22676B6B211
:104FB000B6F5F06F26BFACF15A031FFA83F8B0467E
:104FC00001F1090E6FF0020300244FF47A5005EB53
:104FD0004802B2F916209742B8BF17469042A8BFC0
:104FE0001046012B19D0032B13D0013301D002EB53
:104FF0004202144408F10A039BB2B3F5F06F24BFD8
:10500000A8F276739BB28E4510D0984611F9013FF5
:10501000DDE702EB4202A41AECE7A41AEAE7059BDB
:105020009B453FD9002009B0BDE8F08FD5F8243F5B
:10503000A342F7DA95F8703F632B50D0B5F94C3F97
:10504000B5F96E2F0292B6F5F06F24BFACF15A0697
:10505000B6B200270DF11C0A01933146534628468B
:1050600000970A22FFF700FF2B78DFF89890DFF80F
:105070009880BB4214BF03230123BB460593CD2078
:10508000FF211AF807200A40504003F059F9013770
:105090005844032F5FFA80FBC1D019F8011F18F89C
:1050A000010FEEE7B5F8183FA5F81E3F03F21B729B
:1050B00092B2B2F5F06F4FF0060128BF653B4FF09A
:1050C0000100C5F8244FA5F81A6FA5F8281F34BFB2
:1050D000A5F81C2FA5F81C3F09B0BDE8F08FC31937
:1050E0005B10FF1A44F63E1202FB07F71BB247F3B0
:1050F000CF32A5F84C3FA5F86E2FA3E77806010044
:1051000080C1FFFF840601008806010010B5044637
:10511000FFF734FF94F82A3F28B33BB3013BDBB2DF
:10512000012B84F82A3F20D1B4F81E3F03F27F728E
:1051300092B2B2F5F06F28BF03F1FF32A4F8202F2E
:105140005A1C92B2B2F5F06F24BFA3F27F73A4F899
:10515000223F4FF0000338BFA4F8222F84F82A3FE3
:105160000122227010BD002BD8D110BDC4F8743FAD
:10517000A4F8783F01210748FFF76AFA01210548A2
:10518000FFF772FA6322042384F8702F84F82A3F11
:1051900010BD00BF3C1AFF1FB0F8783F10B50446A1
:1051A0004BB931220E4802F02DFE0023C4F8743FA3
:1051B000A4F8783F10BDD4F8742FB2FBF3F3C3F317
:1051C000072281F8323081F831200548332202F07D
:1051D00019FE0023C4F8743FA4F8783F10BD00BF47
:1051E0004442FF1F30B5B0F8202FB0F8221FB0F8AE
:1051F000183F8A4293B0044607D29A4207D9B4F8BE
:105200001C2F9A420ED013B030BD9A4201D9994258
:10521000F5D32046FFF7B2FEB4F8183FB4F81C2FC0
:105220009A42F0D1B4F8283F062B53D0C022B4F8EC
:105230001A1F2046FFF78CFDB4F96E1FB4F94C3FDE
:10524000B4F91E2F2F4800912F4902F0E9FEB4F95E
:105250006E3FB4F94C0FB4F81A1F02930822019064
:10526000009205ABC0222046FFF7FEFDB4F8285F90
:10527000013DADB2A4F8285F7DB1A5F10505B5FAF1
:1052800085F56D0905A920468DF81450FFF784FFB8
:105290000023C4F8243F13B030BD1C49194802F064
:1052A0005FFE29461A48FFF7D3F929461848FFF749
:1052B000DBF9144802F0DAFD42F20F726323257025
:1052C00084F82A5FC4F8245FA4F81C2F84F8703F88
:1052D00013B030BDB4F81E3F03F27F7292B2B2F544
:1052E000F06F28BF03F1FF32A4F8202F5A1C92B2AE
:1052F000B2F5F06F2ABFA3F27F73A4F8222FA4F8AF
:10530000223F93E74442FF1FB0060100D806010088
:105310003C1AFF1F002B4DD02DE9F0415D1EEDB270
:10532000044601EB45058F1EA2F10208002619E094
:10533000FFF758FFB4F8183F01339BB2B3F5F06F95
:1053400038BFA4F8183FB4F8163F28BFA4F8186F68
:1053500001339BB2092B94BFA4F8163FA4F8166F33
:10536000BD4225D038F802EFD4F8740FB4F8783F76
:10537000B4F8162F37F9021F04EB420270440133D0
:10538000C4F8740FA4F8783F53885B009BB20029DF
:10539000B8BF43F001035380B4F8183F227804EB00
:1053A0004303012AD9822046C2D0FFF7AFFEC1E7EE
:1053B000BDE8F081704700BFF8B54FF47A6106464A
:1053C00006F1280702F01EFF002333611A467361BD
:1053D000B36106F148053B4623F8022BAB42FBD1F3
:1053E00006F1D4012B46002223F8022B8B42FBD17D
:1053F00006F28451002203F8012B8B424FF0000487
:10540000F9D1F023A6F88835A6F88445A6F8864594
:1054100021462022384607F09DFA21468C22284654
:105420000A2407F097FA09200549064B347416221E
:105430007082B76135627161B28373623046F8BDC4
:10544000600BFF1F340BFF1F312A01D0042070476F
:1054500070B505460C4602F0E9FE2F2801D805205C
:1054600070BD04F1300614F8011F284602F026FF33
:10547000B442F8D1002070BDF0B5ADB0054602AC25
:1054800004AA4FF0F50E40F2DF274FF621564FF6F3
:105490000B7001F0C003802B24D0C02B20D0EBB1C7
:1054A0002680023489009442C9B2F2D102A9224670
:1054B00005F11000042305F0B3FE214605F11C00A0
:1054C00018AA282306F096FB0023009318AA282385
:1054D00005210648FFF752F82DB0F0BD2080E0E727
:1054E0002780DEE7A4F800E0DBE700BF3C1AFF1FDF
:1054F000F8B5044602F0C0FEB4F8843518BB002BA2
:105500004AD03248FFF7A0F8282805465CD9B4F8FD
:10551000863501E0282D3FD95A1C2344A4F886255E
:1055200093F8D4102046FFF7A7FFB4F88635B4F8F7
:105530008425283D9A42ADB2ECD80023A4F88635E4
:10554000A4F88435F8BD002BDBD1214A127822BBA8
:10555000B4F8881539B15F20E21801339BB28B4251
:1055600082F8D400F8D14A1C8B1C661814FA83F315
:1055700014FA82F203315727752589B2FD2086F887
:10558000D47082F8D450A4F8841583F8D400002392
:10559000A4F886350029B4D1F8BD3025204602F0A4
:1055A000B9FEB4F88435591CE2186B1E89B213F0A9
:1055B000FF05A4F8841582F8D400EFD10023A4F8E5
:1055C00086350029E8D09CE7F8BD00BF3C1AFF1FD4
:1055D0000077FF1F01EB4101490001F5967189B287
:1055E000B1F5966F8ABF4FF49663A0F88815A0F8BE
:1055F0008835704708B502F019FE034BA3FB003055
:10560000C0F3471008BD00BFABAAAAAA03460022F8
:10561000F0B403F8042B054600F1180143F8042BFD
:105620008B42FBD105F507511831002423F8024BBA
:105630008B424FF00002F9D142F2D81642F2DA134F
:1056400042F2DC1442F2DE11AA53EA5242F20F7324
:105650002B5342F2E0176B5242F2E21642F2E4148C
:1056600042F2E611EB53AB5342F2E8172B5342F2EE
:10567000EC166B5242F2F01442F2F211EB5305F5C4
:105680000850AA5105F507532A536A54343314308D
:1056900023F8022B83424FF00001F9D142F2142289
:1056A00005F508531846A9521633363023F8021B65
:1056B00098424FF00002F9D142F2362742F23826E2
:1056C00042F23C2005F5095142F24223EA53632796
:1056D000AF552A500A80EA542846F0BC704700BFF4
:1056E000F0B542F2DA1742F2D81642F2EC15002376
:1056F00042F23822C35342F2DC14037042F2DE114C
:10570000835343516325855442F20F72025342F290
:10571000E017425242F2E61642F2E81542F2E21473
:1057200042F2E411C25342F2142E825342F236275F
:10573000425342F2F016025342F2F215425242F242
:105740003C2400F5095142F2422220F80E30C353A6
:105750008353435503510B808354F0BDF0B5044689
:1057600083B0002A00F08C80474F4FF47A5E3E46AB
:105770007546002016E09E42B8BF1E469D42A8BF57
:105780001D464B1D9BB2B3F5875FA1F5865100F115
:105790000100A1F11B0138BF194683B228BF89B2AD
:1057A0009A420CD901F10C0334F91330002BE2DCDE
:1057B0009E45A8BF9E469F42B8BF1F46E1E77219AB
:1057C0000EEB070352105B10D6187610951B1BB218
:1057D0002DB236B212B2019500962C492C4802F037
:1057E0008BFC42F23822A35C632B33D004EB4301E1
:1057F00042F2F41742F216200133CE53DBB20D52BF
:1058000004F50850074604F507510F2BA35401F186
:10581000320100F1140007F112072CD842F23622AF
:1058200042F2142500236353A3521A4631F8026F43
:1058300030F8025F32442B44B94212B21BB2F5D1A8
:1058400042F2142042F2362112111B1122526352ED
:1058500003B0F0BD04F5075104F50850323114309F
:1058600004F508570B460246123723F8026FBB4275
:1058700022F8025FF9D142F238230022E254CDE748
:10588000154616461346A6E780C1FFFF2407010010
:105890004442FF1F2DE9F04FBDF82450BDF928C048
:1058A000BDF92C80002A7BD0AE1C0135DFF8F4E076
:1058B0001FFA8CFCB6B2ADB2C8F1000900272BE08C
:1058C0004FEAE40A04F0070413F80AB01EF8044093
:1058D0002BEA040403F80A4005F0070BEC101EF84D
:1058E0000BB013F804A04BEA0A0A03F804A04C1DFD
:1058F000A4B2B4F5875F28BFA1F5865107F101076F
:1059000028BF1B39BFB22CBF89B2214602360235EF
:10591000BA42B6B2ADB243D001F10C0AB41E30F8AF
:105920001AA0CCEB0A0A0FFA8AFACA45A4B2C7DB5E
:10593000BAF1000F1CDBC2454FEAE40A04F0070489
:1059400013F80AB01EF8044044EA0B0403F80A40B6
:1059500005F0070B4FEAE5041EF80BB013F804A09E
:10596000B4BF2AEA0B0A4BEA0A0A03F804A0BEE70E
:105970004FEAE40A04F0070413F80AB01EF80440E2
:105980002BEA040403F80A4005F0070BEC101EF89C
:105990000BB013F804A02AEA0B0A03F804A0A6E748
:1059A000BDE8F08F880801002DE9F04F42F2D813CE
:1059B00005467548EB5A05EB830387B05B6823F017
:1059C0007F43584002F0C2FC02287CD842F2DA132E
:1059D0006E4935F803C06E4F0CF583560D36B6B2DE
:1059E000B6F5875F26BFACF173031FFA83F8B046A4
:1059F00001F1170E032300244FF47A5008F10C0232
:105A000035F912209742B8BF17469042A8BF1046FA
:105A1000012B1AD0032B14D0013301D002EB420228
:105A2000144408F1050293B2B3F5875F03D3A8F5D8
:105A300086531B3B9BB28E4509D0984611F9013F16
:105A4000DCE702EB4202A41AEBE7A41AE9E742F210
:105A5000EC13EB58A34236DA42F23823EB5C632BAB
:105A600070D042F2142342F23622EB5EAA5E02921A
:105A7000B6F5875F24BFACF17306B6B20027019379
:105A8000284604AB009718223146FFF703FF2B7816
:105A9000DFF80081BB420DF1100B14BF4FF0040A78
:105AA0004FF0020A08F10509552001E018F8010F2E
:105AB0001BF8013B584002F043FCC8453844C7B2CC
:105AC000F4D1574503D9002007B0BDE8F08F42F26A
:105AD000DA1342F2E812EB5AAB5203F58352073263
