:10000000F8FF02209901000051C6000009C6000057
:1000100009C6000009C6000009C6000009C60000A4
:1000200009C6000009C6000009C6000051C600004C
:1000300051C6000009C60000FDC3000001C5000054
:1000400051C6000051C6000051C6000051C6000054
:1000500051C6000051C6000051C6000051C6000044
:1000600051C6000051C6000051C6000051C6000034
:1000700051C6000051C6000051C6000051C6000024
:1000800051C6000051C6000051C6000051C6000014
:1000900051C6000051C6000051C6000051C6000004
:1000A00051C6000051C6000051C6000051C60000F4
:1000B00051C6000051C6000051C60000F1C6000044
:1000C00051C6000059AE000051C6000071B10000D9
:1000D00051C600001DC8000051C600006D5F000041
:1000E00051C6000051C6000051C6000051C60000B4
:1000F00051C6000051C6000051C6000051C60000A4
:1001000051C6000051C6000051C6000051C6000093
:1001100051C60000FDB3000051C6000051C60000EA
:1001200051C6000051C6000051C6000051C6000073
:1001300051C6000051C6000051C6000051C6000063
:1001400051C6000051C6000015C9000051C600008C
:100150000DCA000051C6000051C6000051C6000083
:1001600051C6000051C6000051C6000051C6000033
:1001700051C6000051C6000051C6000051C6000023
:1001800051C6000051C6000051C6000051C6000013
:1001900051C6000051C60000584B4CF2205210B519
:1001A0001A804DF628121A8000BF00BF0CF054FAD6
:1001B000534B4FF030621A60524A9A60524ADA60EA
:1001C000524B4FF470021A60514A136813F4807353
:1001D00004D150490B604FF4A85313604E4B1A786A
:1001E000110703D51A7842F008021A704B4B4C499C
:1001F0002A221A704B4A4C4B8B4204D252F8040FFD
:1002000043F8040BF8E7494B494900228B4202D2DC
:1002100043F8042BFAE74749474A002352F82300E2
:1002200041F823000133662BF8D1444B444A802126
:1002300003F8011B9342FBD1424B3E4A1A60424BEA
:100240008A221A70A3F5805324225A70A0221A70B1
:100250009A799207FCD59A79D406FCD43B4A9379D3
:1002600003F00C03082B394BF9D103221A714622F3
:100270005A719A799006FCD5344A9179334B4906E4
:10028000FBD5334A4FF08271116009215160202261
:100290001A709A7902F00C020C2AFAD12D4B2E4AD0
:1002A0001A602E4B2E4A1A6000225A60072243F829
:1002B000042C2C4AC3F80C2D62B60AF011FC154B25
:1002C0001B68DA0705D528480AF090FB274B284A17
:1002D0001A60284B1B785B0609D5244C244B2268F6
:1002E0009A4204D120480AF081FB002323600DF0DC
:1002F000FBFD0CF0B7F90AF00BFBFEE70E20054002
:1003000030800440823F04000100002B88ED00E0B3
:1003100010D0034014D0034002D0074000E0074053
:10032000FC15FF1F4C390100F806FF1F0016FF1FC8
:10033000A4C8FF1F0002FF1F0000000000E400E04F
:1003400056E400E008ED00E00050064000400640A2
:100350004480044004800440C010050014E000E024
:10036000BFD40100000020209AC8BF5E1CE00340FB
:10037000A5C3945A00F00740FFFFFFFFFFFFFFFFF8
:10038000FFFFFFFFFFFFFFFFFFFFFFFFFFFFFFFF7D
:10039000FFFFFFFFFFFFFFFFFFFFFFFFFFFFFFFF6D
:1003A000FFFFFFFFFFFFFFFFFFFFFFFFFFFFFFFF5D
:1003B000FFFFFFFFFFFFFFFFFFFFFFFFFFFFFFFF4D
:1003C000FFFFFFFFFFFFFFFFFFFFFFFFFFFFFFFF3D
:1003D000FFFFFFFFFFFFFFFFFFFFFFFFFFFFFFFF2D
:1003E000FFFFFFFFFFFFFFFFFFFFFFFFFFFFFFFF1D
:1003F000FFFFFFFFFFFFFFFFFFFFFFFFFFFFFFFF0D
:10040000FFFFFFFFFFFFFFFFFFFFFFFFDEF9FFFF23
:1004100010B5054C237833B9044B13B10448AFF33E
:1004200000800123237010BD0016FF1F0000000094
:1004300050390100084B10B51BB108490848AFF30B
:1004400000800848036803B910BD074B002BFBD0A0
:10045000BDE81040184700BF000000000416FF1F51
:1004600050390100FC15FF1F0000000010B40346C6
:1004700000F57A74002103F8011BA3424FF000023B
:10048000F9D1A0F8E823A0F8EA2380F8EC235DF87E
:10049000044B7047B0F8E83303B97047F0B5044631
:1004A00083B0224805F09AFB182805463CD9B4F8D9
:1004B000EA331F4E1CE0CDF800E005F023FB94F872
:1004C000EC330133DBB2183D312B84F8EC33ADB2A1
:1004D000B4F8EA3306D901339BB20022A4F8EA3318
:1004E00084F8EC23B4F8E8239A4218D9182D1BD9C4
:1004F000DA1003F00703A15CF75C0E4A0B480F40CB
:100500004FF0000E4FF018034FF06101D3D1009768
:100510001823094A0548612105F0F4FACFE70023C2
:10052000A4F8EA33A4F8E83303B0F0BDFC73FF1F6E
:1005300014EB0000F806FF1F1C16FF1F2DE9F04703
:1005400005460F46144600214FF47A720DF0BCFFA9
:1005500000230822A5F8E823A5F8EA3385F8EC3350
:10056000002C64D004F1FF3C3649374E57FA8CFC1E
:1005700007F1FF3E40F2E2371EF8019FB9F1410F4B
:100580005BD00124422004E0814518D016F82800F1
:100590001C46631CDBB203EB43080028F4D1F4458E
:1005A000EAD1082A43D0053292B2A5F8E8232749B8
:1005B000274812B209F022FA0020BDE8F08704EBC8
:1005C000440306EB830320481B7A002BE7D004EB9F
:1005D000440400EB8404013B02F1010858FA83F85B
:1005E000D4F804901FFA88F84FF0004411E011F895
:1005F00003A02B5C23EA0A0302F1010ABA422B543E
:100600001FFA8AF24FEA540411D84245A5F8E823AC
:10061000C5D034EA090A4FEAE20002F00703E6D146
:100620009A462B5C11F80AA04AEA0303E4E7002388
:10063000A5F8E8330420BDE8F08703480823002428
:10064000C5E700BF14EB000004E90000E8E8000083
:10065000203FFF1F0023A0F8E833A0F8EA3380F81A
:10066000EC337047F0B5002200F108040646027032
:100670004270426023462A3003F8012B83424FF038
:100680000001F9D1094F86F82A1007F1200E3D46E6
:100690000FCD754520606160A260E3602F4604F1D4
:1006A0001004F4D12B8823803046F0BD10EC0000FC
:1006B000114AC1EBC1015318F0B5515C867D9A799E
:1006C000057F5C78C47522F00F0201F00F0405F07D
:1006D0000F0526F00F01214393F802E0DF781E7921
:1006E0005C79817545EA020380F818E047768676E2
:1006F000C4760377F0BD00BF1CEB0000114AC1EBCC
:10070000C1015318F0B5515C867D9A79057F5C78FC
:10071000C47522F00F0201F00F0405F00F0526F05A
:100720000F01214393F802E0DF781E795C7981752F
:1007300045EA020380F818E047768676C4760377A8
:10074000F0BD00BF9CEB000010B50446304802F03D
:100750006BFC2F4802F0F8FA48B16378013B032B99
:1007600003D8DFE803F0182D40050023637010BDA7
:10077000274802F0DFFC63681E339842F7D9002156
:10078000234802F081FA224802F0D0FC002384F8CA
:100790002A30637010BD01211D4802F0A1FC09221E
:1007A0001C491B4802F01CFA22221B49184802F07F
:1007B000E7F90121164802F067FA0223637010BDC1
:1007C00094F82A102046FFF773FF222204F1080153
:1007D0000F4802F0D5F994F82A30052B0FD00133D9
:1007E00084F82A3010BD22220C49094802F0C8F9C9
:1007F000074802F09FFC04236060637010BD2378FB
:10080000002284F82A20002BB1D10323637010BD8D
:100810008442FF1F90EB0000ECEB000048EB00006F
:1008200010B504461F4801F067F91E4801F0CAF9E7
:1008300050B16378022B08D0032B21D0012B17D0A5
:100840000023637084F82A3010BD94F82A102046E3
:10085000FFF754FF222204F10801124801F002F9C7
:1008600094F82A30052B13D0013384F82A3010BDB8
:1008700022220D490B4801F0F5F80223637010BDE8
:1008800022220A49074801F0EDF80023637010BDE9
:100890002378002284F82A20002BD5D1032363700B
:1008A00010BD00BF44BFFF1F6CEB0000C8EB000091
:1008B00008B5124B1B785C3B062B18D8DFE803F019
:1008C00013170F0417170400017889B10C48012190
:1008D00002F0E8F90A48BDE8084002F0A5BBBDE80F
:1008E0000840FFF731BFBDE80840FFF799BF08BDDA
:1008F0000348BDE8084002F0D5B900BF8042FF1FA1
:100900008442FF1F012A01D0042070470A78012A7F
:100910000CBF01230023037009D143783BB906497A
:10092000097801F0FD015C2903D0184670470020CA
:1009300070474270184670478042FF1F002210B473
:1009400002600271826000F10C0300F13C0423F8A4
:10095000022BA3424FF00001F9D180F83C105DF862
:10096000044B7047F0B5836800294FEA4303B8BFD2
:1009700043F001038360064690F83C00421C06EBFE
:100980004000D2B286F83C20172A8181334888BFC4
:10099000002223F07F4388BF86F83C2083B0584074
:1009A00009F01CFA022813D82D4806F10A0306F1B3
:1009B0003A014FF47A5433F9022F9042B8BF1046EF
:1009C0009442A8BF14469942F5D1031B052B32DC93
:1009D000B368244823F07F43584009F0FFF9022808
:1009E00013D81F4D06F10A0306F13A014FF47A5469
:1009F00033F9022F9542B8BF15469442A8BF14465A
:100A00009942F5D12B1B052B01DC03B0F0BD8023EF
:100A10002F1226120522694613488DF802508DF8D0
:100A200001708DF804408DF803608DF8003008F0F7
:100A300087FF03B0F0BD0712251200238DF80200D6
:100A40000522694608488DF801708DF804408DF83C
:100A500003508DF8003008F073FFB9E768B4AA00BE
:100A600080C1FFFF974B5500203FFF1F6AB370B551
:100A7000561EB6B2044601EB46068D1E02E0B54294
:100A800023601FD035F9021F2379C80F83421AD083
:100A90002368B3F5004F03F2991224BF6FF4CC72B0
:100AA0009A18226002F54C533333B3F5803F20711E
:100AB000E5D3A2F54C42CD3A22602046FFF752FF23
:100AC000B542DFD170BD2268ECE7704700220270AA
:100AD0004280704710B5044684B0C74803F0F6F969
:100AE00023780BB904B010BDC34803F0C7FA04283B
:100AF000F8D9C24B01AA03F10B009E2101E013F8C3
:100B0000011F02F8011B8342F9D16288BC48A2FB95
:100B10000001531A01EB53031B0903EB4303C3EB1F
:100B2000C303D31A9BB2002B41D0012A5CD0022A06
:100B300050D0032A62D0042A6AD0052A72D0062A2D
:100B40007AD0072A00F08280082A00F08980012BE1
:100B500000F09080022B00F09780032B00F09E8025
:100B6000042B00F0A580052B00F0AC80062B00F0D4
:100B7000B380072B00F0B880082B00F0D480092A3E
:100B800000F0AC80092B00F0EC800A2A40F0C08015
:100B90000B2B00F0A7800C2B40F0CF803D210222D0
:100BA000D7238DF80D108DF80E208DF80F3001A988
:100BB0000C22914803F030F86188924B01314A08C9
:100BC000A3FB0232120A40F2762303FB1213638066
:100BD00004B010BD34211922DE238DF80D108DF8DC
:100BE0000E208DF80F30E2E730210222DE238DF84F
:100BF0000D108DF80E208DF80F30D8E731216F22BF
:100C0000DE238DF80D108DF80E208DF80F30CEE715
:100C10001F212B22F6238DF80D108DF80E208DF854
:100C20000F30C4E732212222B3238DF80D108DF846
:100C30000E208DF80F30BAE724212A22E0238DF808
:100C40000D108DF80E208DF80F30B0E733213B22C8
:100C5000B3238DF80D108DF80E208DF80F30A6E718
:100C600050216F22B3238DF80D108DF80E208DF8D2
:100C70000F309CE725214F2293238DF80D108DF81E
:100C80000E208DF80F3092E770210B22DA238DF8B9
:100C90000D108DF80E208DF80F3088E725211D22CC
:100CA000D6238DF80D108DF80E208DF80F307EE7CD
:100CB00033211B22B3238DF80D108DF80E208DF8F3
:100CC0000F3074E725216F22D7238DF80D108DF892
:100CD0000E208DF80F306AE73921E0E70A2B0DD09E
:100CE0000B2B60D12521BCE725210C22C7238DF8D1
:100CF0000D108DF80E208DF80F3058E721210C22B1
:100D0000C2238DF80D108DF80E208DF80F304EE7B0
:100D10000A2BF3D00B2A2ED10C2B3FF43FAF0D2B17
:100D20003BD1252157E750216F22D0238DF80D109C
:100D30008DF80E208DF80F3039E70D2BF1D00E2AEB
:100D40002BD10F2B39D0102B41D0112B49D016218C
:100D50002922F5238DF80D108DF80E208DF80F3017
:100D600025E725211E22D0238DF80D108DF80E20A9
:100D70008DF80F301BE70B2BB4D00C2A13D10D2BA1
:100D8000CFD00E2B3FF46CAF0F2B16D0102ADCD037
:100D9000102B1CD0112AD8D1D9E70E2B3FF460AF0D
:100DA0000F2AD0D0F0E70C2B3FF4F8AE0D2AC4D1B7
:100DB0000E2B3FF455AF0F2BEAD125211B22D62352
:100DC0008DF80D108DF80E208DF80F30EFE62321F1
:100DD0001B223A238DF80D108DF80E208DF80F3060
:100DE000E5E621212522F5238DF80D108DF80E2042
:100DF0008DF80F30DBE600BFD41FFF1F60EC000052
:100E000087611886D1000DD0012A01D004207047D7
:100E100038B50B78012B04460CBF0125002503785B
:100E200003D05BB92570002038BD002BFAD1438078
:100E300029220449044802F0C9FEF3E7024802F0FF
:100E400011FFEFE734EC0000D41FFF1F00224FF426
:100E5000C06101810280428042608272C27202736C
:100E6000704700BF2DE9F0413E4F027B3B789A422C
:100E700082B0054644D0663B052B70D8DFE803F00E
:100E80005B5F63676B0340F6BF11018040F6BF12E2
:100E9000914235484FF0000306D00133062B31D084
:100EA00030F833209142F8D12F4EDBB216EBC30657
:100EB00028D0686873886B8010B109F033FD6B88A7
:100EC000580009F02DFD6B886860BBB10024A04676
:100ED00040460CF0ABFFB5F90830726883FB0001A7
:100EE000C30F43EA4103696803F30F0321F8143089
:100EF00001346B88A4B2A3429044E9D83B782B73A9
:100F0000AB7A13B902B0BDE8F081184804F066FE70
:100F10006B8883420446F5D200266A683978134804
:100F2000009604F0EFFD6B88E41AA4B2A342F4D358
:100F300002B0BDE8F0814FF46F710180A6E740F286
:100F40000F410180A2E740F2DF4101809EE740F2BD
:100F5000616101809AE740F61F01018096E7002158
:100F6000018093E78042FF1F6CEC0000FC73FF1FC1
:100F7000012A01D0042070470B78A3F10103B3FAD2
:100F800083F35B0983720020704700BF0022027068
:100F900042708270704700BF10B50446114805F0DA
:100FA000C5FD104805F066FE28B16378012B03D01B
:100FB00000236370A37010BDA3780B490948C3EBED
:100FC000C303C3EBC3031944312205F03DFDA378ED
:100FD0002278013303F00303A370002AEBD162707F
:100FE00010BD00BF401AFF1F9CEC0000012A01D079
:100FF000042070470A78012A0CBF012300230370E4
:1010000004D1437813B942701846704700207047E6
:10101000002202704270704710B50446114806F075
:10102000CDFC104806F066FD60B16378012B0AD054
:10103000022B10D1D9220C490A4806F043FC237830
:1010400063B9637010BDD9220849064806F03AFC1E
:101050000223637010BD00236370F3E70123637004
:1010600010BD00BF7043FF1F0408FF1F2807FF1FAC
:10107000012A01D0042070470A78012A0CBF0123FD
:101080000023037004D1437813B9427018467047A7
:101090000020704700220270704700BF08B5037837
:1010A00003B908BD054804F099FDA528F9D9AA217E
:1010B0000348BDE8084006F083BD00BFFC73FF1F76
:1010C0003440FF1F012A01D0042070470B78A3F1A0
:1010D0000103B3FA83F35B0903700020704700BF7C
:1010E00000224FF6FF710181026042604281704729
:1010F000002A48D02DE9F043561EB6B283B004460C
:1011000001EB46068D1E45F6BF5701E0AE4237D0D3
:1011100035F8022F618963689142218938BF628165
:101120009142134488BF2281226863600132BA422F
:101130002260EBD9B3FBF2F3B4F80AC0B4F808E0CC
:101140008DF805304FEA1C29C3F307234FEA1E2808
:1011500006220D488DF8043069468DF801C08DF8DF
:1011600000908DF803E08DF8028008F015FC002354
:101170004FF6FF72AE422360636063812281C7D164
:1011800003B0BDE8F0837047203FFF1F034600F126
:101190001401002243F8042B8B42FBD130B400F63B
:1011A0005435002423F8024BAB424FF00002F9D132
:1011B00042F20F7300F5B554A0F85C3BA0F8542B35
:1011C000A0F8562BA0F8582BA0F85A2BC0F8602B8B
:1011D000A0F8642BA0F8662BA0F8682BA0F86A2B67
:1011E000A0F86C2BA0F86E2BA0F8702BA0F8722B37
:1011F00080F8742B80F8752B80F8762B80F8772B8D
:1012000080F8782B80F8792B80F87A2B1C3400F644
:101210007C3323F8022B9C42FBD130BC704700BFCB
:10122000002342F20F72A0F85C2BA0F8583BC0F8E4
:10123000603B80F8753B80F8763B80F8783BA0F8FF
:101240005A3B70472DE9F047BDF82050BDF924C046
:10125000BDF92880002A6CD0013A05F1040ED2B203
:10126000AE1C0EEB42020135334F1FFA8CFC1FFA05
:1012700082FEB6B2ADB2C8F1000924E04FEAE20A3C
:1012800002F0070213F80A40BA5C24EA020203F8EB
:101290000A20EA1005F0070A9C5C17F80AA04AEA3F
:1012A00004049C544A1D92B2B2F5B46F06F10206D2
:1012B00028BFA1F29B51B6B22CBF89B211460235AC
:1012C000B645ADB235D000EB4104B21EA48ACCEBDA
:1012D000040424B24C4592B2D0DB002C1FDB444501
:1012E00013DA4FEAE20A02F0070213F80A40BA5C86
:1012F000224303F80A20EA1005F0070A9C5C17F85D
:101300000AA024EA0A049C54CCE7D41002F0070295
:1013100013F804A0BA5C42EA0A021A55B9E74FEA88
:10132000E20A02F0070213F80A40BA5C24EA020259
:10133000DFE7BDE8F08700BFF8EE00002DE9F04FD1
:101340000546A348B5F8543B55F8233089B023F03F
:101350007F435840049108F041FDC31EDBB2122BBD
:1013600040F20781B5F8569BDFF878E2994F09F211
:101370002D5189B2B1F5B46F0646974826BFA9F141
:10138000730292B20A4600F1180A4FF47A5C002404
:1013900005EB4203B3F914309F42B8BF1F469C458A
:1013A000A8BF9C46022E94BF90F900B09EF900B0F1
:1013B000BBF1010F00F0E080BBF1030F00F0DE8015
:1013C000BBF1FF3F01D003EB43031C44531D9BB211
:1013D000B3F5B46F28BFA2F29B5200F101002CBFFD
:1013E00092B21A4682450EF1010ED1D1D5F8603B7A
:1013F0009C4240F3BE800CEB070A4FEA6A0ACAEB34
:10140000070844F6314303FB08F848F3CF33B1F53E
:10141000B46F059328BFA9F17301059B02934FF0A8
:1014200004020FFA8AFA0DF1180928BF89B2009256
:10143000CDF804A04B4618222846FFF703FF022EE2
:101440004FF0000843D94746DFF89CB1634E0720B0
:101450004FF00F0E03E01BF801EF16F8010F19F81B
:1014600008100EEA0101484008F0B2FC08F101083A
:101470003844B8F1070FC7B2EDD1032F79D8049BD8
:10148000002B00F09280059AA5F8722B0023A5F896
:10149000702BA5F86E2BA5F86C2BA5F86AABA5F8F8
:1014A00068ABA5F866ABA5F864AB85F8743BB5F8F6
:1014B000563BC5F8604B03F21A4292B22021B2F5B6
:1014C000B46FA5F8583B85F8751B44D341E0DFF8AD
:1014D00018B1434E47460D204FF00F0E03E01BF8A6
:1014E00001EF16F8010F19F808100EEA0101484043
:1014F00008F06EFC08F101083844B8F1070FC7B2D4
:10150000EDD1032F35D8049B002B3BD0059AA5F8CD
:10151000722B0023A5F8702BA5F86E2BA5F86C2B69
:10152000A5F86AABA5F868ABA5F866ABA5F864ABFF
:1015300085F8743BB5F8563BC5F8604B03F21A4288
:1015400092B24021B2F5B46FA5F8583B85F8751BEF
:1015500001D3A3F5C372A5F85A2B03F20D1292B270
:10156000B2F5B46F2ABFA3F29343A5F85C2BA5F89C
:101570005C3B09B0BDE8F08FE41A27E703EB4303B7
:10158000E41A23E795F8743BBDF8141005EB430209
:101590000133DBB2032B88BF9DF81030A2F86C1B1F
:1015A000A2F864AB85F8743BC4E795F8743BBDF8CA
:1015B000141005EB43020133DBB2032B88BF9DF807
:1015C0001030A2F86C1BA2F864AB85F8743B6EE790
:1015D0006E28760080C1FFFF00EF000068ED00007C
:1015E00070ED000078ED000060ED000080F8771BE2
:1015F000704700BFB0F85A3B3C33F0B40A469BB288
:101600004FF40774002600EB43015D1CADB2B1F846
:101610007C7B013CB5F5B46FA3F29F53A4B23E446A
:101620002CBF9BB22B46002CEDD1084B0848A3FBE6
:1016300006135B0AC3F3072182F8233082F82210D5
:1016400024230121F0BC07F0F3BF00BF49D6B9F253
:10165000203FFF1FF0B5B0F8565B00EB45030029B3
:101660009982A3F87C2BB0F8542B50F822304FEA23
:101670004303B8BF43F0010340F8223090F8783BB1
:101680008FB00446002B00F0A380B0F8581B01F285
:101690009F539BB2B3F5B46F01F1010292B224BF24
:1016A00001F1FF339BB2B2F5B46F24BFA1F29F5298
:1016B00092B2934222D3AB4224D9AA4222D2B4F8A6
:1016C0005C3BAB4228D094F8780B003018BF012067
:1016D0000135ADB2B5F5B46F24BF0023A4F8563B75
:1016E000B4F8543B38BFA4F8565B01339BB2042BCB
:1016F00088BF0023A4F8543B0FB0F0BDAB42DED846
:10170000AA42DCD300212046FFF718FEB4F8565B4E
:10171000B4F85C3BAB42D6D1B4F96E3BB4F96C7B08
:10172000B4F9662BB4F9701BB4F9646BB4F9680BA7
:101730001F441644B4F9723BB4F96A2B0F4405F206
:10174000123189B20644B1F5B46F16441F4428BF64
:10175000A5F28E2194F8753B8DF814304FF00802F5
:1017600046F38F0647F38F0728BF89B205AB009277
:101770000297019684222046FFF764FD94F8753B9A
:10178000402B55D0202B00F0E88094F8782BB2B392
:1017900094F8763B0133DBB20C2B84F8763B1DD8F2
:1017A000012A35D194F8793B042B3AD80133DBB2C6
:1017B00084F8793B8DF8143005AA2223012178485A
:1017C00007F036FF94F8780B003018BF012017E0BF
:1017D0000121FFF7B3FDB4F8565B70E701217048B3
:1017E00007F05AFF002342F20F72A4F8583B84F826
:1017F000763B84F8783BA4F85A3BA4F85C2B002095
:101800000023B4F8565BC4F8603B84F8753B5FE78F
:10181000022A04D194F87A3B002B40F0B3800120D7
:10182000EEE7202200238DF8142084F8793BC3E7EB
:1018300004A801F08BF80DF113030DF1120204A8B6
:101840000DF1150101F09EF894F8772B9DF81230F8
:101850009A42B7D19DF814209DF8133000211A4305
:101860008DF8142084F8761B84F8791B0A2B6ED827
:10187000DFE803F06353346D6D6D2006066D0600DE
:1018800094F8780B02289FD1B4F9582B4549444865
:101890000097334608F00CF9204605A9FFF7AAFE89
:1018A00094F8780B9DF8133084F87A3B003018BF19
:1018B0000120A5E7B4F9582B3B4939480097334636
:1018C00008F0F6F8204605A9FFF794FE022200234F
:1018D00084F8782B84F87A3B012091E794F8780B10
:1018E00001287FF471AF3149B4F9582B0097334682
:1018F0002B4808F0DDF8204605A9FFF77BFE002005
:1019000042F20F73A4F8580B84F8760B84F8780B26
:10191000A4F85A0BA4F85C3B72E72549B4F9582B9C
:10192000009733461E4808F0C3F805A92046FFF784
:1019300061FE012084F8780B62E794F8783B012B74
:10194000F7D1B4F9582B1B4900973346EAE7B4F9AD
:10195000582B194900973346CAE7B4F9582B174951
:101960000F480097334608F0A3F8204605A9FFF773
:1019700041FE0023012084F8780B84F8763B84F83C
:10198000793B3DE743F04003204605A98DF814302C
:10199000FFF730FE94F8780B003018BF01202FE7D6
:1019A000203FFF1FC4ED000090ED000064EE00003A
:1019B000F8ED00002CEE00009CEE0000C8EE0000E8
:1019C000B3B1F8B55E1EF6B2074601EB46068C1EB3
:1019D000951E34F9021F35F8022F3846FFF73AFEFC
:1019E000B442F6D10146BDE8F840034804F0FAB825
:1019F0001946014804F0F6B8FC73FF1F38B54FF4E0
:101A0000B971044604F11C0508F044F90023236170
:101A100019466361A36104F13C022B4623F8021BC3
:101A20009342FBD104F2EC40002203F8012B9842D0
:101A30004FF00001F9D1F023A4F8EC14A4F8EE144F
:101A4000C4F8F034202228460CF03EFD052109227E
:101A5000034B2174A56162826361204638BD00BFDB
:101A6000E008FF1F222A01D00420704770B5054608
:101A70000C4608F023F9202801D8052070BD04F198
:101A8000210614F8011F284608F060F9B442F8D185
:101A9000002070BDF0B58FB002AC04AA4FF4E37E15
:101AA00040F252574FF6AE264FF63A6501F0C003AA
:101AB000802B1CD0C02B18D0ABB1268002348900FB
:101AC0009442C9B2F2D102A92246103004230BF08D
:101AD00001F900230093224614230221054804F053
:101AE00011F80FB0F0BD2580E8E72780E6E7A4F8FD
:101AF00000E0E3E7FC73FF1F70B5B0F8EC54044658
:101B00000DB32D4804F06AF81428054652D9B4F8EC
:101B1000EE3401E0142D2FD95A1C2344A4F8EE24EE
:101B200093F83C102046FFF7B5FFB4F8EE34B4F854
:101B3000EC24143D9A42ADB2ECD80023A4F8EE3464
:101B4000A4F8EC3470BD08F0DFF870B31B4B1B78C1
:101B50009BB9D4F8F01441B15F20E21801339BB275
:101B6000994282F83C00F8D88DB20023A4F8EC54D6
:101B7000A4F8EE34002DC4D170BD04F13B0604F18D
:101B80005C05204608F00EF906F8010FAE42F8D1C8
:101B90000B496322002301E011F8012F05F8012F02
:101BA0000133272BF8D14825DFE7B4F8EC54002D9A
:101BB000E2D0A6E770BD00BFFC73FF1FF473FF1FE8
:101BC00018EF000008B508F079F8044BA3FB0023D8
:101BD000C01A03EB5000C0F3471008BDD5411DD417
:101BE0000C234FF4167203FB0121B1F5966F8ABFE7
:101BF0004FF49663C0F8F014C0F8F034704700BF9B
:101C0000034600F11401002243F8042B8B42FBD160
:101C100030B400F23C55002423F8024B9D424FF0B3
:101C20000002F9D142F20F73A0F83C25A0F83E253E
:101C3000C0F84425A0F84825A0F84A2580F84C258E
:101C4000A0F8403530BC7047002342F20F72A0F874
:101C50004025A0F83E35A0F83C35C0F84435A0F842
:101C60004A35A0F8483570472DE9F047BDF82050B7
:101C7000BDF924C0BDF92880002A6CD0013A05F1D5
:101C8000040ED2B2AE1C0EEB42020135334F1FFAE6
:101C90008CFC1FFA82FEB6B2ADB2C8F1000924E096
:101CA0004FEAE20A02F0070213F80A40BA5C24EA9B
:101CB000020203F80A20EA1005F0070A9C5C17F8F4
:101CC0000AA04AEA04049C544A1D92B2B2F5257F48
:101CD00006F1020628BFA1F28F21B6B22CBF89B24D
:101CE00011460235B645ADB235D000EB4104B21E07
:101CF000A48ACCEB040424B24C4592B2D0DB002C75
:101D00001FDB444513DA4FEAE20A02F0070213F838
:101D10000A40BA5C224303F80A20EA1005F0070AD9
:101D20009C5C17F80AA024EA0A049C54CCE7D4105F
:101D300002F0070213F804A0BA5C42EA0A021A553C
:101D4000B9E74FEAE20A02F0070213F80A40BA5C68
:101D500024EA0202DFE7BDE8F08700BF7CEF000065
:101D60002DE9F04FB0F83C2550F8223000294FEA19
:101D70004303B8BF43F0010340F82230B0F83E25DA
:101D8000044604EB42028348918223F07F4391B0E2
:101D9000584008F023F80228B4F83EC57ED80CF26B
:101DA000212189B2B1F5257F7B487C4F26BFACF15C
:101DB00073031FFA83F8884600F1170E6FF00203D1
:101DC0004FF47A56002504EB4802B2F914209742EA
:101DD000B8BF17469642A8BF1646012B19D0032B51
:101DE00013D0013301D002EB4202154408F1050380
:101DF0009BB2B3F5257F24BFA8F28F239BB2864503
:101E000009D0984610F9013FDDE702EB4202AD1A16
:101E1000ECE7AD1AEAE7D4F844359D423EDD3E4496
:101E20007610BF1B44F6314909FB07F747F3CF3360
:101E3000B1F5257F059328BFACF17301059B029393
:101E40004FF0040236B20DF11C0A28BF89B200928D
:101E500020460196534618224FF00008FFF704FF72
:101E6000DFF848B14E4FC1460D200F2103E01BF8AB
:101E7000011F17F8010F1AF808200A40504007F018
:101E8000A7FF08F101084844B8F1070F5FFA80F98D
:101E9000EDD1B9F1030F52D9B4F83EC5B4F84035CD
:101EA0009C4518D00CF1010C1FFA8CFCBCF5257F69
:101EB00024BF0023A4F83E35B4F83C3538BFA4F85D
:101EC0003EC501339BB2042B88BF0023A4F83C35E8
:101ED00011B0BDE8F08F0CF1060189B2B1F5257F94
:101EE00028BFACF28E21B4F94A35B4F94805019007
:101EF0004FF0080228BF89B20293009207AB8422F8
:101F00002046FFF7B1FE06A800F020FD0DF11B03EF
:101F10000DF11A0206A80DF11D0100F033FD94F831
:101F20004C259DF81A309A4225D042F20F720023B8
:101F3000B4F83EC5A4F84025C4F84435B2E7059F7F
:101F4000184919483B46324607F05EFDB4F83EC5D5
:101F5000C4F844550CF20D139BB2B3F5257FA4F8D9
:101F60004865A4F84A7503D36FF4C37363449BB206
:101F7000A4F8403594E79DF81B30032BD5D1C32539
:101F800007AA2223002108488DF81C5007F050FBB7
:101F9000CBE700BF6E28760084EF000080C1FFFF12
:101FA00048EF000050EF0000203FFF1F40EF00000F
:101FB00072B170B5551EEDB2064601EB45058C1E9B
:101FC00034F9021F3046FFF7CBFEAC42F8D170BDAA
:101FD000704700BF80F84C15704700BF10B5002156
:101FE000044600F063F804F65460012100F05EF846
:101FF000204610BD2DE9F0479DF820407CB30746F0
:10200000601E80B201EB40095E1E8C1E951E07F615
:10201000546814E0082B384601D100F095F834F9E3
:10202000021F35F8022F384600F0C0FA2A88B4F9AA
:1020300000108246404600F0B9FA4C4505D016F82B
:10204000013F042BE6D14046E7E7BAF1000F0CBF91
:10205000014601210348BDE8F04703F0C3BD214616
:10206000F8E700BFFC73FF1F38B504460D4600F0CB
:102070006BFA294604F65460BDE8384000F064BAB3
:1020800038B504460D4600F063FA294604F654605C
:10209000BDE8384000F05CBA10B5044600F060F8C6
:1020A00004F65460BDE8104000F05AB8034630B45E
:1020B00003F8041B00F11804002243F8042BA34288
:1020C000FBD100F5E465002423F8024BAB424FF04E
:1020D0000002F9D142F20F73A0F82837A0F82027A8
:1020E000A0F82227A0F82427A0F82627A0F82A275E
:1020F000C0F82C27A0F83027A0F83227A0F8342702
:10210000A0F83627A0F83827A0F83A27A0F83C27EF
:10211000A0F83E2780F8402780F8412780F8422722
:1021200080F84327A0F8442780F8462780F84727FF
:1021300080F8482700F24A7300F6526123F8022B18
:102140009942FBD130BC70470023A0F82237A0F899
:102150002A37A0F82037C0F82C3780F8413770476D
:10216000002342F20F72A0F82827A0F82437A0F825
:102170002237A0F82A37A0F82037C0F82C3780F88B
:10218000413780F8423780F84637A0F82637704745
:102190002DE9F04F87B08146BDF94840BDF84000B9
:1021A000BDF944700494002A00F08A80013A264662
:1021B000D2B2041D04EB4202851C01301FFA82FBDF
:1021C00082B27042019048461FFA87FAD946ADB2F2
:1021D000834618E03C483C4E10F8084013F80E00C7
:1021E00016F80CC020EA040003F80E00D85D4CEA93
:1021F000000C03F807C00235ADB205310232A94523
:1022000089B292B25CD001F10C00019E3BF8104003
:10221000CAEB040424B2A81E80B2B4424FEAE2071B
:1022200002F0070C4FEAE00E00F00708D2DB002CAA
:1022300034DB00F007064FEAE00802963046049EC1
:102240004FEAE20C02F00707B442C6460397CDF806
:1022500014C010DA06461C48845D13F808001A4EB4
:10226000204303F80800F75D13F80C0020EA070785
:1022700003F80C70BFE7144C245C13F808002043EB
:1022800003F808003E46D0100F4F185C17F806C040
:102290004CEA000CD01003F800C0ACE7C7100A4E9F
:1022A000DC5D00F00700305C24EA0000D855D01057
:1022B00002F007071C5CF75D24EA07041C549AE748
:1022C00007B0BDE8F08F00BF54F100002DE9F04FDA
:1022D00005469648B5F8203705EB830389B05B685F
:1022E00023F07F4358400F4607F078FDC31EDBB252
:1022F000122B3AD9B5F822878D49DFF844C2A8F1EC
:10230000730906461FFA89F908F1050889481FFA7A
:1023100088F84B464FF47A5E002403F10C0235F93D
:1023200012209445B8BF94469645A8BF9646022E03
:1023300094BF91F900A090F900A0BAF1010F17D055
:10234000BAF1030F16D0BAF1FF3F01D002EB4202FF
:10235000144405339BB2434501F1010100F1010032
:10236000DBD1D5F82C379C4208DC09B0BDE8F08FF2
:10237000A41AEEE702EB4202A41AEAE70EEB0C0302
:102380005B10C3EB0C0C44F6314B0BFB0CFC4CF319
:10239000CF321BB2104605920DF1180A04220493A5
:1023A0000193029000924946534618222846FFF7AF
:1023B000EFFE022E4FF0000B45D8DFF888915E4EFD
:1023C000D8460D204FF00F0E03E019F801EF16F874
:1023D000010F1AF80B100EEA0101484007F0F8FC53
:1023E0000BF1010B4044BBF1070F5FFA80F8ECD111
:1023F000B8F1030FB9D8002F6BD195F84037BDF86D
:10240000141005EB43020133DBB2A2F83817032B9B
:10241000BDF81010A2F8301794BF85F8403785F842
:102420004077B5F82237C5F82C47A3F5C37003F2FF
:102430000D114022A5F82437A5F82607A5F828177E
:1024400085F8412791E7D846DFF8F8903B4E072002
:102450004FF00F0E03E019F801EF16F8010F1AF80C
:102460000B100EEA0101484007F0B2FC0BF1010B22
:102470004044BBF1070F5FFA80F8ECD1B8F1030FCD
:102480003FF673AFDFBB95F84037BDF8141005EB8E
:1024900043020133DBB2A2F83817032BBDF810104A
:1024A000A2F8301794BF85F8403785F84077B5F823
:1024B0002237C5F82C47A3F5C37003F20D11202273
:1024C000A5F82437A5F82607A5F8281785F8412789
:1024D0004BE7059AA5F83E270023A5F83C27A5F869
:1024E0003A27A5F83827049AA5F83627A5F83427FF
:1024F000A5F83227A5F8302785F8403791E7059AE7
:10250000A5F83E270023A5F83C27A5F83A27A5F80B
:102510003827049AA5F83627A5F83427A5F83227D6
:10252000A5F8302785F84037C1E700BF6E28760050
:102530005CF10000B4EF0000ACEF0000A4EF00007D
:1025400080C1FFFF9CEF000080F84317704700BF79
:10255000A0F84417704700BF0A46B0F8261701F1EB
:102560003C0301F5167130B49BB28CB205460021D4
:1025700005EB43000133B0F84A079BB2A342014484
:10258000F6D1084B0848A3FB01135B0AC3F30721EC
:1025900082F8233082F822102978242330BC07F0F7
:1025A00047B800BF49D6B9F2203FFF1FF0B5B0F8D9
:1025B0002A37B0F8444701339BB29C428FB0A0F851
:1025C0002A3738D8B0F82237B0F82857AB4232D87B
:1025D000B3F5617F2FD200EB430400292183A4F8D7
:1025E0004A27B0F8202700EB820254684FEA4404DF
:1025F000B8BF44F00104546090F8462704460ABB73
:10260000A3F5C8725A2A2FD9AB4235D094F84607A1
:10261000003018BF0120B4F82027013292B20133F4
:10262000042AA4F822378ABF0023A4F82027A4F89C
:1026300020370FB0F0BD90F84607003018BF0120DA
:102640000FB0F0BDB0F82427511E89B28B42DBD306
:10265000013292B29342D7D80021FFF737FEB4F887
:102660002237B4F82857CFE70121FFF72FFEB4F83F
:102670002237B4F82857C7E7B4F930E7B4F932572E
:10268000B4F93A27B4F93477B4F93867B4F93C07A8
:10269000B4F93617754416443D44B4F93E2794F80E
:1026A00041E70EAF064407F824ED0D441644A3F2AB
:1026B0008E21082245F38F0546F38F063B46009294
:1026C00089B20195029684222046FFF761FD94F8B5
:1026D0004137402B4DD0202B31D094F8462762B3A0
:1026E00094F842370133DBB20C2B84F8423719D807
:1026F000012A5DD194F84737042B52D920220023B8
:102700008DF8142084F847377C4821783A462223F4
:1027100006F08EFF94F84607003018BF0120B4F889
:10272000223778E72178754806F0B6FF002242F29A
:102730000F7384F84627A4F828370020EFE72278A3
:10274000B4F924376E496D480196002A0CBF012266
:102750000222009507F018FA20463946FFF7FCFEE2
:102760000023012084F8460784F8423784F847376D
:10277000D5E704A800F0EAF80DF113030DF11202F9
:1027800004A80DF1150100F0FDF894F843279DF819
:1027900012309A4215D094F84607003018BF012035
:1027A000BDE70133DBB284F847378DF81430ABE76F
:1027B000022A04D194F84837002B40F0968001207B
:1027C000ADE79DF814209DF8133000211A438DF8D1
:1027D000142084F8421784F847170A2B7AD8DFE8C8
:1027E00003F06A553879797920060679060094F85D
:1027F00046070228D1D12278B4F9243741493F480D
:102800000196002A0CBF01220222009507F0BCF9B4
:1028100039462046FFF7A0FE9DF8133084F848376C
:10282000B9E72278B4F92437374934480196002AA9
:102830000CBF01220222009507F0A6F92046394676
:10284000FFF78AFE0220002384F8460784F8483701
:10285000A3E794F8460701289FD122782B49B4F9C1
:1028600024370196002A00950CBF0122022223483A
:1028700007F08AF920463946FFF76EFE002042F243
:102880000F7384F84607A4F8283786E72278204992
:10289000B4F924370196002A00950CBF01220222C8
:1028A000164807F071F939462046FFF755FE01201A
:1028B00084F8460771E794F84637012BF7D1227860
:1028C000B4F9243713490196002A00950CBF012260
:1028D0000222E5E72278B4F924370F490196002A4D
:1028E00000950CBF01220222C1E743F040033946A4
:1028F00020468DF81430FFF72FFE4CE7203FFF1FD6
:102900001CF1000004F00000CCEF0000B0F000006B
:102910003CF0000074F00000ECF0000020F4FF63D5
:1029200023F007038BB14FF4802340F67541034237
:1029300008BF5B08FBD0DA0A01FB02F2504020F42A
:10294000FF6222F00702002AF1D17047704700BFF2
:102950004B78887810B50C78DB0003EBC42303EBCD
:102960005014B4F5006F204606DA054B53F82000EA
:102970006040C0F3C72010BDFFF7D0FFF5E700BFF0
:1029800074F30000F0B517464E7BCA7C0C7D91F8BD
:102990000CE0B500910025F03F0501F03C0183B04B
:1029A0002943A200B60946EA8E0641EA941422F0B1
:1029B0000F0201A91D468DF804608DF805408DF8C1
:1029C0000620FFF7C5FF030900F00F003B702870D9
:1029D00003B0F0BD02F00F0242EA0111C9B2144A7D
:1029E000F0B532F811701D7D5E7B1C7B93F813E00F
:1029F000F8B205F0030545EA801506F00F068008D9
:102A0000BF0A46EA811600F0300224F03F0407F0C6
:102A10003C072EF00F0E00F00F0044EA9101164320
:102A20004EEA00003D4319735E73D8741D75F0BD06
:102A300074F10000F8B54FF4B971044607F02AF9B3
:102A40004FF4B97104F1100007F024F904F12C05DA
:102A50000023236218466362A36204F14C012B46F3
:102A600023F8020B8B424FF00002F9D184F84C207E
:102A700004F14D0304F16E00002103F8011B98429C
:102A80004FF00002F9D104F16F0684F86E2033464E
:102A900004F17B0703F8012BBB42FBD13B4604F159
:102AA0008701002203F8012B8B42FBD104F1AF0117
:102AB000002203F8012B8B42FBD104F1D700002246
:102AC00003F8012B98424FF00001F9D1A4F8D81077
:102AD000A4F8DA10C4F8DC10C4F8E010C4F8E4106C
:102AE00084F8E81084F8E910202228460BF0ECFC6A
:102AF0000B4BDFF830E0A56207CBC4F87B00052064
:102B000084F820000C3B09206084C4F824E079603C
:102B1000BA6007CBC4F86F007160B2602046F8BDA0
:102B2000B81301003C09FF1F222A01D0042070477E
:102B300070B505460C4607F0C1F8202801D80520DD
:102B400070BD95F8E8308BB904F1210614F8011F27
:102B5000284607F0FBF8B442F8D1084B187818B9AA
:102B6000012385F84C3070BD002070BD284607F069
:102B70009FF8002385F8E830E6E700BFF473FF1FF5
:102B8000222A01D004207047F8B500F1100605464E
:102B900030460C4607F092F8202801D80520F8BDF1
:102BA00095F8E93093B904F1210714F8011F304674
:102BB00007F0CCF8BC42F8D1084B1B7823B90122AE
:102BC000184685F84C20F8BD0020F8BD304607F0C7
:102BD0006FF8002385F8E930E5E700BFF473FF1FC5
:102BE000092A01D004207047F0B50024C0F87B40CA
:102BF0002246C0F87F40C0F88340DFF858E0144F09
:102C0000402401264FF0800C12E095F87B301C43E5
:102C1000531C1A46442ADBB285F87B4003F00703B5
:102C200014D01EF8016F17F803C006F00703FC5C10
:102C3000D31000EBD605CB5C1CEA030FE5D100EB0B
:102C4000D60595F87B3023EA0404E1E70020F0BDC7
:102C5000E813010074130100012A01D00420704719
:102C60000978012908D00229F8D1002380F8E92049
:102C7000C0F8E43018467047002380F8E810C0F828
:102C8000E0301846704700BF002380F84C10C0F8B1
:102C9000DC30C0F8E030C0F8E43080F8E83080F88C
:102CA000E9307047002914BF0523002380F84C3019
:102CB000704700BFF0B595B0164603AC05AA4FF4B7
:102CC000E37C40F2525E4FF6AE274FF63A6501F0D4
:102CD000C003802B24D0C02B1FD0E3B12780023447
:102CE00089009442C9B2F2D1002503A90AAA203072
:102CF000042305956560A560E56025618DF81E607B
:102D000009F0E8FF0AAA009414230221064802F001
:102D1000F9FE15B0F0BD2580E1E7A4F800E0DEE79C
:102D2000A4F800C0DBE700BFFC73FF1F08B506F086
:102D3000C5FF044BA3FB0023C01A03EB5000C0F3F4
:102D4000471008BDD5411DD408B5103006F0B6FFB8
:102D5000044BA3FB0023C01A03EB5000C0F3471041
:102D600008BD00BFD5411DD42DE9F84300EB011784
:102D7000064638460C4606F0C7FF202803D9D6F889
:102D8000DC30132B1BD83119002481F8E84006F100
:102D90004C0306F1AE0106F1860206F16D0513F84B
:102DA000010F01F8010FAB4202F8014FF7D12122C8
:102DB0000023A6F8D820A6F8DA30BDE8F88304F19D
:102DC000380356F82330052BDDD906F1AE0406F1A1
:102DD000860506F1CF094FF00008384606F0E2FFFD
:102DE00004F8010F4C4505F8018FF6D1DFE700BF6D
:102DF000214B1B78622B30B427D05F2B20D100F100
:102E0000AE0300F1860200F1B5055524002103F858
:102E1000014FAB4202F8011FF9D103465F2203F8CC
:102E2000B62F00F1BD0500F18E02FF24002103F84A
:102E3000014FAB4202F8011FF9D10F23A0F8D8309F
:102E40000023A0F8DA3030BC704700F1AE0300F187
:102E5000860200F1CF055F24002103F8014F9D4257
:102E600002F8011FF9D12123A0F8D8300023A0F8DF
:102E7000DA3030BC704700BF8042FF1FF8B504460F
:102E8000D0F8E06094F86E30D0F8E4000D46D4F845
:102E9000DC10771C013001310B2B1646C4F8E070B2
:102EA000C4F8E400C4F8DC1018D9002384F86E30AC
:102EB000204606F029FF002800F09180234604F107
:102EC0006F0253F87B0F59689B68C4F86F0051601C
:102ED000936094F86E30D4F8DC1003E004F16F02D4
:102EE000002BE5D01A44012E1788927884F8B1207F
:102EF0004FF0000014BF042208221329A4F8AF7079
:102F000084F8892084F8870084F8880042D8A5F1E5
:102F10000106B6FA86F67609002B4AD1012D94F8FF
:102F2000AF2073D0314630464FF0010E1F460026C9
:102F3000002F94F8B05042EA06020CBF002680260B
:102F4000BEF1000F84F8AF2045EA06050CBF002251
:102F5000082294F8B1608E4514BF2021002115434A
:102F60003143874214BF02220022864514BF02204B
:102F700000202A43033340EA010584F8B0200320EF
:102F8000002184F86E3084F8B150A4F8D800A4F879
:102F9000DA10F8BD04EB061006F0B6FEA5F1010646
:102FA00094F86E300030B6FA86F618BF0120760924
:102FB0008BB1B3F1090E18BF4FF0010E012794F841
:102FC000AF2087EA060142EAC012C9B27040002E63
:102FD000ADD00826ACE71F464FF0010EEFE704F135
:102FE000100006F091FE00287FF468AF0D4B07CB70
:102FF00004F16F03C4F87310C4F87720C4F86F00AD
:103000001A46D4F8DC1094F86E306BE742F00802F0
:1030100084F8AF20AE463146304694F8B0501F4693
:10302000082296E7B813010038B590F84C3033B356
:10303000B0F8D82004461AB3284802F0CFFD14286F
:1030400005464AD9B4F8DA3001E0142D17D9E21850
:10305000013392F8AF1092F88720A4F8DA302046B6
:10306000FFF728FEB4F8DA30B4F8D820143D9A42BD
:10307000ADB2EAD80023A4F8DA30A4F8D83038BDCD
:10308000013B042B21D8DFE803F01920120A0300CA
:10309000FFF7AEFEB4F8D830002BCDD138BD0022FA
:1030A0000121FFF7EBFE032384F84C30F2E7012106
:1030B000FFF75AFE022384F84C30EBE70021FFF7BC
:1030C00053FE042384F84C30E4E701220021FFF78B
:1030D000D5FE012384F84C30DCE738BDFC73FF1FBC
:1030E0002DE9F041104E00F14D0782B088463D4673
:1030F00006F1200E34460FCC744528606960AA6042
:10310000EB60264605F11005F4D123782B7001A859
:10311000FFF71CFC3B4601A841460922FFF75AFC79
:1031200002B0BDE8F08100BFC4130100103006F00A
:10313000BFBD00BFD0F8DC00704700BF002110B455
:10314000016001714171816000F10C0300F17004B4
:1031500003F8011BA3424FF00002F9D10267426756
:103160008267C267C0F88020C0F88420C0F8882039
:1031700000F18C0100F59A7341F8042B8B42FBD1CE
:1031800000F5EE71002243F8042B8B42FBD100F5D1
:103190002171002243F8042B8B42FBD100F54B71C7
:1031A000002243F8042B8B42FBD100F2563400215D
:1031B00003F8011BA3424FF00002F9D1C0F85823D5
:1031C000A0F85C235DF8044B704700BF0023036048
:1031D00003714371836003674367C0F85833A0F8F5
:1031E0005C337047B0F85C3310B504464BB9292204
:1031F0000E4806F075F90023C4F85833A4F85C3380
:1032000010BDD4F85823B2FBF3F3C3F3072281F8BF
:103210002A3081F8292005482B2206F061F9002385
:10322000C4F85833A4F85C3310BD00BF203FFF1F23
:10323000B0F85C3310B504464BB90C220D4806F0CB
:1032400081F90023C4F85833A4F85C3310BDD4F8D6
:103250005823B2FBF3F3C3F307224B730A730548F9
:103260000E2206F06FF90023C4F85833A4F85C333B
:1032700010BD00BF203FFF1F836870B55B00044690
:1032800009B143F001032648A36023F07F4358406F
:1032900006F0A4FD02282FD9A368224823F07F431B
:1032A000584006F09BFD054600B170BD1E491F4801
:1032B00006F09EFB01211E4802F094FC01211C48EF
:1032C00002F09CFC1B4BC4F8585307CB04F10C06CE
:1032D000E06021616261A4F85C5331462046FFF74B
:1032E000A7FF4FF416520223E5602561656125832F
:1032F00025676267637170BD0F490C4806F078FB63
:103300005322002104F10C000BF0DEF8002301220F
:103310002367C4F85833A4F85C33627170BD00BFF2
:103320005076550068B4AA00B8190100203FFF1F6D
:10333000FC73FF1F241C010094190100F8B5836879
:10334000026F5B0004468360F1B100EBD205484E8A
:1033500043F0010302F00700A360297B305C0143C6
:103360004448297301322267584006F037FD01288E
:1033700067D9236F5C2B10D8656F013D65677DB3FE
:10338000236F602B3DD0F8BD02F007013A4804EBF3
:10339000D205405C297B0140E2E7A368374823F06F
:1033A0007F43584006F01AFD022838D9236F602B5E
:1033B000E2D1324F01256FF07F46A36826FA05F06F
:1033C000034027FA05F0584006F008FD02284AD9C4
:1033D0000135042DF1D1656F013D6567002DCFD119
:1033E0002749284806F004FB2946274802F0FAFB43
:1033F0002946254802F002FC224806F0D5F86571FE
:10340000F8BD04F10C0529460C221E4806F09AF876
:1034100000232B606B60AB60AB812367F8BD602637
:1034200042F27F5055212D22162304F10C056067CE
:1034300061752667A275E37529462046FFF7F8FEF9
:10344000E6E712490F4806F0D3FA00210E4802F0D1
:10345000C9FB00210C4802F0D1FB0A4806F0C6F86F
:1034600000236371F8BD236FEDB25D1B256783E711
:103470008C1901005E13AAAA8419010068B4AA007D
:10348000FC190100203FFF1FFC73FF1FDC19010026
:103490002DE9F041D0F87CC00D68D0F884E00F69C8
:1034A000826F65447744BD4284B04FEAD20302F094
:1034B000070450DA9B0000EB0308404ED8F88C70EC
:1034C000365D00953740C8F88C704E684D6966448B
:1034D0007544AE4250DA00EB030E384DDEF834711D
:1034E0002D5D01963D40CEF83451D0F880E08F68D4
:1034F000D0F888C08E6977446644B74252DA00EB50
:1035000003082E4ED8F8DC51365D02973540C8F8D6
:10351000DC51CD68CE690EEB05010CEB0605A94226
:1035200036DA0344254ED3F88452345D039105EA1C
:103530000401C3F88412009D019C0299039BC56796
:1035400001328267C0F88040C0F88410C0F888302B
:1035500004B0BDE8F0819B0000EB0308184ED8F8DA
:103560008C50365D00973543C8F88C504E684D69D5
:1035700066447544AE42AEDB00EB030E104EDEF83F
:103580003471365D019547EA0605CEF83451ACE753
:1035900003440B49D3F88462095D03953143C3F8B2
:1035A0008412C8E700EB0308054DD8F8DC712D5DE7
:1035B00002962F43C8F8DC71ABE700BF7419010015
:1035C0007C19010070B50B4628CB88B085F001044A
:1035D00083F00102A61869461C442A442B44019634
:1035E0000496029407940392069200930593FFF7C2
:1035F0004FFF08B070BD00BF2DE9F043644D654E2C
:103600002F464FF07F0C402440F24912002317E070
:1036100000EBD30E013A9EF82C430CEA04018EF81D
:103620002C13511C03F1010300F09B80584C5949A5
:1036300002F0070C03F0070E14F80C4011F80EC04E
:10364000D11000EB8101D1F88C100C42E0D000EBDE
:10365000D30402F1FF3E94F82C130CEA010101336C
:1036600084F82C13002A00F08D80494C49494FEA18
:10367000EE0200EB82020EF0070CD2F8DC2115F806
:103680000CC003F007081CEA020F00EBD30C16F87D
:1036900008809CF82C2308EA02028CF82C2303F102
:1036A000010326D00EF1FF38BEF1000F6CD04FEAB7
:1036B000E80200EB820208F00709D2F8842215F82C
:1036C000099019EA020F00EBD30E03F0070C36D075
:1036D0009EF82C2315F80CC008F1FF384CEA0202C2
:1036E000B8F1FF3F03F101038EF82C23DFD1BDE8D1
:1036F000F0830EF1FF3CBEF1000F47D04FEAEC0221
:1037000000EB82020CF0070ED2F8342115F80EE01F
:103710001EEA020F00EBD30E03F007089EF82C23DD
:1037200021D015F8088048EA02028EF82C230133D4
:103730000CF1FF3EBCF1000F99D1BDE8F08300EB26
:10374000D30E03F0070C9EF82C2317F80CC04CEA9C
:1037500002028EF82C23013308F1FF3CB8F1000F70
:10376000CCD1BDE8F08317F8088048EA02028EF851
:103770002C2301330CF1FF32BCF1000F7FF458AF62
:10378000BDE8F083BDE8F083BDE8F083BDE8F083D9
:103790007C1901007419010030B4134D481E01F169
:1037A00026044FF0FF3210F8013F5340DBB2C2F362
:1037B000072235F81330844283EA02031A46F2D115
:1037C000DA4391F82700D3B2984202D0002030BCEF
:1037D000704791F82800C2F30723181AB0FA80F056
:1037E000400930BC704700BF241A01002DE9F043A6
:1037F0004E1E0546144699B0DFF820E23046702789
:10380000002201E01EF8017F10F8013F01327B40E9
:10381000532A06F8013FF5D10DF10B030DF15F00BE
:10382000002203F8012F8342FBD1DFF8F4C1042703
:1038300063464FF0000E80264FEAEE02885CC20716
:103840000ED51CF81E2093F801800DF160094A4442
:1038500026FA08F912F8548C49EA080802F8548C40
:1038600082070DD59A7893F803800DF160094A44D8
:1038700026FA08F912F8548C49EA080802F8548C20
:1038800042070DD51A7993F805800DF160094A4475
:1038900026FA08F912F8548C49EA080802F8548C00
:1038A00002076BD59A7993F807800DF160094A44B5
:1038B00026FA08F912F8548CB7F5257F49EA08086A
:1038C00002F8548C5DD10023EB67C5F88030C5F851
:1038D0008430C5F88830AB6799464FF080080127DF
:1038E000402618AA02EBE90209F0070312F8542C4B
:1038F00028FA03F1114026FA03F30CBF0291029754
:1039000009F10209134001A9284614BF0197019348
:10391000FFF758FEB9F5257FE3D12846FFF76CFE87
:10392000631E04F12801002203F8012F9942FBD104
:10393000DFF8F0E0402140F24912012701E01EF8D3
:103940000C1005EBE200C2F5A47390F82C63013370
:10395000013AD808314203F0070302F0070C07FAD6
:1039600003F302D0215C0B432354531CE7D12146BF
:103970002846FFF711FF19B0BDE8F083B7F5257FA2
:10398000A1D0C2060DD51A7A93F809800DF160090D
:103990004A4426FA08F912F8548C49EA080802F851
:1039A000548C82060DD59A7A93F80B800DF160093C
:1039B0004A4426FA08F912F8548C49EA080802F831
:1039C000548C42060CD402061AD40EF1080EBEF531
:1039D000267F03F1100307F108077FF42DAF72E78C
:1039E0001A7B93F80D800DF160094A4426FA08F914
:1039F00012F8548C49EA080802F8548C0206E4D5FF
:103A00009A7BD87B0DF16008424426FA00F812F840
:103A1000540C48EA000002F8540CD6E718190100CB
:103A2000F01301007C19010030B58268036F520069
:103A30008DB0826091B100EBD30142F0010203F03E
:103A400007041F4D82600A7B2C5D01332243B3F5CE
:103A5000257F0A7303670FD00DB030BD03F0070256
:103A600000EBD301174CA45C0A7B01332240B3F571
:103A7000257F0A730367EFD100F10C05294601AADF
:103A80000446FFF7B3FE10B960710DB030BD0121DF
:103A90000D4802F0A7F801210B4802F0AFF801A988
:103AA0002046FFF79FFB002302214FF41652E360EC
:103AB000236163612383236761716267CCE700BF81
:103AC0008C19010084190100FC73FF1F002B47D0E3
:103AD000F8B55F1EBFB2044602EB4707951E8E1E67
:103AE00002E02060BD4232D0B4F85C2335F8023FDA
:103AF000D4F8580394F804E00132A4F85C2336F8B3
:103B0000021FC90B03448E45C4F85833236808D0FC
:103B1000B3F5004F2ABF6FF4CC7203F299139B18D0
:103B2000236003F54C503330B0F5803F2171D8D37A
:103B30006279A3F54C43CD3B012A236008D00BD317
:103B4000022ACFD12046FFF7F9FBBD42CCD1F8BD08
:103B50002046FFF769FFC5E72046FFF78DFBC1E769
:103B6000704700BF38B54FF4B971044604F11C0525
:103B700006F090F80023236119466361A36104F104
:103B800044022B4623F8021B9342FBD104F5277015
:103B9000002203F8012B98424FF00001F9D13C2399
:103BA000A4F89C12A4F89E12A4F8A0322822284659
:103BB0000AF08AFC05210322034B2174A56162826D
:103BC0006361204638BD00BF9809FF1F292A01D034
:103BD0000420704770B506460D4606F06FF8292898
:103BE00006D802B20A490B4805F008FF052070BD4F
:103BF0000021304606F0AAF86C1E283514F8011F83
:103C0000304606F0A3F8AC42F8D1002070BD00BFEA
:103C1000B4210100203FFF1F0C2A01D0042070476F
:103C200070B505460C4606F049F80C2806D802B2D5
:103C30000A490B4805F0E2FE052070BD0121284627
:103C400006F084F8661E0B3416F8011F284606F0AD
:103C50007DF8A642F8D1002070BD00BFD42101003C
:103C6000203FFF1F10B5044606F028F830B9024681
:103C70000549064805F0C2FE052010BD2046022178
:103C800006F064F8002010BDF4210100203FFF1F62
:103C90002DE9F04F9BB0531E0392029318460DF18D
:103CA00066040DF11303002203F8012F9C4200F873
:103CB000012FF9D100234A1EDFF8C0A10093019221
:103CC0001E461C464FF00109019A12F8018F01921D
:103CD000009A33460020264609FA00F118EA010F3F
:103CE00018BF012402F1010108BF00241AAD05EB41
:103CF000D20E05EBD1071D193344234413F0010FF5
:103D000002F0070C01F0070100F1010005F00105C8
:103D1000334602F1020207D01AF80CB01EF854CC58
:103D20004BEA0C0C0EF854CC35B11AF8015017F8C8
:103D3000541C294307F8541C082801D02646CBE719
:103D4000009B1033B3F5287F0093BDD1494F039BEF
:103D500004253946002601241AAA02EBD60212F8DD
:103D6000542C10060BD517F8160091F801C013F863
:103D700000E004FA0CFC4CEA0E0E03F800E05006DA
:103D80000AD591F802C0C87813F80CE004FA00F0E4
:103D900040EA0E0003F80C0090060AD591F804C022
:103DA000487913F80CE004FA00F040EA0E0003F83A
:103DB0000C00D00620D591F806C0C87913F80CE0A5
:103DC00004FA00F040EA0E00B5F5257F03F80C0078
:103DD00015D1029D284C00231946284601E014F80D
:103DE000013F10F8012F01315340532905F8013FDD
:103DF000F5D11BB0BDE8F08FB5F5257FE9D01007F0
:103E00000BD591F808C091F809E013F80C0004FAFA
:103E10000EFE4EEA000003F80C0050070BD591F897
:103E20000AC091F80BE013F80C0004FA0EFE4EEAFB
:103E3000000003F80C0090070BD591F80CC091F826
:103E40000DE013F80C0004FA0EFE4EEA000003F831
:103E50000C00D20709D591F80EE0C87B13F80E20AC
:103E600004FA00F0024303F80E200836103108353A
:103E700072E700BF301C010058210100142201002C
:103E800070B59AB002AC06AA012340F249354FF64C
:103E9000B74633EA010E0CBF2680258002345B0052
:103EA0009442DBB2F5D102A922461030082308F073
:103EB00011FF00230093224628230121024801F02C
:103EC00021FE1AB070BD00BFFC73FF1F70B5A2B019
:103ED000044605F019FF20B9B4F89C320BB922B0A2
:103EE00070BD204605F058FF38B3012841D1B4F821
:103EF0009C32002B63D0564801F070FE28280546FE
:103F0000EDD9B4F89E3201E0282DE8D95A1C23449B
:103F1000A4F89E2293F844102046FFF7B1FFB4F8AE
:103F20009E32B4F89C22283D9A42ADB2ECD80023D0
:103F3000A4F89E32A4F89C32D1E7B4F89C32002B4E
:103F4000D9D1444A1278002A53D1B4F8A0524DB1C5
:103F5000AA21E21801339BB29D4282F84410F8D1A5
:103F6000A4F89C520023A4F89E32002DC3D122B0A5
:103F700070BD022867D1B4F89C32002BBBD120461B
:103F800005F010FFB4F89C3203F11205ADB2981D94
:103F9000314E80B2552201E016F8012FE1180133AD
:103FA0009BB2834281F84420F6D1AB42EFD100238B
:103FB000A4F89C52A4F89E32002DD8D09BE720464E
:103FC00005F0F0FE0C25B4F89C62731CA4F89C323A
:103FD000204605F0E7FE26446B1E13F0FF0586F829
:103FE0004400F0D1A4F89E52B4F89C52002DBED0EB
:103FF00081E7204605F0D6FE0DF103050BAE204605
:1040000005F0D0FE05F8010FB542F8D10DF13202EE
:1040100001A92046FFF73CFEB4F89C32EA2203F1E6
:104020005505A620ADB20CA98DF830208DF83100D1
:1040300001E011F8012FE01801339BB29D4280F896
:104040004420F6D18CE7B4F89C52002D8FD052E773
:10405000FC73FF1FF473FF1F1C22010001EB4101E1
:10406000490001F5967189B2B1F5167F8ABF4FF408
:104070001673A0F8A012A0F8A032704708B505F09A
:104080001DFE034BA3FB0030C0F3870008BD00BF3B
:104090004FECC44EF8B5064600F0A4FF06F580606C
:1040A00000F0A0FF06F5006000F064FE06F5026077
:1040B000002400F01DFF06F6280001F087F986F8BD
:1040C000344886F8354886F8364886F8374806F684
:1040D000380001F0A9F906F5046001F0A5F906F62B
:1040E000480001F0A1F906F5056001F09DF906F61A
:1040F000580001F099F906F5066001F095F906F609
:10410000680001F091F94FF4B561374F374A384BE9
:10411000C6F8841845F26831364D3748C6F88C78B1
:10412000C6F8901844F66C2747F6E421C6F8AC2888
:10413000C6F8B0384FF435724FF40043C6F8802803
:10414000C6F88828C6F8A438C6F8C838C6F8D038E3
:10415000C6F87848C6F87048C6F87C48C6F874486F
:10416000C6F8A848C6F89C48C6F89448C6F8A048BF
:10417000C6F89848C6F8C048C6F8B848C6F8C44853
:10418000C6F8BC48C6F8B478C6F8CC580127C6F8BB
:10419000D408C6F8D81806F6DC0000F09DFD06F637
:1041A0000C1586F8ED48802186F8EC78A6F8EE78B4
:1041B00006F50F6000F00CFF4FF49651A6F8087951
:1041C000284601F09FF806F61C104FF4166101F026
:1041D00099F84FF416640021284601F0A1F8013C3B
:1041E000F9D13046F8BD00BFF96BFFFF0080FFFF3B
:1041F0005D3BFFFF0000FFFFB505FFFF30B500F698
:104200001C1585B00B4801F0E9FC022801D805B067
:1042100030BD0DF10E01284601F0A8F8002401235D
:104220000DF10E020A210028F1D00094014801F09E
:1042300069FCE7E7FC73FF1F002310B5044680F814
:10424000343800F6380001F00BF904F5046001F091
:1042500007F904F5056001F003F904F6580001F0D0
:10426000FFF804F5066001F0FBF804F6680001F0C1
:10427000F7F804F5006000F035FE04F5806001F009
:1042800029F8204601F026F804F6280001F0C8F8C5
:1042900004F61C10BDE8104001F092B82DE9F04F73
:1042A00083B000F648079DF834409DF840B09DF873
:1042B00038609DF844C09DF848E09DF8305080F883
:1042C00035B8C4EB0414A400A4B2019680F836C833
:1042D000064680F837E8884638462146914600224F
:1042E0009DF83CA09B4601F0A3F8C5EB05118900A1
:1042F00089B206F63800002201F09AF814B1384667
:1043000001F0A8F8019B0C934A465B4641463046B3
:10431000CDF834A003B0BDE8F04F00F085BE00BF7B
:104320002DE9F047BDF824709DF820609DF82850D5
:1043300004468846914600F506603A4600219A46B2
:1043400001F076F82EB13A46314604F6580001F0F5
:104350006FF80995089553464A46414604F5806032
:10436000BDE8F04700F060BE2DE9F04F83B0044691
:104370009DF844509DF848609DF84C0084F8EC5836
:1043800015469DF838209DF83C7084F8ED68A4F837
:10439000EE089DF840A0019204F5046000229B46BF
:1043A00000979DF830609DF834709DF850909DF80E
:1043B000548001F03DF8009904F50560002201F0F9
:1043C00037F80022514604F6680001F031F829461A
:1043D00004F6280001F002F82A46494604F6DC00FB
:1043E00000F084FCA4F808893B463246594604F59F
:1043F000006000F0CDFC10B103B0BDE8F08F019A71
:10440000594604F5026003B0BDE8F04F00F076BDF8
:1044100038B504460D4600F6380001F025F8294667
:1044200004F5046001F020F8294604F6480001F084
:104430001BF8294604F5056001F016F8294604F634
:10444000580001F011F8294604F5066001F00CF857
:10445000294604F66800BDE8384001F005B800BF01
:1044600038B500F648050446284601F005F820B1A5
:10447000284601F007F848B938BD0A480A4905F04E
:10448000B7FA2046BDE8384000F012BF064905489B
:1044900005F0AEFA204600F00BFF2846BDE8384094
:1044A00000F0D8BF203FFF1F2822010038B5044686
:1044B00031B100F50565284600F0E4FFC8B938BD04
:1044C0000D461948194905F093FA04F5056084F87A
:1044D000345800F0C5FF04F5046000F0C1FF04F695
:1044E000580000F0BDFF04F63800BDE8384000F089
:1044F000B7BF0F490C4805F07BFA022384F8343823
:10450000284600F0ADFF94F83538002BD7D094F84A
:104510003738002BD3D02046FFF7A2FF04F638002F
:10452000BDE8384000F096BF203FFF1F4C2201003D
:104530003822010038B5044661B100F5046528460B
:1045400000F09AFF28BB04F63805284600F094FFD7
:1045500090B938BD1B491C4805F04AFA032304F5FD
:10456000066084F8343804F6380500F073FF2846F6
:1045700000F082FF0028ECD0284600F083FF38B11D
:104580002046FFF76DFF2846BDE8384000F062BFC7
:1045900038BD284600F076FF0028D4D00B490A48E1
:1045A00005F026FA042384F8343804F6580000F0A5
:1045B00057FF284600F054FF04F6280000F02AFFB9
:1045C000C1E700BF60220100203FFF1F78220100E9
:1045D00070B5044689B12D482D4905F009FA02232A
:1045E00084F8343804F5066000F03AFF04F6380524
:1045F000284600F041FF78BB70BD00F506652846EF
:1046000000F03AFF0028F1D0284600F03BFF0028D8
:10461000ECD01E481F4905F0EBF904F658060623B6
:1046200084F83438304600F027FF10B3304600F0ED
:1046300029FFF0B9284600F013FF04F5046000F0EC
:104640000FFF04F6380504F6680000F003FF284663
:1046500000F012FF0028CFD0284600F013FF38B139
:104660002046FFF7FDFE2846BDE8704000F0F2BE90
:1046700070BD0949054805F0BBF904F5806000F0FC
:1046800017FE304600F0ECFED4E700BF203FFF1FCE
:1046900038220100982201008C22010038B504461E
:1046A00031B104F63805284600F0E6FE90B938BD71
:1046B0000F49104805F09CF9052304F5066084F8BD
:1046C000343804F6380500F0C5FE284600F0D4FE64
:1046D0000028ECD0284600F0D5FE0028E7D0204680
:1046E000FFF7BEFE2846BDE8384000F0B3BE00BF6D
:1046F000A8220100203FFF1F38B5044691B12A4887
:104700002A4905F075F9042384F8343804F5066065
:1047100000F0A6FE04F63805284600F0ADFE00289D
:1047200035D138BD00F50665284600F0A5FE002805
:10473000F0D0284600F0A6FE0028EBD01C491A480D
:1047400005F056F9062384F8343804F6280000F002
:1047500067FE1849144805F04BF904F5806000F035
:10476000A7FD284600F07CFE04F6580000F078FE15
:1047700004F5046000F074FE04F6380504F66800E1
:1047800000F068FE284600F077FE0028C9D02846D1
:1047900000F078FE38B12046FFF762FE2846BDE8FB
:1047A000384000F057BE38BD203FFF1F782201007F
:1047B000982201008C22010070B50446E9B12A4913
:1047C0002A4805F015F9022384F834382849274887
:1047D00005F00EF904F5806000F07CFD04F504603E
:1047E00000F038FE04F6580000F034FE04F63805F8
:1047F000284600F041FE70B970BD00F668063046EC
:104800000D4600F039FE98B904F63805284600F048
:1048100033FE0028F0D0284600F034FE38B12046A0
:10482000FFF71EFE2846BDE8704000F013BE70BDC5
:10483000304600F027FE0028E6D00E490B4805F070
:10484000D7F884F83458304600F00AFE94F8363829
:104850002BB904F63805284600F002FEC8E72046CA
:10486000FFF7FEFDF5E700BF38220100203FFF1FE4
:10487000C02201004C22010070B500F50564064617
:10488000204600F0DFFD50B31F49204805F0B0F886
:10489000012386F83438204600F0DCFD96F83538E0
:1048A00063BB06F61C154FF496640021284600F001
:1048B00037FD013CF9D106F5046000F0CBFD06F6AA
:1048C000580000F0C7FD06F6380000F0C3FD10499F
:1048D0000E4805F08DF80F4B0A221A7070BD0E4974
:1048E0000A4805F085F896F83538022286F834280B
:1048F000002BD6D03046FFF7B3FDD2E796F8373815
:10490000002BCED1F6E700BFCC220100203FFF1FD5
:10491000E02201008042FF1F3822010090F8343865
:1049200070B50446062B09D8DFE803F0141B2025D8
:10493000042A0F00FFF7B2FE94F8343823B9284D4B
:104940002B780A2B21D070BD70BDFFF735FF94F88E
:104950003438F3E70029F2D0FFF78EFF94F83438AB
:10496000ECE7FFF7A3FD94F83438E7E7FFF7E2FD43
:1049700094F83438E2E7FFF72BFE94F83438DDE79B
:10498000FFF7BAFE94F83438D8E7204600F0ACFCC4
:104990000028D8D104F5806000F0A6FC0646002867
:1049A000D1D11049104805F023F804F638002E70D4
:1049B00000F056FD04F5046000F052FD04F50560BA
:1049C00000F04EFD04F6580000F04AFD04F50660C4
:1049D00000F046FD04F66800BDE8704000F040BD00
:1049E0008042FF1FF4220100203FFF1F2DE9F04FFE
:1049F000044687B00846019194F8EC1816461D4607
:104A0000002900F0568194F8ED38002B40F05481D5
:104A100029462046FFF7FCFC002D00F0FD806B1EB0
:104A20005FFA83F9039304F50263AA4F0293023EEF
:104A300009F1010904F5006A002504F60C1B12E0D7
:104A4000019B18F0020F14BF194600210A2A2046C4
:104A500000F0F080FFF762FF3A780A2A21D0013592
:104A60004D4500F0D98036F9022FB4F90819120229
:104A700092FBF1F212B211465046ADF8162000F04A
:104A8000AFF994F8EC288046002A00F0C88018F0AE
:104A9000010F3A78D4D10A2AE1D1039BAB4200F04E
:104AA0000F8194F83428013A012A40F2CE80002286
:104AB0002046ADF8162000F017FC04F580680028A9
:104AC00000F0D780404600F00FFC60B994F834281D
:104AD0002046002A40F0E58000F04EFBBDF816208D
:104AE0001044ADF81600204600F0FEFB002800F050
:104AF000C980BDF91600D4F878E8D4F88418D4F841
:104B00008028D4F87038C4F8780801FB0EF102FB55
:104B10000011D4F88808D4F87C28C4F870E803FBA6
:104B2000001CD4F88C38D4F87418D4F89C08C4F855
:104B3000742803FB12CCD4F89038D4F89428C4F825
:104B4000940801FB13CCD4F8A83803FB00FED4F87A
:104B5000A438D4F8A0084FEAEC3C0CF30E0C0FFA82
:104B60008CF103FB01EED4F8AC38C4F87C1802FBDE
:104B700003EED4F8B038D4F89828C4F89C1803FB96
:104B800010EED4F8B438D4F8C018C4F8980802FB72
:104B900013E2D4F8CC38D4F8C80803FB01FCD213D4
:104BA00002F30E0212B200FB02CCD4F8D038D4F8D3
:104BB000C408C4F8A028C4F8C028D4F8B828C4F899
:104BC000B81802FB03CCD4F8D438D4F8D82803FBA7
:104BD00010CCD4F8BC38C4F8BC0803FB12C2D21302
:104BE00002F30E0212B2C4F8C4280298ADF81620DF
:104BF00000F0CEF9BDF816103A78084401B20A2A3E
:104C0000ADF816107FF42BAF04F61C10013500F040
:104C100087FB4D457FF427AF07B0BDE8F08FBDF9A6
:104C20001610584600F07CFB0DF11601584600F0B6
:104C30009DFB2CE7FFF772FE3A780A2AECD194F834
:104C40003428013A012A3FF632AFBDF9161004F6B6
:104C5000DC0000F053F8B4F8EE2812FB00F0ADF8D9
:104C60001600204600F040FB04F5806800287FF421
:104C700029AF404600F080FABDF816201044ADF888
:104C800016001FE7404600F02FFB00287FF431AFED
:104C900004F6280000F0A6FBBDF81620104400B270
:104CA00029E700F0B7FABDF816201044ADF8160059
:104CB00019E701230193ABE680F001030193A7E616
:104CC000019B18F0020F14BF194600212046FFF780
:104CD00025FEE6E68042FF1F00224FF480418180DE
:104CE000028042808271826002737047C9014B4228
:104CF000D201018043808280704700BFB0F900304C
:104D000010B47BB182798AB18368B3F5166F03F171
:104D1000010212D9002142F6DF639A42826001D972
:104D20000023837108465DF8044B70478B421ADC00
:104D300000230122827183600373047B0C4BB0F962
:104D4000041053F824300134E4B20B2C03FB01F1BE
:104D500088BF002304734FEAE13188BF037301F376
:104D60000F0109B2D7E7B0F902308B42E0DAD9E798
:104D70000C23010030B4002200240025C0E90045C6
:104D80008260C260028242618261027730BC7047F9
:104D900070B400250024C0E9004543260E4D04E010
:104DA0000134322C10D015F8106CB14205F1100509
:104DB000F6D10A49E4B201EB0414D4E9024554EAFD
:104DC0000501C0E9004502D1042070BC7047826033
:104DD000C36070BC00207047702301006023010095
:104DE0002DE9F04F90E8804042698669826104466F
:104DF00001EB610C02FB0EF3D11707FB0133A2FBA1
:104E000007011944238A257FC00F013340EA41007E
:104E10009BB200F31E0041F27071C6EB400666447F
:104E200005F0FE008B4283B066612382207702D0BA
:104E300003B0BDE8F08F82FB06894FEAD87A4AEAD0
:104E4000490A0AF31E0A4FEAEA790AFB0EFE07FB3B
:104E500009EEAAFB07AB82FB028986FB066705F019
:104E6000020100294FEAD6724FEAD87342EA47029C
:104E7000F34402F31E024FEADA7643EA490303F3EE
:104E80001E0302EB0301A36818BFE36846EA4B0662
:104E900006F31E02A1EB420214BF012700279A422B
:104EA00040F00101B6BF25F0030040F0030040F0E0
:104EB00001002177C0F340018F42207707D0009195
:104EC000064807491BB212B204F0F2FD207F00230E
:104ED00023826361A36103B0BDE8F08F203FFF1F11
:104EE0003C23010000234361836103770382704701
:104EF000002202608280C280704700BF2DE9F0412D
:104F00000023224D432404E00133322B3AD015F81C
:104F10003340A142F8D11D4FDBB217EBC30731D0AC
:104F2000804600687B88A8F80430164618B105F062
:104F3000F9FCB8F80430580005F0F2FCB8F8043079
:104F4000C8F80000DBB106EB4603002406EB83063D
:104F50002546284608F06AFF80FB0601C30F43EA96
:104F60004103D8F800107A6803F30F0321F81430D6
:104F70000134B8F80430A4B2A3421544E9D80020A3
:104F8000BDE8F0810420BDE8F08100BF802601006B
:104F9000C188034610B44A1C9C88006892B29442AF
:104FA000DA8098BF002230F911005DF8044B98BFF9
:104FB000DA80704710B5044600230180238108463B
:104FC00063816373237305F0ABFC6060204610BD02
:104FD00010B50446FFF7EEFF0023237563752361C8
:104FE000204610BD0346002110B403F8011B00F257
:104FF000E93403F8011BA3424FF00002F9D1A0F8F5
:10500000EA23A0F8EC23A0F8EE23A0F8F023C0F8E0
:10501000F423A0F8F823A0F8FA23A0F8FC23A0F8C2
:10502000FE235DF8044B70472DE9F04F4FF0000A66
:1050300085B0A0F8EAA39DF838400D7802949DF859
:105040003C4003940192EDB1DFF82891484F40F2C3
:10505000E238412D00F088800126422404E0A54278
:1050600046D017F82E401646721CD2B202EB420E02
:10507000002CF4D10AF1010A5FFA8AFA11F80A50F9
:10508000002DE6D10446D0F8F453BDF80810A0F87E
:10509000FC13BDF80C10A0F8FE13019A45F6C051A0
:1050A000B1FBF2F2B1FBF3F0A4F8EE23A4F8F8039D
:1050B00025B1284605F036FCB4F8F80305F030FCBD
:1050C000B4F8F813C4F8F40371B100231A461E466D
:1050D0004C0801250133A2429AB234BF0570067014
:1050E0008A4200F10100F5D3002005B0BDE8F08F41
:1050F00006EB460207EB82021D4D147A002CB9D054
:10510000B0F8EA2306EB460605EB8606013C02F101
:10511000010E5EFA84FED6F804C01FFA8EFE4FF030
:10512000004603E07245A0F8EA23A3D000EBD205C5
:1051300002F0070436EA0C0B19F804B06C780CBFC7
:105140004BEA040424EA0B0402F1010B42456C70A3
:105150001FFA8BF24FEA5606E4D90023A0F8EA338F
:10516000042005B0BDE8F08F014D08240026C7E7F4
:1051700010280100202A01000378002B40D010B431
:10518000B0F8EC13224C00EBD10301F007025B787E
:10519000A25C1340B0F8FA2305D0D0F8F4339B5C3E
:1051A00083B3B0F9FC33B0F8F843013292B29442C1
:1051B000A0F8FA239CBF0022A0F8FA23B0F8F0234D
:1051C000B0F8EE43013292B29442A0F8F02313D823
:1051D0004A1CB0F8EA4392B200219442A0F8EC23B2
:1051E000A0F8F01308D80170A0F8EC13A0F8FA1397
:1051F0005DF8044B1846704718465DF8044B70473D
:1052000018467047B0F8FC335B421BB2CBE700BFD7
:10521000202A01000378002B40D010B4B0F8EC1322
:10522000224C00EBD10301F007025B78A25C134033
:10523000B0F8FA2305D0D0F8F4339B5C83B3B0F90F
:10524000FE33B0F8F843013292B29442A0F8FA2348
:105250009CBF0022A0F8FA23B0F8F023B0F8EE4388
:10526000013292B29442A0F8F02313D84A1CB0F84D
:10527000EA4392B200219442A0F8EC23A0F8F01384
:1052800008D80170A0F8EC13A0F8FA135DF8044BED
:105290001846704718465DF8044B7047184670472B
:1052A000B0F8FE335B421BB2CBE700BF202A0100FF
:1052B000B0F8EC336BB9B0F8F03353B9B0F8FA3357
:1052C0003BB90122A0F8EC33A0F8F033A0F8FA3390
:1052D0000270704700230370A0F8EC33A0F8F0339D
:1052E000A0F8FA33704700BFB0F8EC3343B9B0F818
:1052F000F0332BB9B0F8FA03003018BF0120704723
:105300000120704710B50446002301802381480026
:1053100063816373237305F003FB6060204610BD57
:10532000037BF3B903F0FF02038910B49BB2446816
:1053300024F81310038901885DF8044B01339BB2F4
:10534000038103899BB2994298BF028102894389F4
:1053500092B29BB29A4205BF012303730120184603
:105360007047012343730020704700BF0346008944
:105370005A8980B292B2904210B419D05A895C68AE
:1053800092B2002034F812200A8018735A891988C2
:10539000013292B25A815A8992B2914204D858810C
:1053A0005DF8044B0120704701205DF8044B704705
:1053B0001A7B02F0FF00002AE0D15DF8044B704731
:1053C00000230381437343810373704700224FF42A
:1053D000804101808270426002727047C901018081
:1053E000704700BF83785BB1436842F6E062934246
:1053F00008D8013345F6BF52934288BF002343606B
:1054000000207047027A0132D2B23B2A88BF0022C4
:105410000272EEE70023012282704360037270473C
:1054200000238370704700BF002202604260704713
:1054300002EB4202D20045F6C05303FB012101609A
:10544000704700BF03680248A0FB033000097047A3
:10545000ABAAAAAA03680BB101234360704700BF3F
:1054600000234360704700BF43681BB102680AB164
:105470000B444360704700BF4068003018BF0120F4
:10548000704700BF036833B1406828B183422CBF26
:105490000020012070471846704700BF70B50646CF
:1054A0000624002585F001052946304600F06EFDF2
:1054B0002946304600F072FDFA21304600F072FDB8
:1054C000631E13F0FF04EDD170BD00BF2DE9F04F56
:1054D0000024804683B04FF4167100F8044B02F0AC
:1054E00097FC4FF4FA7108F1180002F091FC4FF4A8
:1054F000167108F12C0002F02DFC08F19803C8F891
:105500003C402146C8F84040C8F84440C8F84840EC
:105510001A46C8F84C40C8F85040C8F85440C8F87B
:10552000584008F14C0B08F5927622F8021B96427F
:10553000FBD108F5BA793246002122F8021B4A4510
:10554000FBD108F5D87A4A46002122F8021B5245C1
:10555000FBD108F523755246002122F8021BAA420E
:10556000FBD108F541702A46002122F8021B0024D5
:1055700090422746F9D14FF480424FF40061A8F8D9
:105580000623A8F80823A8F80A23A8F80C23A8F8EB
:105590000E23A8F81023A8F81223A8F81423A8F8BB
:1055A00016234FF00102184688F80443C8F81C433C
:1055B00088F82143A8F82243A8F82443C8F82843D0
:1055C00088F82C43A8F81813A8F81A1388F8202391
:1055D00021468C22019308F077FF21465022304665
:1055E00008F072FF21463C22484608F06DFF214634
:1055F000DC22504608F068FF21467822284608F051
:1056000063FF0123C8F84C40CBF80440CBF80840B6
:10561000CBF80C40C8F83C30019BDFF888E01D490E
:105620001D4AC8F840B04FF00C0C88F84870C8F814
:105630006030C8F86C60194BC8F878901848DFF8EB
:105640006890C8F844E02A244FF0060B5227202621
:10565000C8F86400A8F868C0C8F87010C8F87C20C2
:10566000C8F888304046C8F884A0C8F89050A8F818
:105670005C40A8F874B0A8F88070A8F88C60C8F8EE
:10568000949000F045FB4046FFF708FF404603B00A
:10569000BDE8F08FB809FF1FCC0AFF1FD009FF1F1C
:1056A000D80AFF1FB40AFF1F740AFF1F027802B155
:1056B000704710B5044600F03FFB0123237010BD76
:1056C0002DE9F043D0F81C33027801338DB0044645
:1056D000C0F81C33002A57D0D0F828134BF67F327D
:1056E00091420CD9B24D2A78511E052904D8022ABC
:1056F00000F0D38000222A700022C4F8282345F647
:10570000BF5293425BD804F1180002F0BBFB40B9D2
:10571000A84B1A782AB1187094F80413204600F0A8
:1057200039FC261D304602F0ADFB012829D904F1D1
:105730002C08002503AF40F6FF7902AB5A190AA9DD
:10574000304602F0E9FB04AB03EB4501404602F0B2
:1057500035FB94F821333BBBBDF82830B4F818135F
:10576000B4F906235B1A1BB203FB02F3DB1303F34A
:105770000F0327F815300135022DDED194F82C33B4
:1057800083B30DB0BDE8F0838B498B42F9D990F813
:105790002013C0F81C2381F0010180F8201300F0D1
:1057A000F5FB0DB0BDE8F083BDF828300BB14B45DB
:1057B000D4D1B4F822230132A4F82223CEE794F8FE
:1057C0002013002381F00101204684F82013C4F83F
:1057D0001C3300F0DBFB04F1180002F053FB00283F
:1057E0009FD195E708A92A46384607F0E1F92B46EC
:1057F0000AAA08A904F13C0008F0B0F90A9B0B9A28
:105800006B4EBDF80C00BDF80E1036781A4402EB52
:10581000D2735B1403F30F039BB2C21ACB1AADF819
:105820001420ADF81630002E43D1644B1B78002BAA
:105830005BD1634B1B78002B7AD1624B1B78002B1A
:1058400061D1614D614E2B780BB93378B3B102232E
:10585000394607AA04F15C0007F026FF3378002BD5
:1058600040F0CA802B784BB1594B1B78002B00F0CD
:10587000CA8007A902225748FCF79AFB564B1B78AF
:10588000002B3FF47EAF204600F076FB022301465A
:1058900005AA5248FFF7AAF873E7464A1278002A89
:1058A0003FF428AF00214E48FDF7EEF9D4F81C3341
:1058B00020E7012E4AD0022E5BD0032E00F0AA80F2
:1058C000042E00F0BA80052E00F0CA800A2E00F0E7
:1058D000E180632E00F0EE80602E7FF452AF04A9C9
:1058E00002224048FBF704FC4BE707AA2B4605A918
:1058F00004F1680007F0D8FE2B4604AA07A93A482D
:10590000FEF7E4F895E706AA05A904F18000022352
:1059100007F0CAFE06A907AA04F18C00022307F0CB
:10592000C3FE07A9022304AA304800F0EDFF88E770
:1059300007AA05A904F17400022307F0B5FE07A920
:10594000022304AA2A4801F0FDFE76E71B4B1B78D0
:10595000002B3FF416AF04F1680007AA2B4605A9F7
:1059600007F0A2FE2B4604AA07A91F48FEF7AEF8CF
:1059700007E7154B1B78002B3FF403AF2B46394646
:1059800004F15C0007AA07F08FFE114B1B78002B77
:1059900000F09D80074B1B78002B00F08580009560
:1059A00002AB04AA07A91348FCF724FBE9E600BFF1
:1059B0008042FF1FF473FF1F7FA90300310BFF1FFD
:1059C000320BFF1F2E0BFF1F300BFF1F2F0BFF1F74
:1059D0002C0BFF1FF048FF1F2D0BFF1F68A1FF1F9F
:1059E0008442FF1F7442FF1F9470FF1F98AFFF1F78
:1059F000404EFF1F7822FF1F022304AA07A9374841
:105A000004F0BCFD2EE704AA07A902233448FBF7E3
:105A1000D7FF33E7334B1B78002B3FF4B2AE04F1D2
:105A20005C0007AA2B4605A907F03EFE2B4604AAF8
:105A300007A92A4804F0A2FDA3E62B4B1B78002BF4
:105A40003FF49FAE04F1740007AA2B4605A907F0A6
:105A50002BFE2B4604AA07A9244801F073FE90E60A
:105A6000234B1B78002B3FF48CAE06AA2B4605A9CE
:105A700004F1800007F018FE06A904F18C0007AAC3
:105A80002B4607F011FE2B4604AA07A9194800F07F
:105A90003BFF76E6204600F06FFA2B46014605AA4A
:105AA0001548FEF7A3FF6CE62A4607A91348FCF742
:105AB0007FFA66E6394604F1680007AA022307F078
:105AC000F3FD07A902220E48FAF7D0FF59E62B464C
:105AD00004AA07A90248FBF773FF52E62C77FF1FC1
