:10000000F8FF022099010000CDAA000085AA000097
:1000100085AA000085AA000085AA000085AA000024
:1000200085AA000085AA000085AA0000CDAA0000CC
:10003000CDAA000085AA000059C500005DC60000D9
:10004000CDAA0000CDAA0000CDAA0000CDAA0000D4
:10005000CDAA0000CDAA0000CDAA0000CDAA0000C4
:10006000CDAA0000CDAA0000CDAA0000CDAA0000B4
:10007000CDAA0000CDAA0000CDAA0000CDAA0000A4
:10008000CDAA0000CDAA0000CDAA0000CDAA000094
:10009000CDAA0000CDAA0000CDAA0000CDAA000084
:1000A000CDAA0000CDAA0000CDAA0000CDAA000074
:1000B000CDAA0000CDAA0000CDAA000049C80000CA
:1000C000CDAA00007DB00000CDAA000095B30000CD
:1000D000CDAA000075C90000CDAA0000ED600000A7
:1000E000CDAA0000CDAA0000CDAA0000CDAA000034
:1000F000CDAA0000CDAA0000CDAA0000CDAA000024
:10010000CDAA0000CDAA0000CDAA0000CDAA000013
:10011000CDAA000021B60000CDAA0000CDAA0000A3
:10012000CDAA0000CDAA0000CDAA0000CDAA0000F3
:10013000CDAA0000CDAA0000CDAA0000CDAA0000E3
:10014000CDAA0000CDAA00006DCA0000CDAA000013
:1001500065CB0000CDAA0000CDAA0000CDAA00000A
:10016000CDAA0000CDAA0000CDAA0000CDAA0000B3
:10017000CDAA0000CDAA0000CDAA0000CDAA0000A3
:10018000CDAA0000CDAA0000CDAA0000CDAA000093
:10019000CDAA0000CDAA0000584B4CF2205210B559
:1001A0001A804DF628121A8000BF00BF0AF092FC98
:1001B000534B4FF030621A60524A9A60524ADA60EA
:1001C000524B4FF470021A60514A136813F4807353
:1001D00004D150490B604FF4A85313604E4B1A786A
:1001E000110703D51A7842F008021A704B4B4C499C
:1001F0002A221A704B4A4C4B8B4204D252F8040FFD
:1002000043F8040BF8E7494B494900228B4202D2DC
:1002100043F8042BFAE74749474A002352F82300E2
:1002200041F823000133662BF8D1444B444A802126
:1002300003F8011B9342FBD1424B3E4A1A60424BEA
:100240008A221A70A3F5805324225A70A0221A70B1
:100250009A799207FCD59A79D406FCD43B4A9379D3
:1002600003F00C03082B394BF9D103221A714622F3
:100270005A719A799006FCD5344A9179334B4906E4
:10028000FBD5334A4FF08271116009215160202261
:100290001A709A7902F00C020C2AFAD12D4B2E4AD0
:1002A0001A602E4B2E4A1A6000225A60072243F829
:1002B000042C2C4AC3F80C2D62B60AF023FD154B12
:1002C0001B68DA0705D528480AF0A2FC274B284A04
:1002D0001A60284B1B785B0609D5244C244B2268F6
:1002E0009A4204D120480AF093FC002323600DF0C9
:1002F000B3FE0AF0F5FB0CF0B9F9FEE70E2005405D
:1003000030800440823F04000100002B88ED00E0B3
:1003100010D0034014D0034002D0074000E0074053
:10032000FC15FF1F343B0100F806FF1F0016FF1FDE
:10033000B4C8FF1F0002FF1F0000000000E400E03F
:1003400056E400E008ED00E00050064000400640A2
:100350004480044004800440C010050014E000E024
:10036000BFD4010000002020C7049C5F1CE00340B4
:10037000A5C3945A00F00740FFFFFFFFFFFFFFFFF8
:10038000FFFFFFFFFFFFFFFFFFFFFFFFFFFFFFFF7D
:10039000FFFFFFFFFFFFFFFFFFFFFFFFFFFFFFFF6D
:1003A000FFFFFFFFFFFFFFFFFFFFFFFFFFFFFFFF5D
:1003B000FFFFFFFFFFFFFFFFFFFFFFFFFFFFFFFF4D
:1003C000FFFFFFFFFFFFFFFFFFFFFFFFFFFFFFFF3D
:1003D000FFFFFFFFFFFFFFFFFFFFFFFFFFFFFFFF2D
:1003E000FFFFFFFFFFFFFFFFFFFFFFFFFFFFFFFF1D
:1003F000FFFFFFFFFFFFFFFFFFFFFFFFFFFFFFFF0D
:10040000FFFFFFFFFFFFFFFFFFFFFFFFDEF9FFFF23
:1004100010B5054C237833B9044B13B10448AFF33E
:1004200000800123237010BD0016FF1F0000000094
:10043000383B0100084B10B51BB108490848AFF321
:1004400000800848036803B910BD074B002BFBD0A0
:10045000BDE81040184700BF000000000416FF1F51
:10046000383B0100FC15FF1F0000000010B40346DC
:1004700000F57A74002103F8011BA3424FF000023B
:10048000F9D1A0F8E823A0F8EA2380F8EC235DF87E
:10049000044B7047B0F8E83303B97047F0B5044631
:1004A00083B0224805F050FC182805463CD9B4F822
:1004B000EA331F4E1CE0CDF800E005F0D9FB94F8BC
:1004C000EC330133DBB2183D312B84F8EC33ADB2A1
:1004D000B4F8EA3306D901339BB20022A4F8EA3318
:1004E00084F8EC23B4F8E8239A4218D9182D1BD9C4
:1004F000DA1003F00703A15CF75C0E4A0B480F40CB
:100500004FF0000E4FF018034FF06101D3D1009768
:100510001823094A0548612105F0AAFBCFE700230B
:10052000A4F8EA33A4F8E83303B0F0BDFC73FF1F6E
:1005300084EC0000F806FF1F1C16FF1F2DE9F04792
:1005400005460F46144600214FF47A720EF074F8F7
:1005500000230822A5F8E823A5F8EA3385F8EC3350
:10056000002C64D004F1FF3C3649374E57FA8CFC1E
:1005700007F1FF3E40F2E2371EF8019FB9F1410F4B
:100580005BD00124422004E0814518D016F82800F1
:100590001C46631CDBB203EB43080028F4D1F4458E
:1005A000EAD1082A43D0053292B2A5F8E8232749B8
:1005B000274812B209F0E4FA0020BDE8F08704EB06
:1005C000440306EB830320481B7A002BE7D004EB9F
:1005D000440400EB8404013B02F1010858FA83F85B
:1005E000D4F804901FFA88F84FF0004411E011F895
:1005F00003A02B5C23EA0A0302F1010ABA422B543E
:100600001FFA8AF24FEA540411D84245A5F8E823AC
:10061000C5D034EA090A4FEAE20002F00703E6D146
:100620009A462B5C11F80AA04AEA0303E4E7002388
:10063000A5F8E8330420BDE8F08703480823002428
:10064000C5E700BF84EC000074EA000058EA00002F
:10065000203FFF1F0023A0F8E833A0F8EA3380F81A
:10066000EC337047F0B5002200F108040646027032
:100670004270426023462A3003F8012B83424FF038
:100680000001F9D1094F86F82A1007F1200E3D46E6
:100690000FCD754520606160A260E3602F4604F1D4
:1006A0001004F4D12B8823803046F0BD80ED00008B
:1006B000114AC1EBC1015318F0B5515C867D9A799E
:1006C000057F5C78C47522F00F0201F00F0405F07D
:1006D0000F0526F00F01214393F802E0DF781E7921
:1006E0005C79817545EA020380F818E047768676E2
:1006F000C4760377F0BD00BF8CEC0000114AC1EB5B
:10070000C1015318F0B5515C867D9A79057F5C78FC
:10071000C47522F00F0201F00F0405F00F0526F05A
:100720000F01214393F802E0DF781E795C7981752F
:1007300045EA020380F818E047768676C4760377A8
:10074000F0BD00BF0CED000010B50446304802F0CB
:100750006BFC2F4802F0F8FA48B16378013B032B99
:1007600003D8DFE803F0182D40050023637010BDA7
:10077000274802F0DFFC63681E339842F7D9002156
:10078000234802F081FA224802F0D0FC002384F8CA
:100790002A30637010BD01211D4802F0A1FC09221E
:1007A0001C491B4802F01CFA22221B49184802F07F
:1007B000E7F90121164802F067FA0223637010BDC1
:1007C00094F82A102046FFF773FF222204F1080153
:1007D0000F4802F0D5F994F82A30052B0FD00133D9
:1007E00084F82A3010BD22220C49094802F0C8F9C9
:1007F000074802F09FFC04236060637010BD2378FB
:10080000002284F82A20002BB1D10323637010BD8D
:100810008442FF1F00ED00005CED0000B8EC00001A
:1008200010B504461F4801F067F91E4801F0CAF9E7
:1008300050B16378022B08D0032B21D0012B17D0A5
:100840000023637084F82A3010BD94F82A102046E3
:10085000FFF754FF222204F10801124801F002F9C7
:1008600094F82A30052B13D0013384F82A3010BDB8
:1008700022220D490B4801F0F5F80223637010BDE8
:1008800022220A49074801F0EDF80023637010BDE9
:100890002378002284F82A20002BD5D1032363700B
:1008A00010BD00BF54BFFF1FDCEC000038ED00009E
:1008B00008B5124B1B785C3B062B18D8DFE803F019
:1008C00013170F0417170400017889B10C48012190
:1008D00002F0E8F90A48BDE8084002F0A5BBBDE80F
:1008E0000840FFF731BFBDE80840FFF799BF08BDDA
:1008F0000348BDE8084002F0D5B900BF8042FF1FA1
:100900008442FF1F012A01D0042070470A78012A7F
:100910000CBF01230023037009D143783BB906497A
:10092000097801F0FD015C2903D0184670470020CA
:1009300070474270184670478042FF1F002210B473
:1009400002600271826000F10C0300F13C0423F8A4
:10095000022BA3424FF00001F9D180F83C105DF862
:10096000044B7047F0B5836800294FEA4303B8BFD2
:1009700043F001038360064690F83C00421C06EBFE
:100980004000D2B286F83C20172A8181334888BFC4
:10099000002223F07F4388BF86F83C2083B0584074
:1009A00009F0DEFA022813D82D4806F10A0306F1F1
:1009B0003A014FF47A5433F9022F9042B8BF1046EF
:1009C0009442A8BF14469942F5D1031B052B32DC93
:1009D000B368244823F07F43584009F0C1FA022845
:1009E00013D81F4D06F10A0306F13A014FF47A5469
:1009F00033F9022F9542B8BF15469442A8BF14465A
:100A00009942F5D12B1B052B01DC03B0F0BD8023EF
:100A10002F1226120522694613488DF802508DF8D0
:100A200001708DF804408DF803608DF8003009F0F6
:100A300049F803B0F0BD0712251200238DF802001B
:100A40000522694608488DF801708DF804408DF83C
:100A500003508DF8003009F035F8B9E768B4AA0002
:100A600080C1FFFF974B5500203FFF1F6AB370B551
:100A7000561EB6B2044601EB46068D1E02E0B54294
:100A800023601FD035F9021F2379C80F83421AD083
:100A90002368B3F5004F03F2991224BF6FF4CC72B0
:100AA0009A18226002F54C533333B3F5803F20711E
:100AB000E5D3A2F54C42CD3A22602046FFF752FF23
:100AC000B542DFD170BD2268ECE7704700220270AA
:100AD0004280704710B5044684B0C74803F0F6F969
:100AE00023780BB904B010BDC34803F0C7FA04283B
:100AF000F8D9C24B01AA03F10B009E2101E013F8C3
:100B0000011F02F8011B8342F9D16288BC48A2FB95
:100B10000001531A01EB53031B0903EB4303C3EB1F
:100B2000C303D31A9BB2002B41D0012A5CD0022A06
:100B300050D0032A62D0042A6AD0052A72D0062A2D
:100B40007AD0072A00F08280082A00F08980012BE1
:100B500000F09080022B00F09780032B00F09E8025
:100B6000042B00F0A580052B00F0AC80062B00F0D4
:100B7000B380072B00F0B880082B00F0D480092A3E
:100B800000F0AC80092B00F0EC800A2A40F0C08015
:100B90000B2B00F0A7800C2B40F0CF803D210222D0
:100BA000D7238DF80D108DF80E208DF80F3001A988
:100BB0000C22914803F030F86188924B01314A08C9
:100BC000A3FB0232120A40F2762303FB1213638066
:100BD00004B010BD34211922DE238DF80D108DF8DC
:100BE0000E208DF80F30E2E730210222DE238DF84F
:100BF0000D108DF80E208DF80F30D8E731216F22BF
:100C0000DE238DF80D108DF80E208DF80F30CEE715
:100C10001F212B22F6238DF80D108DF80E208DF854
:100C20000F30C4E732212222B3238DF80D108DF846
:100C30000E208DF80F30BAE724212A22E0238DF808
:100C40000D108DF80E208DF80F30B0E733213B22C8
:100C5000B3238DF80D108DF80E208DF80F30A6E718
:100C600050216F22B3238DF80D108DF80E208DF8D2
:100C70000F309CE725214F2293238DF80D108DF81E
:100C80000E208DF80F3092E770210B22DA238DF8B9
:100C90000D108DF80E208DF80F3088E725211D22CC
:100CA000D6238DF80D108DF80E208DF80F307EE7CD
:100CB00033211B22B3238DF80D108DF80E208DF8F3
:100CC0000F3074E725216F22D7238DF80D108DF892
:100CD0000E208DF80F306AE73921E0E70A2B0DD09E
:100CE0000B2B60D12521BCE725210C22C7238DF8D1
:100CF0000D108DF80E208DF80F3058E721210C22B1
:100D0000C2238DF80D108DF80E208DF80F304EE7B0
:100D10000A2BF3D00B2A2ED10C2B3FF43FAF0D2B17
:100D20003BD1252157E750216F22D0238DF80D109C
:100D30008DF80E208DF80F3039E70D2BF1D00E2AEB
:100D40002BD10F2B39D0102B41D0112B49D016218C
:100D50002922F5238DF80D108DF80E208DF80F3017
:100D600025E725211E22D0238DF80D108DF80E20A9
:100D70008DF80F301BE70B2BB4D00C2A13D10D2BA1
:100D8000CFD00E2B3FF46CAF0F2B16D0102ADCD037
:100D9000102B1CD0112AD8D1D9E70E2B3FF460AF0D
:100DA0000F2AD0D0F0E70C2B3FF4F8AE0D2AC4D1B7
:100DB0000E2B3FF455AF0F2BEAD125211B22D62352
:100DC0008DF80D108DF80E208DF80F30EFE62321F1
:100DD0001B223A238DF80D108DF80E208DF80F3060
:100DE000E5E621212522F5238DF80D108DF80E2042
:100DF0008DF80F30DBE600BFD41FFF1FD0ED0000E1
:100E000087611886D1000DD0012A01D004207047D7
:100E100038B50B78012B04460CBF0125002503785B
:100E200003D05BB92570002038BD002BFAD1438078
:100E300029220449044802F0C9FEF3E7024802F0FF
:100E400011FFEFE7A4ED0000D41FFF1F00224FF4B5
:100E5000C06101810280428042608272C27202736C
:100E6000704700BF2DE9F0413E4F027B3B789A422C
:100E700082B0054644D0663B052B70D8DFE803F00E
:100E80005B5F63676B0340F6BF11018040F6BF12E2
:100E9000914235484FF0000306D00133062B31D084
:100EA00030F833209142F8D12F4EDBB216EBC30657
:100EB00028D0686873886B8010B10BF0E1FB6B88F9
:100EC00058000BF0DBFB6B886860BBB10024A046C8
:100ED00040460DF063F8B5F90830726883FB0001F5
:100EE000C30F43EA4103696803F30F0321F8143089
:100EF00001346B88A4B2A3429044E9D83B782B73A9
:100F0000AB7A13B902B0BDE8F081184804F01CFFB9
:100F10006B8883420446F5D200266A683978134804
:100F2000009604F0A5FE6B88E41AA4B2A342F4D3A1
:100F300002B0BDE8F0814FF46F710180A6E740F286
:100F40000F410180A2E740F2DF4101809EE740F2BD
:100F5000616101809AE740F61F01018096E7002158
:100F6000018093E78042FF1FDCED0000FC73FF1F50
:100F7000012A01D0042070470B78A3F10103B3FAD2
:100F800083F35B0983720020704700BF0022027068
:100F900042708270704700BF10B50446114805F0DA
:100FA00085FE104805F02EFF28B16378012B03D091
:100FB00000236370A37010BDA3780B490948C3EBED
:100FC000C303C3EBC3031944312205F0FDFDA3782D
:100FD0002278013303F00303A370002AEBD162707F
:100FE00010BD00BF401AFF1F0CEE0000012A01D007
:100FF000042070470A78012A0CBF012300230370E4
:1010000004D1437813B942701846704700207047E6
:10101000002202704270704710B50446114806F075
:1010200095FD104806F02EFE60B16378012B0AD0C2
:10103000022B10D1D9220C490A4806F00BFD237867
:1010400063B9637010BDD9220849064806F002FD55
:101050000223637010BD00236370F3E70123637004
:1010600010BD00BF7043FF1F0408FF1F2807FF1FAC
:10107000012A01D0042070470A78012A0CBF0123FD
:101080000023037004D1437813B9427018467047A7
:101090000020704700220270704700BF08B5037837
:1010A00003B908BD054804F04FFEA528F9D9AA21C7
:1010B0000348BDE8084006F04BBE00BFFC73FF1FAD
:1010C0003440FF1F012A01D0042070470B78A3F1A0
:1010D0000103B3FA83F35B0903700020704700BF7C
:1010E00000224FF6FF710181026042604281704729
:1010F000002A48D02DE9F043561EB6B283B004460C
:1011000001EB46068D1E45F6BF5701E0AE4237D0D3
:1011100035F8022F618963689142218938BF628165
:101120009142134488BF2281226863600132BA422F
:101130002260EBD9B3FBF2F3B4F80AC0B4F808E0CC
:101140008DF805304FEA1C29C3F307234FEA1E2808
:1011500006220D488DF8043069468DF801C08DF8DF
:1011600000908DF803E08DF8028008F0D7FC002392
:101170004FF6FF72AE422360636063812281C7D164
:1011800003B0BDE8F0837047203FFF1F034600F126
:101190001401002243F8042B8B42FBD130B400F63B
:1011A0005435002423F8024BAB424FF00002F9D132
:1011B00042F20F7300F5B554A0F85C3BA0F8542B35
:1011C000A0F8562BA0F8582BA0F85A2BC0F8602B8B
:1011D000A0F8642BA0F8662BA0F8682BA0F86A2B67
:1011E000A0F86C2BA0F86E2BA0F8702BA0F8722B37
:1011F00080F8742B80F8752B80F8762B80F8772B8D
:1012000080F8782B80F8792B80F87A2B1C3400F644
:101210007C3323F8022B9C42FBD130BC704700BFCB
:10122000002342F20F72A0F85C2BA0F8583BC0F8E4
:10123000603B80F8753B80F8763B80F8783BA0F8FF
:101240005A3B70472DE9F047BDF82050BDF924C046
:10125000BDF92880002A6CD0013A05F1040ED2B203
:10126000AE1C0EEB42020135334F1FFA8CFC1FFA05
:1012700082FEB6B2ADB2C8F1000924E04FEAE20A3C
:1012800002F0070213F80A40BA5C24EA020203F8EB
:101290000A20EA1005F0070A9C5C17F80AA04AEA3F
:1012A00004049C544A1D92B2B2F5B46F06F10206D2
:1012B00028BFA1F29B51B6B22CBF89B211460235AC
:1012C000B645ADB235D000EB4104B21EA48ACCEBDA
:1012D000040424B24C4592B2D0DB002C1FDB444501
:1012E00013DA4FEAE20A02F0070213F80A40BA5C86
:1012F000224303F80A20EA1005F0070A9C5C17F85D
:101300000AA024EA0A049C54CCE7D41002F0070295
:1013100013F804A0BA5C42EA0A021A55B9E74FEA88
:10132000E20A02F0070213F80A40BA5C24EA020259
:10133000DFE7BDE8F08700BF68F000002DE9F04F5F
:101340000546A348B5F8543B55F8233089B023F03F
:101350007F435840049108F003FEC31EDBB2122BFA
:1013600040F20781B5F8569BDFF878E2994F09F211
:101370002D5189B2B1F5B46F0646974826BFA9F141
:10138000730292B20A4600F1180A4FF47A5C002404
:1013900005EB4203B3F914309F42B8BF1F469C458A
:1013A000A8BF9C46022E94BF90F900B09EF900B0F1
:1013B000BBF1010F00F0E080BBF1030F00F0DE8015
:1013C000BBF1FF3F01D003EB43031C44531D9BB211
:1013D000B3F5B46F28BFA2F29B5200F101002CBFFD
:1013E00092B21A4682450EF1010ED1D1D5F8603B7A
:1013F0009C4240F3BE800CEB070A4FEA6A0ACAEB34
:10140000070844F6314303FB08F848F3CF33B1F53E
:10141000B46F059328BFA9F17301059B02934FF0A8
:1014200004020FFA8AFA0DF1180928BF89B2009256
:10143000CDF804A04B4618222846FFF703FF022EE2
:101440004FF0000843D94746DFF89CB1634E0720B0
:101450004FF00F0E03E01BF801EF16F8010F19F81B
:1014600008100EEA0101484008F074FD08F1010877
:101470003844B8F1070FC7B2EDD1032F79D8049BD8
:10148000002B00F09280059AA5F8722B0023A5F896
:10149000702BA5F86E2BA5F86C2BA5F86AABA5F8F8
:1014A00068ABA5F866ABA5F864AB85F8743BB5F8F6
:1014B000563BC5F8604B03F21A4292B22021B2F5B6
:1014C000B46FA5F8583B85F8751B44D341E0DFF8AD
:1014D00018B1434E47460D204FF00F0E03E01BF8A6
:1014E00001EF16F8010F19F808100EEA0101484043
:1014F00008F030FD08F101083844B8F1070FC7B211
:10150000EDD1032F35D8049B002B3BD0059AA5F8CD
:10151000722B0023A5F8702BA5F86E2BA5F86C2B69
:10152000A5F86AABA5F868ABA5F866ABA5F864ABFF
:1015300085F8743BB5F8563BC5F8604B03F21A4288
:1015400092B24021B2F5B46FA5F8583B85F8751BEF
:1015500001D3A3F5C372A5F85A2B03F20D1292B270
:10156000B2F5B46F2ABFA3F29343A5F85C2BA5F89C
:101570005C3B09B0BDE8F08FE41A27E703EB4303B7
:10158000E41A23E795F8743BBDF8141005EB430209
:101590000133DBB2032B88BF9DF81030A2F86C1B1F
:1015A000A2F864AB85F8743BC4E795F8743BBDF8CA
:1015B000141005EB43020133DBB2032B88BF9DF807
:1015C0001030A2F86C1BA2F864AB85F8743B6EE790
:1015D0006E28760080C1FFFF70F00000D8EE00009A
:1015E000E0EE0000E8EE0000D0EE000080F8771B8F
:1015F000704700BFB0F85A3B3C33F0B40A469BB288
:101600004FF40774002600EB43015D1CADB2B1F846
:101610007C7B013CB5F5B46FA3F29F53A4B23E446A
:101620002CBF9BB22B46002CEDD1084B0848A3FBE6
:1016300006135B0AC3F3072182F8233082F82210D5
:1016400024230121F0BC08F0B5B800BF49D6B9F297
:10165000203FFF1FF0B5B0F8565B00EB45030029B3
:101660009982A3F87C2BB0F8542B50F822304FEA23
:101670004303B8BF43F0010340F8223090F8783BB1
:101680008FB00446002B00F0A380B0F8581B01F285
:101690009F539BB2B3F5B46F01F1010292B224BF24
:1016A00001F1FF339BB2B2F5B46F24BFA1F29F5298
:1016B00092B2934222D3AB4224D9AA4222D2B4F8A6
:1016C0005C3BAB4228D094F8780B003018BF012067
:1016D0000135ADB2B5F5B46F24BF0023A4F8563B75
:1016E000B4F8543B38BFA4F8565B01339BB2042BCB
:1016F00088BF0023A4F8543B0FB0F0BDAB42DED846
:10170000AA42DCD300212046FFF718FEB4F8565B4E
:10171000B4F85C3BAB42D6D1B4F96E3BB4F96C7B08
:10172000B4F9662BB4F9701BB4F9646BB4F9680BA7
:101730001F441644B4F9723BB4F96A2B0F4405F206
:10174000123189B20644B1F5B46F16441F4428BF64
:10175000A5F28E2194F8753B8DF814304FF00802F5
:1017600046F38F0647F38F0728BF89B205AB009277
:101770000297019684222046FFF764FD94F8753B9A
:10178000402B55D0202B00F0E88094F8782BB2B392
:1017900094F8763B0133DBB20C2B84F8763B1DD8F2
:1017A000012A35D194F8793B042B3AD80133DBB2C6
:1017B00084F8793B8DF8143005AA2223012178485A
:1017C00007F0F8FF94F8780B003018BF012017E0FD
:1017D0000121FFF7B3FDB4F8565B70E701217048B3
:1017E00008F01CF8002342F20F72A4F8583B84F86A
:1017F000763B84F8783BA4F85A3BA4F85C2B002095
:101800000023B4F8565BC4F8603B84F8753B5FE78F
:10181000022A04D194F87A3B002B40F0B3800120D7
:10182000EEE7202200238DF8142084F8793BC3E7EB
:1018300004A801F08BF80DF113030DF1120204A8B6
:101840000DF1150101F09EF894F8772B9DF81230F8
:101850009A42B7D19DF814209DF8133000211A4305
:101860008DF8142084F8761B84F8791B0A2B6ED827
:10187000DFE803F06353346D6D6D2006066D0600DE
:1018800094F8780B02289FD1B4F9582B4549444865
:101890000097334608F0CEF9204605A9FFF7AAFEC7
:1018A00094F8780B9DF8133084F87A3B003018BF19
:1018B0000120A5E7B4F9582B3B4939480097334636
:1018C00008F0B8F9204605A9FFF794FE022200238C
:1018D00084F8782B84F87A3B012091E794F8780B10
:1018E00001287FF471AF3149B4F9582B0097334682
:1018F0002B4808F09FF9204605A9FFF77BFE002042
:1019000042F20F73A4F8580B84F8760B84F8780B26
:10191000A4F85A0BA4F85C3B72E72549B4F9582B9C
:10192000009733461E4808F085F905A92046FFF7C1
:1019300061FE012084F8780B62E794F8783B012B74
:10194000F7D1B4F9582B1B4900973346EAE7B4F9AD
:10195000582B194900973346CAE7B4F9582B174951
:101960000F480097334608F065F9204605A9FFF7B0
:1019700041FE0023012084F8780B84F8763B84F83C
:10198000793B3DE743F04003204605A98DF814302C
:10199000FFF730FE94F8780B003018BF01202FE7D6
:1019A000203FFF1F34EF000000EF0000D4EF0000E5
:1019B00068EF00009CEF00000CF0000038F0000021
:1019C000B3B1F8B55E1EF6B2074601EB46068C1EB3
:1019D000951E34F9021F35F8022F3846FFF73AFEFC
:1019E000B442F6D10146BDE8F840034804F0B0B96E
:1019F0001946014804F0ACB9FC73FF1F38B54FF429
:101A0000B971044604F11C0508F006FA00232361AD
:101A100019466361A36104F13C022B4623F8021BC3
:101A20009342FBD104F2EC40002203F8012B9842D0
:101A30004FF00001F9D1F023A4F8EC14A4F8EE144F
:101A4000C4F8F034202228460CF0F6FD05210922C6
:101A5000034B2174A56162826361204638BD00BFDB
:101A6000E008FF1F222A01D00420704770B5054608
:101A70000C4608F0E5F9202801D8052070BD04F1D6
:101A8000210614F8011F284608F022FAB442F8D1C2
:101A9000002070BDF0B58FB002AC04AA4FF4E37E15
:101AA00040F252574FF6AE264FF63A6501F0C003AA
:101AB000802B1CD0C02B18D0ABB1268002348900FB
:101AC0009442C9B2F2D102A92246103004230BF08D
:101AD000B9F900230093224614230221054804F09B
:101AE000C7F80FB0F0BD2580E8E72780E6E7A4F847
:101AF00000E0E3E7FC73FF1F70B5B0F8EC54044658
:101B00000DB32D4804F020F91428054652D9B4F835
:101B1000EE3401E0142D2FD95A1C2344A4F8EE24EE
:101B200093F83C102046FFF7B5FFB4F8EE34B4F854
:101B3000EC24143D9A42ADB2ECD80023A4F8EE3464
:101B4000A4F8EC3470BD08F0A1F970B31B4B1B78FE
:101B50009BB9D4F8F01441B15F20E21801339BB275
:101B6000994282F83C00F8D88DB20023A4F8EC54D6
:101B7000A4F8EE34002DC4D170BD04F13B0604F18D
:101B80005C05204608F0D0F906F8010FAE42F8D106
:101B90000B496322002301E011F8012F05F8012F02
:101BA0000133272BF8D14825DFE7B4F8EC54002D9A
:101BB000E2D0A6E770BD00BFFC73FF1FF473FF1FE8
:101BC00088F0000008B508F03BF9044BA3FB0023A4
:101BD000C01A03EB5000C0F3471008BDD5411DD417
:101BE0000C234FF4167203FB0121B1F5966F8ABFE7
:101BF0004FF49663C0F8F014C0F8F034704700BF9B
:101C0000034600F11401002243F8042B8B42FBD160
:101C100030B400F23C55002423F8024B9D424FF0B3
:101C20000002F9D142F20F73A0F83C25A0F83E253E
:101C3000C0F84425A0F84825A0F84A2580F84C258E
:101C4000A0F8403530BC7047002342F20F72A0F874
:101C50004025A0F83E35A0F83C35C0F84435A0F842
:101C60004A35A0F8483570472DE9F047BDF82050B7
:101C7000BDF924C0BDF92880002A6CD0013A05F1D5
:101C8000040ED2B2AE1C0EEB42020135334F1FFAE6
:101C90008CFC1FFA82FEB6B2ADB2C8F1000924E096
:101CA0004FEAE20A02F0070213F80A40BA5C24EA9B
:101CB000020203F80A20EA1005F0070A9C5C17F8F4
:101CC0000AA04AEA04049C544A1D92B2B2F5257F48
:101CD00006F1020628BFA1F28F21B6B22CBF89B24D
:101CE00011460235B645ADB235D000EB4104B21E07
:101CF000A48ACCEB040424B24C4592B2D0DB002C75
:101D00001FDB444513DA4FEAE20A02F0070213F838
:101D10000A40BA5C224303F80A20EA1005F0070AD9
:101D20009C5C17F80AA024EA0A049C54CCE7D4105F
:101D300002F0070213F804A0BA5C42EA0A021A553C
:101D4000B9E74FEAE20A02F0070213F80A40BA5C68
:101D500024EA0202DFE7BDE8F08700BFECF00000F4
:101D60002DE9F04FB0F83C2550F8223000294FEA19
:101D70004303B8BF43F0010340F82230B0F83E25DA
:101D8000044604EB42028348918223F07F4391B0E2
:101D9000584008F0E5F80228B4F83EC57ED80CF2A9
:101DA000212189B2B1F5257F7B487C4F26BFACF15C
:101DB00073031FFA83F8884600F1170E6FF00203D1
:101DC0004FF47A56002504EB4802B2F914209742EA
:101DD000B8BF17469642A8BF1646012B19D0032B51
:101DE00013D0013301D002EB4202154408F1050380
:101DF0009BB2B3F5257F24BFA8F28F239BB2864503
:101E000009D0984610F9013FDDE702EB4202AD1A16
:101E1000ECE7AD1AEAE7D4F844359D423EDD3E4496
:101E20007610BF1B44F6314909FB07F747F3CF3360
:101E3000B1F5257F059328BFACF17301059B029393
:101E40004FF0040236B20DF11C0A28BF89B200928D
:101E500020460196534618224FF00008FFF704FF72
:101E6000DFF848B14E4FC1460D200F2103E01BF8AB
:101E7000011F17F8010F1AF808200A40504008F017
:101E800069F808F101084844B8F1070F5FFA80F9D2
:101E9000EDD1B9F1030F52D9B4F83EC5B4F84035CD
:101EA0009C4518D00CF1010C1FFA8CFCBCF5257F69
:101EB00024BF0023A4F83E35B4F83C3538BFA4F85D
:101EC0003EC501339BB2042B88BF0023A4F83C35E8
:101ED00011B0BDE8F08F0CF1060189B2B1F5257F94
:101EE00028BFACF28E21B4F94A35B4F94805019007
:101EF0004FF0080228BF89B20293009207AB8422F8
:101F00002046FFF7B1FE06A800F020FD0DF11B03EF
:101F10000DF11A0206A80DF11D0100F033FD94F831
:101F20004C259DF81A309A4225D042F20F720023B8
:101F3000B4F83EC5A4F84025C4F84435B2E7059F7F
:101F4000184919483B46324607F020FEB4F83EC512
:101F5000C4F844550CF20D139BB2B3F5257FA4F8D9
:101F60004865A4F84A7503D36FF4C37363449BB206
:101F7000A4F8403594E79DF81B30032BD5D1C32539
:101F800007AA2223002108488DF81C5007F012FCF4
:101F9000CBE700BF6E287600F4F0000080C1FFFFA1
:101FA000B8F00000C0F00000203FFF1FB0F00000BC
:101FB00072B170B5551EEDB2064601EB45058C1E9B
:101FC00034F9021F3046FFF7CBFEAC42F8D170BDAA
:101FD000704700BF80F84C15704700BF10B5002156
:101FE000044600F063F804F65460012100F05EF846
:101FF000204610BD2DE9F0479DF820407CB30746F0
:10200000601E80B201EB40095E1E8C1E951E07F615
:10201000546814E0082B384601D100F095F834F9E3
:10202000021F35F8022F384600F0C0FA2A88B4F9AA
:1020300000108246404600F0B9FA4C4505D016F82B
:10204000013F042BE6D14046E7E7BAF1000F0CBF91
:10205000014601210348BDE8F04703F079BE21465F
:10206000F8E700BFFC73FF1F38B504460D4600F0CB
:102070006BFA294604F65460BDE8384000F064BAB3
:1020800038B504460D4600F063FA294604F654605C
:10209000BDE8384000F05CBA10B5044600F060F8C6
:1020A00004F65460BDE8104000F05AB8034630B45E
:1020B00003F8041B00F11804002243F8042BA34288
:1020C000FBD100F5E465002423F8024BAB424FF04E
:1020D0000002F9D142F20F73A0F82837A0F82027A8
:1020E000A0F82227A0F82427A0F82627A0F82A275E
:1020F000C0F82C27A0F83027A0F83227A0F8342702
:10210000A0F83627A0F83827A0F83A27A0F83C27EF
:10211000A0F83E2780F8402780F8412780F8422722
:1021200080F84327A0F8442780F8462780F84727FF
:1021300080F8482700F24A7300F6526123F8022B18
:102140009942FBD130BC70470023A0F82237A0F899
:102150002A37A0F82037C0F82C3780F8413770476D
:10216000002342F20F72A0F82827A0F82437A0F825
:102170002237A0F82A37A0F82037C0F82C3780F88B
:10218000413780F8423780F84637A0F82637704745
:102190002DE9F04F87B08146BDF94840BDF84000B9
:1021A000BDF944700494002A00F08A80013A264662
:1021B000D2B2041D04EB4202851C01301FFA82FBDF
:1021C00082B27042019048461FFA87FAD946ADB2F2
:1021D000834618E03C483C4E10F8084013F80E00C7
:1021E00016F80CC020EA040003F80E00D85D4CEA93
:1021F000000C03F807C00235ADB205310232A94523
:1022000089B292B25CD001F10C00019E3BF8104003
:10221000CAEB040424B2A81E80B2B4424FEAE2071B
:1022200002F0070C4FEAE00E00F00708D2DB002CAA
:1022300034DB00F007064FEAE00802963046049EC1
:102240004FEAE20C02F00707B442C6460397CDF806
:1022500014C010DA06461C48845D13F808001A4EB4
:10226000204303F80800F75D13F80C0020EA070785
:1022700003F80C70BFE7144C245C13F808002043EB
:1022800003F808003E46D0100F4F185C17F806C040
:102290004CEA000CD01003F800C0ACE7C7100A4E9F
:1022A000DC5D00F00700305C24EA0000D855D01057
:1022B00002F007071C5CF75D24EA07041C549AE748
:1022C00007B0BDE8F08F00BFC4F200002DE9F04F69
:1022D00005469648B5F8203705EB830389B05B685F
:1022E00023F07F4358400F4607F03AFEC31EDBB28F
:1022F000122B3AD9B5F822878D49DFF844C2A8F1EC
:10230000730906461FFA89F908F1050889481FFA7A
:1023100088F84B464FF47A5E002403F10C0235F93D
:1023200012209445B8BF94469645A8BF9646022E03
:1023300094BF91F900A090F900A0BAF1010F17D055
:10234000BAF1030F16D0BAF1FF3F01D002EB4202FF
:10235000144405339BB2434501F1010100F1010032
:10236000DBD1D5F82C379C4208DC09B0BDE8F08FF2
:10237000A41AEEE702EB4202A41AEAE70EEB0C0302
:102380005B10C3EB0C0C44F6314B0BFB0CFC4CF319
:10239000CF321BB2104605920DF1180A04220493A5
:1023A0000193029000924946534618222846FFF7AF
:1023B000EFFE022E4FF0000B45D8DFF888915E4EFD
:1023C000D8460D204FF00F0E03E019F801EF16F874
:1023D000010F1AF80B100EEA0101484007F0BAFD90
:1023E0000BF1010B4044BBF1070F5FFA80F8ECD111
:1023F000B8F1030FB9D8002F6BD195F84037BDF86D
:10240000141005EB43020133DBB2A2F83817032B9B
:10241000BDF81010A2F8301794BF85F8403785F842
:102420004077B5F82237C5F82C47A3F5C37003F2FF
:102430000D114022A5F82437A5F82607A5F828177E
:1024400085F8412791E7D846DFF8F8903B4E072002
:102450004FF00F0E03E019F801EF16F8010F1AF80C
:102460000B100EEA0101484007F074FD0BF1010B5F
:102470004044BBF1070F5FFA80F8ECD1B8F1030FCD
:102480003FF673AFDFBB95F84037BDF8141005EB8E
:1024900043020133DBB2A2F83817032BBDF810104A
:1024A000A2F8301794BF85F8403785F84077B5F823
:1024B0002237C5F82C47A3F5C37003F20D11202273
:1024C000A5F82437A5F82607A5F8281785F8412789
:1024D0004BE7059AA5F83E270023A5F83C27A5F869
:1024E0003A27A5F83827049AA5F83627A5F83427FF
:1024F000A5F83227A5F8302785F8403791E7059AE7
:10250000A5F83E270023A5F83C27A5F83A27A5F80B
:102510003827049AA5F83627A5F83427A5F83227D6
:10252000A5F8302785F84037C1E700BF6E28760050
:10253000CCF2000024F100001CF1000014F10000B6
:1025400080C1FFFF0CF1000080F84317704700BF07
:10255000A0F84417704700BF0A46B0F8261701F1EB
:102560003C0301F5167130B49BB28CB205460021D4
:1025700005EB43000133B0F84A079BB2A342014484
:10258000F6D1084B0848A3FB01135B0AC3F30721EC
:1025900082F8233082F822102978242330BC07F0F7
:1025A00009B900BF49D6B9F2203FFF1FF0B5B0F816
:1025B0002A37B0F8444701339BB29C428FB0A0F851
:1025C0002A3738D8B0F82237B0F82857AB4232D87B
:1025D000B3F5617F2FD200EB430400292183A4F8D7
:1025E0004A27B0F8202700EB820254684FEA4404DF
:1025F000B8BF44F00104546090F8462704460ABB73
:10260000A3F5C8725A2A2FD9AB4235D094F84607A1
:10261000003018BF0120B4F82027013292B20133F4
:10262000042AA4F822378ABF0023A4F82027A4F89C
:1026300020370FB0F0BD90F84607003018BF0120DA
:102640000FB0F0BDB0F82427511E89B28B42DBD306
:10265000013292B29342D7D80021FFF737FEB4F887
:102660002237B4F82857CFE70121FFF72FFEB4F83F
:102670002237B4F82857C7E7B4F930E7B4F932572E
:10268000B4F93A27B4F93477B4F93867B4F93C07A8
:10269000B4F93617754416443D44B4F93E2794F80E
:1026A00041E70EAF064407F824ED0D441644A3F2AB
:1026B0008E21082245F38F0546F38F063B46009294
:1026C00089B20195029684222046FFF761FD94F8B5
:1026D0004137402B4DD0202B31D094F8462762B3A0
:1026E00094F842370133DBB20C2B84F8423719D807
:1026F000012A5DD194F84737042B52D920220023B8
:102700008DF8142084F847377C4821783A462223F4
:1027100007F050F894F84607003018BF0120B4F8CD
:10272000223778E72178754807F078F8002242F2DE
:102730000F7384F84627A4F828370020EFE72278A3
:10274000B4F924376E496D480196002A0CBF012266
:102750000222009507F0DAFA20463946FFF7FCFE20
:102760000023012084F8460784F8423784F847376D
:10277000D5E704A800F0EAF80DF113030DF11202F9
:1027800004A80DF1150100F0FDF894F843279DF819
:1027900012309A4215D094F84607003018BF012035
:1027A000BDE70133DBB284F847378DF81430ABE76F
:1027B000022A04D194F84837002B40F0968001207B
:1027C000ADE79DF814209DF8133000211A438DF8D1
:1027D000142084F8421784F847170A2B7AD8DFE8C8
:1027E00003F06A553879797920060679060094F85D
:1027F00046070228D1D12278B4F9243741493F480D
:102800000196002A0CBF01220222009507F07EFAF1
:1028100039462046FFF7A0FE9DF8133084F848376C
:10282000B9E72278B4F92437374934480196002AA9
:102830000CBF01220222009507F068FA20463946B3
:10284000FFF78AFE0220002384F8460784F8483701
:10285000A3E794F8460701289FD122782B49B4F9C1
:1028600024370196002A00950CBF0122022223483A
:1028700007F04CFA20463946FFF76EFE002042F280
:102880000F7384F84607A4F8283786E72278204992
:10289000B4F924370196002A00950CBF01220222C8
:1028A000164807F033FA39462046FFF755FE012057
:1028B00084F8460771E794F84637012BF7D1227860
:1028C000B4F9243713490196002A00950CBF012260
:1028D0000222E5E72278B4F924370F490196002A4D
:1028E00000950CBF01220222C1E743F040033946A4
:1028F00020468DF81430FFF72FFE4CE7203FFF1FD6
:102900008CF2000074F100003CF1000020F20000A5
:10291000ACF10000E4F100005CF2000020F4FF6381
:1029200023F007038BB14FF4802340F67541034237
:1029300008BF5B08FBD0DA0A01FB02F2504020F42A
:10294000FF6222F00702002AF1D17047704700BFF2
:102950004B78887810B50C78DB0003EBC42303EBCD
:102960005014B4F5006F204606DA054B53F82000EA
:102970006040C0F3C72010BDFFF7D0FFF5E700BFF0
:10298000E4F40000F0B517464E7BCA7C0C7D91F84C
:102990000CE0B500910025F03F0501F03C0183B04B
:1029A0002943A200B60946EA8E0641EA941422F0B1
:1029B0000F0201A91D468DF804608DF805408DF8C1
:1029C0000620FFF7C5FF030900F00F003B702870D9
:1029D00003B0F0BD02F00F0242EA0111C9B2144A7D
:1029E000F0B532F811701D7D5E7B1C7B93F813E00F
:1029F000F8B205F0030545EA801506F00F068008D9
:102A0000BF0A46EA811600F0300224F03F0407F0C6
:102A10003C072EF00F0E00F00F0044EA9101164320
:102A20004EEA00003D4319735E73D8741D75F0BD06
:102A3000E4F20000F8B54FF4B971044607F0ECF980
:102A40004FF4B97104F1100007F0E6F904F12C0518
:102A50000023236218466362A36204F14C012B46F3
:102A600023F8020B8B424FF00002F9D184F84C207E
:102A700004F14D0304F16E00002103F8011B98429C
:102A80004FF00002F9D104F16F0684F86E2033464E
:102A900004F17B0703F8012BBB42FBD13B4604F159
:102AA0008701002203F8012B8B42FBD104F1AF0117
:102AB000002203F8012B8B42FBD104F1D700002246
:102AC00003F8012B98424FF00001F9D1A4F8D81077
:102AD000A4F8DA10C4F8DC10C4F8E010C4F8E4106C
:102AE00084F8E81084F8E910202228460BF0A4FDB1
:102AF0000B4BDFF830E0A56207CBC4F87B00052064
:102B000084F820000C3B09206084C4F824E079603C
:102B1000BA6007CBC4F86F007160B2602046F8BDA0
:102B2000281501003C09FF1F222A01D0042070470C
:102B300070B505460C4607F083F9202801D805201A
:102B400070BD95F8E8308BB904F1210614F8011F27
:102B5000284607F0BDF9B442F8D1084B187818B9E7
:102B6000012385F84C3070BD002070BD284607F069
:102B700061F9002385F8E830E6E700BFF473FF1F32
:102B8000222A01D004207047F8B500F1100605464E
:102B900030460C4607F054F9202801D80520F8BD2E
:102BA00095F8E93093B904F1210714F8011F304674
:102BB00007F08EF9BC42F8D1084B1B7823B90122EB
:102BC000184685F84C20F8BD0020F8BD304607F0C7
:102BD00031F9002385F8E930E5E700BFF473FF1F02
:102BE000092A01D004207047F0B50024C0F87B40CA
:102BF0002246C0F87F40C0F88340DFF858E0144F09
:102C0000402401264FF0800C12E095F87B301C43E5
:102C1000531C1A46442ADBB285F87B4003F00703B5
:102C200014D01EF8016F17F803C006F00703FC5C10
:102C3000D31000EBD605CB5C1CEA030FE5D100EB0B
:102C4000D60595F87B3023EA0404E1E70020F0BDC7
:102C500058150100E4140100012A01D00420704736
:102C60000978012908D00229F8D1002380F8E92049
:102C7000C0F8E43018467047002380F8E810C0F828
:102C8000E0301846704700BF002380F84C10C0F8B1
:102C9000DC30C0F8E030C0F8E43080F8E83080F88C
:102CA000E9307047002914BF0523002380F84C3019
:102CB000704700BFF0B595B0164603AC05AA4FF4B7
:102CC000E37C40F2525E4FF6AE274FF63A6501F0D4
:102CD000C003802B24D0C02B1FD0E3B12780023447
:102CE00089009442C9B2F2D1002503A90AAA203072
:102CF000042305956560A560E56025618DF81E607B
:102D00000AF0A0F80AAA009414230221064802F04F
:102D1000AFFF15B0F0BD2580E1E7A4F800E0DEE7E5
:102D2000A4F800C0DBE700BFFC73FF1F08B507F085
:102D300087F8044BA3FB0023C01A03EB5000C0F339
:102D4000471008BDD5411DD408B5103007F078F8FC
:102D5000044BA3FB0023C01A03EB5000C0F3471041
:102D600008BD00BFD5411DD42DE9F84300EB011784
:102D7000064638460C4607F089F8202803D9D6F8CD
:102D8000DC30132B1BD83119002481F8E84006F100
:102D90004C0306F1AE0106F1860206F16D0513F84B
:102DA000010F01F8010FAB4202F8014FF7D12122C8
:102DB0000023A6F8D820A6F8DA30BDE8F88304F19D
:102DC000380356F82330052BDDD906F1AE0406F1A1
:102DD000860506F1CF094FF00008384607F0A4F841
:102DE00004F8010F4C4505F8018FF6D1DFE700BF6D
:102DF000214B1B78622B30B427D05F2B20D100F100
:102E0000AE0300F1860200F1B5055524002103F858
:102E1000014FAB4202F8011FF9D103465F2203F8CC
:102E2000B62F00F1BD0500F18E02FF24002103F84A
:102E3000014FAB4202F8011FF9D10F23A0F8D8309F
:102E40000023A0F8DA3030BC704700F1AE0300F187
:102E5000860200F1CF055F24002103F8014F9D4257
:102E600002F8011FF9D12123A0F8D8300023A0F8DF
:102E7000DA3030BC704700BF8042FF1FF8B504460F
:102E8000D0F8E06094F86E30D0F8E4000D46D4F845
:102E9000DC10771C013001310B2B1646C4F8E070B2
:102EA000C4F8E400C4F8DC1018D9002384F86E30AC
:102EB000204606F0EBFF002800F09180234604F145
:102EC0006F0253F87B0F59689B68C4F86F0051601C
:102ED000936094F86E30D4F8DC1003E004F16F02D4
:102EE000002BE5D01A44012E1788927884F8B1207F
:102EF0004FF0000014BF042208221329A4F8AF7079
:102F000084F8892084F8870084F8880042D8A5F1E5
:102F10000106B6FA86F67609002B4AD1012D94F8FF
:102F2000AF2073D0314630464FF0010E1F460026C9
:102F3000002F94F8B05042EA06020CBF002680260B
:102F4000BEF1000F84F8AF2045EA06050CBF002251
:102F5000082294F8B1608E4514BF2021002115434A
:102F60003143874214BF02220022864514BF02204B
:102F700000202A43033340EA010584F8B0200320EF
:102F8000002184F86E3084F8B150A4F8D800A4F879
:102F9000DA10F8BD04EB061006F078FFA5F1010683
:102FA00094F86E300030B6FA86F618BF0120760924
:102FB0008BB1B3F1090E18BF4FF0010E012794F841
:102FC000AF2087EA060142EAC012C9B27040002E63
:102FD000ADD00826ACE71F464FF0010EEFE704F135
:102FE000100006F053FF00287FF468AF0D4B07CBAD
:102FF00004F16F03C4F87310C4F87720C4F86F00AD
:103000001A46D4F8DC1094F86E306BE742F00802F0
:1030100084F8AF20AE463146304694F8B0501F4693
:10302000082296E72815010038B590F84C3033B3E4
:10303000B0F8D82004461AB3284802F085FE1428B8
:1030400005464AD9B4F8DA3001E0142D17D9E21850
:10305000013392F8AF1092F88720A4F8DA302046B6
:10306000FFF728FEB4F8DA30B4F8D820143D9A42BD
:10307000ADB2EAD80023A4F8DA30A4F8D83038BDCD
:10308000013B042B21D8DFE803F01920120A0300CA
:10309000FFF7AEFEB4F8D830002BCDD138BD0022FA
:1030A0000121FFF7EBFE032384F84C30F2E7012106
:1030B000FFF75AFE022384F84C30EBE70021FFF7BC
:1030C00053FE042384F84C30E4E701220021FFF78B
:1030D000D5FE012384F84C30DCE738BDFC73FF1FBC
:1030E0002DE9F041104E00F14D0782B088463D4673
:1030F00006F1200E34460FCC744528606960AA6042
:10310000EB60264605F11005F4D123782B7001A859
:10311000FFF71CFC3B4601A841460922FFF75AFC79
:1031200002B0BDE8F08100BF34150100103006F098
:1031300081BE00BFD0F8DC00704700BF002110B492
:10314000016001714171816000F10C0300F17004B4
:1031500003F8011BA3424FF00002F9D10267426756
:103160008267C267C0F88020C0F88420C0F8882039
:1031700000F18C0100F59A7341F8042B8B42FBD1CE
:1031800000F5EE71002243F8042B8B42FBD100F5D1
:103190002171002243F8042B8B42FBD100F54B71C7
:1031A000002243F8042B8B42FBD100F2563400215D
:1031B00003F8011BA3424FF00002F9D1C0F85823D5
:1031C000A0F85C235DF8044B704700BF0023036048
:1031D00003714371836003674367C0F85833A0F8F5
:1031E0005C337047B0F85C3310B504464BB9292204
:1031F0000E4806F037FA0023C4F85833A4F85C33BD
:1032000010BDD4F85823B2FBF3F3C3F3072281F8BF
:103210002A3081F8292005482B2206F023FA0023C2
:10322000C4F85833A4F85C3310BD00BF203FFF1F23
:10323000B0F85C3310B504464BB90C220D4806F0CB
:1032400043FA0023C4F85833A4F85C3310BDD4F813
:103250005823B2FBF3F3C3F307224B730A730548F9
:103260000E2206F031FA0023C4F85833A4F85C3378
:1032700010BD00BF203FFF1F836870B55B00044690
:1032800009B143F001032648A36023F07F4358406F
:1032900006F066FE02282FD9A368224823F07F4358
:1032A000584006F05DFE054600B170BD1E491F483E
:1032B00006F060FC01211E4802F04AFD01211C4875
:1032C00002F052FD1B4BC4F8585307CB04F10C0617
:1032D000E06021616261A4F85C5331462046FFF74B
:1032E000A7FF4FF416520223E5602561656125832F
:1032F00025676267637170BD0F490C4806F03AFCA0
:103300005322002104F10C000BF096F90023012256
:103310002367C4F85833A4F85C33627170BD00BFF2
:103320005076550068B4AA00281B0100203FFF1FFB
:10333000FC73FF1F941D0100041B0100F8B5836896
:10334000026F5B0004468360F1B100EBD205484E8A
:1033500043F0010302F00700A360297B305C0143C6
:103360004448297301322267584006F0F9FD0128CC
:1033700067D9236F5C2B10D8656F013D65677DB3FE
:10338000236F602B3DD0F8BD02F007013A4804EBF3
:10339000D205405C297B0140E2E7A368374823F06F
:1033A0007F43584006F0DCFD022838D9236F602B9C
:1033B000E2D1324F01256FF07F46A36826FA05F06F
:1033C000034027FA05F0584006F0CAFD02284AD902
:1033D0000135042DF1D1656F013D6567002DCFD119
:1033E0002749284806F0C6FB2946274802F0B0FCCA
:1033F0002946254802F0B8FC224806F097F9657185
:10340000F8BD04F10C0529460C221E4806F05CF9B3
:1034100000232B606B60AB60AB812367F8BD602637
:1034200042F27F5055212D22162304F10C056067CE
:1034300061752667A275E37529462046FFF7F8FEF9
:10344000E6E712490F4806F095FB00210E4802F00E
:103450007FFC00210C4802F087FC0A4806F088F93E
:1034600000236371F8BD236FEDB25D1B256783E711
:10347000FC1A01005E13AAAAF41A010068B4AA009B
:103480006C1B0100203FFF1FFC73FF1F4C1B010042
:103490002DE9F041D0F87CC00D68D0F884E00F69C8
:1034A000826F65447744BD4284B04FEAD20302F094
:1034B000070450DA9B0000EB0308404ED8F88C70EC
:1034C000365D00953740C8F88C704E684D6966448B
:1034D0007544AE4250DA00EB030E384DDEF834711D
:1034E0002D5D01963D40CEF83451D0F880E08F68D4
:1034F000D0F888C08E6977446644B74252DA00EB50
:1035000003082E4ED8F8DC51365D02973540C8F8D6
:10351000DC51CD68CE690EEB05010CEB0605A94226
:1035200036DA0344254ED3F88452345D039105EA1C
:103530000401C3F88412009D019C0299039BC56796
:1035400001328267C0F88040C0F88410C0F888302B
:1035500004B0BDE8F0819B0000EB0308184ED8F8DA
:103560008C50365D00973543C8F88C504E684D69D5
:1035700066447544AE42AEDB00EB030E104EDEF83F
:103580003471365D019547EA0605CEF83451ACE753
:1035900003440B49D3F88462095D03953143C3F8B2
:1035A0008412C8E700EB0308054DD8F8DC712D5DE7
:1035B00002962F43C8F8DC71ABE700BFE41A0100A4
:1035C000EC1A010070B50B4628CB88B085F00104D9
:1035D00083F00102A61869461C442A442B44019634
:1035E0000496029407940392069200930593FFF7C2
:1035F0004FFF08B070BD00BF2DE9F043644D654E2C
:103600002F464FF07F0C402440F24912002317E070
:1036100000EBD30E013A9EF82C430CEA04018EF81D
:103620002C13511C03F1010300F09B80584C5949A5
:1036300002F0070C03F0070E14F80C4011F80EC04E
:10364000D11000EB8101D1F88C100C42E0D000EBDE
:10365000D30402F1FF3E94F82C130CEA010101336C
:1036600084F82C13002A00F08D80494C49494FEA18
:10367000EE0200EB82020EF0070CD2F8DC2115F806
:103680000CC003F007081CEA020F00EBD30C16F87D
:1036900008809CF82C2308EA02028CF82C2303F102
:1036A000010326D00EF1FF38BEF1000F6CD04FEAB7
:1036B000E80200EB820208F00709D2F8842215F82C
:1036C000099019EA020F00EBD30E03F0070C36D075
:1036D0009EF82C2315F80CC008F1FF384CEA0202C2
:1036E000B8F1FF3F03F101038EF82C23DFD1BDE8D1
:1036F000F0830EF1FF3CBEF1000F47D04FEAEC0221
:1037000000EB82020CF0070ED2F8342115F80EE01F
:103710001EEA020F00EBD30E03F007089EF82C23DD
:1037200021D015F8088048EA02028EF82C230133D4
:103730000CF1FF3EBCF1000F99D1BDE8F08300EB26
:10374000D30E03F0070C9EF82C2317F80CC04CEA9C
:1037500002028EF82C23013308F1FF3CB8F1000F70
:10376000CCD1BDE8F08317F8088048EA02028EF851
:103770002C2301330CF1FF32BCF1000F7FF458AF62
:10378000BDE8F083BDE8F083BDE8F083BDE8F083D9
:10379000EC1A0100E41A010030B4134D481E01F187
:1037A00026044FF0FF3210F8013F5340DBB2C2F362
:1037B000072235F81330844283EA02031A46F2D115
:1037C000DA4391F82700D3B2984202D0002030BCEF
:1037D000704791F82800C2F30723181AB0FA80F056
:1037E000400930BC704700BF941B01002DE9F04335
:1037F0004E1E0546144699B0DFF820E23046702789
:10380000002201E01EF8017F10F8013F01327B40E9
:10381000532A06F8013FF5D10DF10B030DF15F00BE
:10382000002203F8012F8342FBD1DFF8F4C1042703
:1038300063464FF0000E80264FEAEE02885CC20716
:103840000ED51CF81E2093F801800DF160094A4442
:1038500026FA08F912F8548C49EA080802F8548C40
:1038600082070DD59A7893F803800DF160094A44D8
:1038700026FA08F912F8548C49EA080802F8548C20
:1038800042070DD51A7993F805800DF160094A4475
:1038900026FA08F912F8548C49EA080802F8548C00
:1038A00002076BD59A7993F807800DF160094A44B5
:1038B00026FA08F912F8548CB7F5257F49EA08086A
:1038C00002F8548C5DD10023EB67C5F88030C5F851
:1038D0008430C5F88830AB6799464FF080080127DF
:1038E000402618AA02EBE90209F0070312F8542C4B
:1038F00028FA03F1114026FA03F30CBF0291029754
:1039000009F10209134001A9284614BF0197019348
:10391000FFF758FEB9F5257FE3D12846FFF76CFE87
:10392000631E04F12801002203F8012F9942FBD104
:10393000DFF8F0E0402140F24912012701E01EF8D3
:103940000C1005EBE200C2F5A47390F82C63013370
:10395000013AD808314203F0070302F0070C07FAD6
:1039600003F302D0215C0B432354531CE7D12146BF
:103970002846FFF711FF19B0BDE8F083B7F5257FA2
:10398000A1D0C2060DD51A7A93F809800DF160090D
:103990004A4426FA08F912F8548C49EA080802F851
:1039A000548C82060DD59A7A93F80B800DF160093C
:1039B0004A4426FA08F912F8548C49EA080802F831
:1039C000548C42060CD402061AD40EF1080EBEF531
:1039D000267F03F1100307F108077FF42DAF72E78C
:1039E0001A7B93F80D800DF160094A4426FA08F914
:1039F00012F8548C49EA080802F8548C0206E4D5FF
:103A00009A7BD87B0DF16008424426FA00F812F840
:103A1000540C48EA000002F8540CD6E7881A01005A
:103A200060150100EC1A010030B58268036F520086
:103A30008DB0826091B100EBD30142F0010203F03E
:103A400007041F4D82600A7B2C5D01332243B3F5CE
:103A5000257F0A7303670FD00DB030BD03F0070256
:103A600000EBD301174CA45C0A7B01332240B3F571
:103A7000257F0A730367EFD100F10C05294601AADF
:103A80000446FFF7B3FE10B960710DB030BD0121DF
:103A90000D4802F05DF901210B4802F065F901A91A
:103AA0002046FFF79FFB002302214FF41652E360EC
:103AB000236163612383236761716267CCE700BF81
:103AC000FC1A0100F41A0100FC73FF1F002B47D001
:103AD000F8B55F1EBFB2044602EB4707951E8E1E67
:103AE00002E02060BD4232D0B4F85C2335F8023FDA
:103AF000D4F8580394F804E00132A4F85C2336F8B3
:103B0000021FC90B03448E45C4F85833236808D0FC
:103B1000B3F5004F2ABF6FF4CC7203F299139B18D0
:103B2000236003F54C503330B0F5803F2171D8D37A
:103B30006279A3F54C43CD3B012A236008D00BD317
:103B4000022ACFD12046FFF7F9FBBD42CCD1F8BD08
:103B50002046FFF769FFC5E72046FFF78DFBC1E769
:103B6000704700BF38B54FF4B971044604F11C0525
:103B700006F052F90023236119466361A36104F141
:103B800044022B4623F8021B9342FBD104F5277015
:103B9000002203F8012B98424FF00001F9D13C2399
:103BA000A4F89C12A4F89E12A4F8A0322822284659
:103BB0000AF042FD05210322034B2174A5616282B4
:103BC0006361204638BD00BF9809FF1F292A01D034
:103BD0000420704770B506460D4606F031F92928D5
:103BE00006D802B20A490B4805F0CAFF052070BD8D
:103BF0000021304606F06CF96C1E283514F8011FC0
:103C0000304606F065F9AC42F8D1002070BD00BF27
:103C100024230100203FFF1F0C2A01D004207047FD
:103C200070B505460C4606F00BF90C2806D802B212
:103C30000A490B4805F0A4FF052070BD0121284664
:103C400006F046F9661E0B3416F8011F284606F0EA
:103C50003FF9A642F8D1002070BD00BF4423010007
:103C6000203FFF1F10B5044606F0EAF830B90246BF
:103C70000549064805F084FF052010BD20460221B5
:103C800006F026F9002010BD64230100203FFF1F2D
:103C90002DE9F04F9BB0531E0392029318460DF18D
:103CA00066040DF11303002203F8012F9C4200F873
:103CB000012FF9D100234A1EDFF8C0A10093019221
:103CC0001E461C464FF00109019A12F8018F01921D
:103CD000009A33460020264609FA00F118EA010F3F
:103CE00018BF012402F1010108BF00241AAD05EB41
:103CF000D20E05EBD1071D193344234413F0010FF5
:103D000002F0070C01F0070100F1010005F00105C8
:103D1000334602F1020207D01AF80CB01EF854CC58
:103D20004BEA0C0C0EF854CC35B11AF8015017F8C8
:103D3000541C294307F8541C082801D02646CBE719
:103D4000009B1033B3F5287F0093BDD1494F039BEF
:103D500004253946002601241AAA02EBD60212F8DD
:103D6000542C10060BD517F8160091F801C013F863
:103D700000E004FA0CFC4CEA0E0E03F800E05006DA
:103D80000AD591F802C0C87813F80CE004FA00F0E4
:103D900040EA0E0003F80C0090060AD591F804C022
:103DA000487913F80CE004FA00F040EA0E0003F83A
:103DB0000C00D00620D591F806C0C87913F80CE0A5
:103DC00004FA00F040EA0E00B5F5257F03F80C0078
:103DD00015D1029D284C00231946284601E014F80D
:103DE000013F10F8012F01315340532905F8013FDD
:103DF000F5D11BB0BDE8F08FB5F5257FE9D01007F0
:103E00000BD591F808C091F809E013F80C0004FAFA
:103E10000EFE4EEA000003F80C0050070BD591F897
:103E20000AC091F80BE013F80C0004FA0EFE4EEAFB
:103E3000000003F80C0090070BD591F80CC091F826
:103E40000DE013F80C0004FA0EFE4EEA000003F831
:103E50000C00D20709D591F80EE0C87B13F80E20AC
:103E600004FA00F0024303F80E200836103108353A
:103E700072E700BFA01D0100C822010084230100D9
:103E800070B59AB002AC06AA012340F249354FF64C
:103E9000B74633EA010E0CBF2680258002345B0052
:103EA0009442DBB2F5D102A922461030082308F073
:103EB000C9FF00230093224628230121024801F074
:103EC000D7FE1AB070BD00BFFC73FF1F70B5A2B063
:103ED000044605F0DBFF20B9B4F89C320BB922B0E0
:103EE00070BD204606F01AF838B3012841D1B4F865
:103EF0009C32002B63D0564801F026FF2828054647
:103F0000EDD9B4F89E3201E0282DE8D95A1C23449B
:103F1000A4F89E2293F844102046FFF7B1FFB4F8AE
:103F20009E32B4F89C22283D9A42ADB2ECD80023D0
:103F3000A4F89E32A4F89C32D1E7B4F89C32002B4E
:103F4000D9D1444A1278002A53D1B4F8A0524DB1C5
:103F5000AA21E21801339BB29D4282F84410F8D1A5
:103F6000A4F89C520023A4F89E32002DC3D122B0A5
:103F700070BD022867D1B4F89C32002BBBD120461B
:103F800005F0D2FFB4F89C3203F11205ADB2981DD2
:103F9000314E80B2552201E016F8012FE1180133AD
:103FA0009BB2834281F84420F6D1AB42EFD100238B
:103FB000A4F89C52A4F89E32002DD8D09BE720464E
:103FC00005F0B2FF0C25B4F89C62731CA4F89C3277
:103FD000204605F0A9FF26446B1E13F0FF0586F866
:103FE0004400F0D1A4F89E52B4F89C52002DBED0EB
:103FF00081E7204605F098FF0DF103050BAE204642
:1040000005F092FF05F8010FB542F8D10DF132022B
:1040100001A92046FFF73CFEB4F89C32EA2203F1E6
:104020005505A620ADB20CA98DF830208DF83100D1
:1040300001E011F8012FE01801339BB29D4280F896
:104040004420F6D18CE7B4F89C52002D8FD052E773
:10405000FC73FF1FF473FF1F8C23010001EB410170
:10406000490001F5967189B2B1F5167F8ABF4FF408
:104070001673A0F8A012A0F8A032704708B505F09A
:10408000DFFE034BA3FB0030C0F3870008BD00BF79
:104090004FECC44E2DE9F041064601F023F806F539
:1040A000806001F01FF806F5006000F0DFFE06F505
:1040B0000260002400F098FF06F6280001F008FADC
:1040C00086F8344886F8354886F8364886F8374802
:1040D00006F6380001F03EFA06F5046001F03AFAFF
:1040E00006F6480001F036FA06F5056001F032FAEE
:1040F00006F6580001F02EFA06F5066001F02AFADD
:1041000006F5076806F6680001F024FA404601F05B
:1041100021FA4FF4B5603A4B3A493B4AC6F88C084D
:10412000C6F8943845F2683044F66C23374DC6F82B
:104130009808C6F8B4183648C6F8B82847F6E421F7
:104140004FF43572C6F8BC384FF40043C6F88828DF
:10415000C6F89028C6F8AC38C6F8D038C6F8D838B3
:104160000127C6F88048C6F87848C6F88448C6F8DB
:104170007C48C6F8B048C6F8A448C6F89C48C6F8BB
:10418000A848C6F8A048C6F8C848C6F8C048C6F847
:10419000CC48C6F8C448C6F8D458C6F8DC08C6F8F7
:1041A000E01806F6E40000F013FE06F6141586F893
:1041B000F548802186F8F478A6F8F67806F6F80037
:1041C00000F086FF4FF49651A6F81079284601F0CA
:1041D0001BF94FF4166106F6241001F015F921467B
:1041E0004046962201F0BAF94FF4166400212846A1
:1041F00001F018F9013CF9D13046BDE8F08100BF6B
:10420000F96BFFFF0080FFFF5D3BFFFF0000FFFF3A
:10421000B505FFFF30B500F6241585B00B4801F059
:1042200093FD022801D805B030BD0DF10E012846DE
:1042300001F01EF9002401230DF10E020A210028CD
:10424000F1D00094014801F013FDE7E7FC73FF1F74
:10425000002310B5044680F8343800F6380001F029
:1042600095F904F5046001F091F904F5056001F099
:104270008DF904F6580001F089F904F5066001F0A3
:1042800085F904F6680001F081F904F5076001F092
:104290007DF904F5006000F0A1FE04F5806001F0F6
:1042A00099F8204601F096F804F6280001F04EF93E
:1042B00004F62410BDE8104001F004B92DE9F04FD8
:1042C00083B000F648079DF834409DF840B09DF853
:1042D00038609DF844C09DF848E09DF8305080F863
:1042E00035B8C4EB0414A400A4B2019680F836C813
:1042F000064680F837E8884638462146914600222F
:104300009DF83CA09B4601F029F9C5EB05118900F9
:1043100089B206F63800002201F020F914B13846BF
:1043200001F02EF9019B0C934A465B46414630460C
:10433000CDF834A003B0BDE8F04F00F0F5BE00BFEB
:104340002DE9F047BDF824709DF820609DF82850B5
:1043500004468846914600F506603A4600219A4692
:1043600001F0FCF82EB13A46314604F6580001F04F
:10437000F5F80995089553464A46414604F580608C
:10438000BDE8F04700F0D0BE2DE9F04F83B0044601
:104390009DF844509DF848609DF84C0084F8F4580E
:1043A00015469DF838209DF83C7084F8F568A4F80F
:1043B000F6089DF840A0019204F5046000229B4697
:1043C00000979DF830609DF834709DF850909DF8EE
:1043D000548001F0C3F8009904F50560002201F053
:1043E000BDF80022514604F6680001F0B7F82946EE
:1043F00004F6280001F074F82A46494604F6E40061
:1044000000F0F0FCA4F810893B463246594604F50A
:10441000006000F039FD10B103B0BDE8F08F019AE3
:10442000594604F5026003B0BDE8F04F00F0E2BD6C
:1044300038B504460D4600F6380001F0ABF82946C1
:1044400004F5046001F0A6F8294604F6480001F0DE
:10445000A1F8294604F5056001F09CF8294604F608
:10446000580001F097F8294604F5066001F092F82B
:10447000294604F6680001F08DF8294604F5076026
:10448000BDE8384001F086B838B500F64805044666
:10449000284601F087F820B1284601F089F848B98C
:1044A00038BD0A480A4905F065FB2046BDE838409A
:1044B00000F07EBF0649054805F05CFB204600F091
:1044C00077FF2846BDE8384001F05AB8203FFF1F6B
:1044D0009823010038B5044631B100F5056528463A
:1044E00001F066F800BB38BD0D461D4801F030FCF8
:1044F00029461B4801F038FC1A491B4805F03AFBD5
:1045000004F5056084F8345801F040F804F50460BF
:1045100001F03CF804F6580001F038F804F63800D1
:10452000BDE8384001F032B810490F4805F022FBD1
:10453000022384F83438284601F028F894F83538F6
:10454000002BD0D094F83738002BCCD02046FFF782
:104550009BFF04F63800BDE8384001F011B800BFF9
:10456000FC73FF1FBC230100203FFF1FA823010095
:1045700038B5044661B100F50465284601F012F82B
:1045800068BB04F63805284601F00CF8D0B938BDF0
:104590000D461F4801F0DCFB29461D4801F0E4FBF5
:1045A0001C491D4805F0E6FA032304F5066084F86B
:1045B000343804F6380500F0E3FF284600F0F2FF37
:1045C0000028E4D0284600F0F3FF38B12046FFF77A
:1045D0005BFF2846BDE8384000F0D2BF38BD284612
:1045E00000F0E6FF0028CCD00C490B4805F0C2FAD9
:1045F000042384F8343804F6580000F0C7FF284636
:1046000000F0C4FF04F6280000F09AFFB9E700BFED
:10461000FC73FF1FD0230100203FFF1FE823010090
:1046200070B50446C9B10121304801F091FB012168
:104630002E4801F099FB2E482E4905F09BFA0223E3
:1046400084F8343804F5066000F0A0FF04F638055D
:10465000284600F0A7FF78BB70BD00F50665284628
:1046600000F0A0FF0028F1D0284600F0A1FF0028AC
:10467000ECD01F48204905F07DFA04F658060623C1
:1046800084F83438304600F08DFF10B3304600F027
:104690008FFFF0B9284600F079FF04F5046000F0C0
:1046A00075FF04F6380504F6680000F069FF284637
:1046B00000F078FF0028CFD0284600F079FF38B10D
:1046C0002046FFF7E1FE2846BDE8704000F058BFE5
:1046D00070BD0A49064805F04DFA04F5806000F007
:1046E00067FE304600F052FFD4E700BFFC73FF1FA7
:1046F000203FFF1FA823010008240100FC23010024
:1047000038B5044631B104F63805284600F04AFFB2
:10471000D0B938BD0D46134801F01AFB294611489F
:1047200001F022FB1049114805F024FA052304F595
:10473000066084F8343804F6380500F021FF284676
:1047400000F030FF0028E4D0284600F031FF0028B8
:10475000DFD02046FFF798FE2846BDE8384000F03D
:104760000FBF00BFFC73FF1F18240100203FFF1F75
:1047700038B50446D1B101212D4801F0E9FA0121F3
:104780002B4801F0F1FA2B482B4905F0F3F90423EB
:1047900084F8343804F5066000F0F8FE04F63805B5
:1047A000284600F0FFFE002835D138BD00F506652B
:1047B000284600F0F7FE0028F0D0284600F0F8FE6A
:1047C0000028EBD01D491B4805F0D4F9062384F8D6
:1047D000343804F6280000F0B9FE1949154805F0F0
:1047E000C9F904F5806000F0E3FD284600F0CEFE34
:1047F00004F6580000F0CAFE04F5046000F0C6FE9E
:1048000004F6380504F6680000F0BAFE284600F009
:10481000C9FE0028C9D0284600F0CAFE38B120469B
:10482000FFF732FE2846BDE8384000F0A9BE38BD8B
:10483000FC73FF1F203FFF1FE82301000824010035
:10484000FC23010070B5044629B301212D4801F075
:104850007FFA01212B4801F087FA2B492B4805F0FC
:1048600089F9022384F834382949284805F082F967
:1048700004F5806000F0AEFD04F5046000F080FEF9
:1048800004F6580000F07CFE04F63805284600F0D7
:1048900089FE70B970BD00F6680630460D4600F01E
:1048A00081FE98B904F63805284600F07BFE002802
:1048B000F0D0284600F07CFE38B12046FFF7E4FD3A
:1048C0002846BDE8704000F05BBE70BD304600F089
:1048D0006FFE0028E6D00F490C4805F04BF984F82C
:1048E0003458304600F052FE94F836382BB904F6AE
:1048F0003805284600F04AFEC8E72046FFF7C4FD09
:10490000F5E700BFFC73FF1FA8230100203FFF1F36
:1049100030240100BC23010070B500F50564064693
:10492000204600F025FE002837D02649264805F00D
:1049300021F9012386F83438204600F021FE96F84C
:104940003538002B38D106F624154FF49664002133
:10495000284600F067FD013CF9D106F5046000F03F
:104960000FFE06F6580000F00BFE06F6380000F0C9
:1049700007FE06F5076000F009FE0121134801F06B
:10498000E7F90121114801F0EFF911490E4805F04E
:10499000F1F8104B0A221A7070BD0F490A4805F051
:1049A000E9F896F83538022286F83428002BCAD068
:1049B0003046FFF769FDC6E796F83738002BC2D1BD
:1049C000F6E700BF3C240100203FFF1FFC73FF1FE0
:1049D000502401008042FF1FA8230100F8B590F881
:1049E00034380446062B09D8DFE803F0141B2025D1
:1049F000042A0F00FFF784FE94F8343823B93B4DA6
:104A00002B780A2B21D0F8BDF8BDFFF71BFF94F8D7
:104A10003438F3E70029F2D0FFF77EFF94F83438FA
:104A2000ECE7FFF757FD94F83438E7E7FFF7A0FD10
:104A300094F83438E2E7FFF7F3FD94F83438DDE713
:104A4000FFF796FE94F83438D8E7204600F0CCFC07
:104A5000002839D0204600F0C7FC0028D3D104F547
:104A6000806000F0C1FC06460028CCD104F5076741
:104A7000384600F097FD0028C5D0384600F098FD74
:104A800000B9F8BD1A491B4805F074F804F638005F
:104A90002E7000F07BFD04F5046000F077FD04F556
:104AA000056000F073FD04F6580000F06FFD04F59A
:104AB000066000F06BFD04F6680000F067FD384604
:104AC000BDE8F84000F062BD04F5806000F08CFCA9
:104AD0000028BFD104F50766304600F063FD0028CA
:104AE000B8D1304600F04CFDB4E700BF8042FF1F54
:104AF00064240100203FFF1F2DE9F04F894690F804
:104B0000F51887B0044615461E4609B189F001091B
:104B100031462046FFF78CFC002E00F0028104F5A0
:104B20000763013EF6B2019304F5026305EB460606
:104B3000029304F62413A54F0393023D009613E05D
:104B4000C0F0FC80022B40F0EF8004F5006000F024
:104B5000C3F9C10700F1F9803B780A2B00F0F5801A
:104B6000009B9D4200F0DD8035F9021F94F8F43877
:104B7000B4F910290902012B91FBF2F109B2ADF849
:104B80001610DDD104F5006000F0A6F90DF1180B48
:104B900004F614183BF9021D8246404600F042FC20
:104BA0005946404600F064FC1AF0010F02D13B78F0
:104BB0000A2BD5D1CAF340012046FFF70FFF3B78FF
:104BC0000A2BCDD194F83438013B012B40F2F08010
:104BD0000023ADF81630204600F008FC04F580688C
:104BE000002800F0D580404600F000FC002800F0CE
:104BF000B580BDF91600D4F88018D4F88C38D4F8F4
:104C00008828D4F878E8C4F8781803FB01F3D4F8BE
:104C10009018C4F8800802FB00330EFB013ED4F864
:104C20008428D4F89418D4F8A408D4F87C38C4F8AC
:104C30007C2801FB12EED4F89828D4F8B018D4F8E8
:104C4000B46803FB12EE01FB00F1D4F89C28C4F811
:104C50009C08D4F8AC084FEAEE3E0EF30E0E0FFAA5
:104C60008EF300FB0311C4F88438D4F8A808C4F804
:104C7000A438D4F8B83802FB061103FB1011D4F89D
:104C8000A028C4F8A008D4F8BC08D4F8C838D4F8D0
:104C9000D46802FB1012D4F8D008D4F8D81806FB58
:104CA00003FED21302F30E0212B200FB02EEC4F8AE
:104CB000A828D4F8CC08C4F8C828D4F8C028C4F868
:104CC000C038D4F8DC3802FB01EED4F8C418D4F8AC
:104CD000E028C4F8C40803FB10EE01FB12E3DB1369
:104CE00003F30E031BB2C4F8CC382046ADF81630DF
:104CF00000F07CFB00283CD0019800F053FC0146FA
:104D0000029800F0C1F9BDF81630184403B21946F4
:104D10000398ADF8163000F085FB009B9D427FF4B0
:104D200023AF07B0BDE8F08F04F5006000F0D4F8C1
:104D3000C2073B7807D40A2B7FF412AF49462046BE
:104D4000FFF74CFE3BE70A2BF8D010F0020F14BF20
:104D5000494600212046FFF741FE30E794F83438F9
:104D60002046F3B900F088FABDF81630184400B2B6
:104D700041E7404600F03AFB0028BDD104F6280088
:104D800000F0B2FBBDF816301844ADF81600B3E7DA
:104D9000404600F071FABDF816301844ADF8160020
:104DA00021E700F0B7FABDF81630184400B222E748
:104DB000BDF9161004F6E40000F01CF8B4F8F6385B
:104DC00013FB00F0ADF8160005E700BF8042FF1F9F
:104DD00000224FF480418180028042808271826093
:104DE00002737047C9014B42D20101804380828027
:104DF000704700BFB0F9003010B47BB182798AB13E
:104E00008368B3F5166F03F1010212D9002142F64F
:104E1000DF639A42826001D90023837108465DF8FE
:104E2000044B70478B421ADC00230122827183609D
:104E30000373047B0C4BB0F9041053F82430013495
:104E4000E4B20B2C03FB01F188BF002304734FEA8B
:104E5000E13188BF037301F30F0109B2D7E7B0F95D
:104E600002308B42E0DAD9E77C24010030B4002222
:104E700000240025C0E900458260C26002824261D0
:104E80008261027730BC704770B400250024C0E90D
:104E9000004543260E4D04E00134322C10D015F8A5
:104EA000106CB14205F11005F6D10A49E4B201EBEC
:104EB0000414D4E9024554EA0501C0E9004502D1D1
:104EC000042070BC70478260C36070BC00207047D3
:104ED000E0240100D02401002DE9F04F90E880404B
:104EE000426986698261044601EB610C02FB0EF3A4
:104EF000D11707FB0133A2FB07011944238A257F41
:104F0000C00F013340EA41009BB200F31E0041F2A2
:104F10007071C6EB4006664405F0FE008B4283B01C
:104F200066612382207702D003B0BDE8F08F82FB58
:104F300006894FEAD87A4AEA490A0AF31E0A4FEA72
:104F4000EA790AFB0EFE07FB09EEAAFB07AB82FB20
:104F5000028986FB066705F0020100294FEAD67236
:104F60004FEAD87342EA4702F34402F31E024FEAC3
:104F7000DA7643EA490303F31E0302EB0301A36855
:104F800018BFE36846EA4B0606F31E02A1EB420295
:104F900014BF012700279A4240F00101B6BF25F057
:104FA000030040F0030040F001002177C0F340010E
:104FB0008F42207707D00091064807491BB212B2F2
:104FC00004F038FE207F002323826361A36103B0D5
:104FD000BDE8F08F203FFF1FAC2401000023436198
:104FE0008361037703827047002202608280C2805F
:104FF000704700BF2DE9F0410023224D432404E017
:105000000133322B3AD015F83340A142F8D11D4F6D
:10501000DBB217EBC30731D0804600687B88A8F865
:105020000430164618B107F02BFBB8F804305800CE
:1050300007F024FBB8F80430C8F80000DBB106EB39
:105040004603002406EB83062546284608F0A6FF03
:1050500080FB0601C30F43EA4103D8F800107A68C9
:1050600003F30F0321F814300134B8F80430A4B26C
:10507000A3421544E9D80020BDE8F0810420BDE832
:10508000F08100BFF0270100C38830B45A1C848827
:10509000056892B29442C28098BF002235F913305D
:1050A00098BFC28019B1584200B230BC7047184650
:1050B00030BC704710B504460023018023810846A8
:1050C00063816373237307F0D9FA6060204610BDD3
:1050D00010B50446FFF7EEFF0023237563752361C7
:1050E000204610BD0346002110B403F8011B00F256
:1050F000E93403F8011BA3424FF00002F9D1A0F8F4
:10510000EA23A0F8EC23A0F8EE23A0F8F023C0F8DF
:10511000F423A0F8F823A0F8FA23A0F8FC23A0F8C1
:10512000FE235DF8044B70472DE9F04F4FF0000A65
:1051300085B0A0F8EAA39DF838400D7802949DF858
:105140003C4003940192EDB1DFF82891484F40F2C2
:10515000E238412D00F088800126422404E0A54277
:1051600046D017F82E401646721CD2B202EB420E01
:10517000002CF4D10AF1010A5FFA8AFA11F80A50F8
:10518000002DE6D10446D0F8F453BDF80810A0F87D
:10519000FC13BDF80C10A0F8FE13019A45F6C0519F
:1051A000B1FBF2F2B1FBF3F0A4F8EE23A4F8F8039C
:1051B00025B1284607F064FAB4F8F80307F05EFA60
:1051C000B4F8F813C4F8F40371B100231A461E466C
:1051D0004C0801250133A2429AB234BF0570067013
:1051E0008A4200F10100F5D3002005B0BDE8F08F40
:1051F00006EB460207EB82021D4D147A002CB9D053
:10520000B0F8EA2306EB460605EB8606013C02F100
:10521000010E5EFA84FED6F804C01FFA8EFE4FF02F
:10522000004603E07245A0F8EA23A3D000EBD205C4
:1052300002F0070436EA0C0B19F804B06C780CBFC6
:105240004BEA040424EA0B0402F1010B42456C70A2
:105250001FFA8BF24FEA5606E4D90023A0F8EA338E
:10526000042005B0BDE8F08F014D08240026C7E7F3
:1052700080290100902B01000378002B40D010B44E
:10528000B0F8EC13224C00EBD10301F007025B787D
:10529000A25C1340B0F8FA2305D0D0F8F4339B5C3D
:1052A00083B3B0F9FC33B0F8F843013292B29442C0
:1052B000A0F8FA239CBF0022A0F8FA23B0F8F0234C
:1052C000B0F8EE43013292B29442A0F8F02313D822
:1052D0004A1CB0F8EA4392B200219442A0F8EC23B1
:1052E000A0F8F01308D80170A0F8EC13A0F8FA1396
:1052F0005DF8044B1846704718465DF8044B70473C
:1053000018467047B0F8FC335B421BB2CBE700BFD6
:10531000902B01000378002B40D010B4B0F8EC13B0
:10532000224C00EBD10301F007025B78A25C134032
:10533000B0F8FA2305D0D0F8F4339B5C83B3B0F90E
:10534000FE33B0F8F843013292B29442A0F8FA2347
:105350009CBF0022A0F8FA23B0F8F023B0F8EE4387
:10536000013292B29442A0F8F02313D84A1CB0F84C
:10537000EA4392B200219442A0F8EC23A0F8F01383
:1053800008D80170A0F8EC13A0F8FA135DF8044BEC
:105390001846704718465DF8044B7047184670472A
:1053A000B0F8FE335B421BB2CBE700BF902B01008D
:1053B000B0F8EC336BB9B0F8F03353B9B0F8FA3356
:1053C0003BB90122A0F8EC33A0F8F033A0F8FA338F
:1053D0000270704700230370A0F8EC33A0F8F0339C
:1053E000A0F8FA33704700BF00787047B0F8EC338C
:1053F00043B9B0F8F0332BB9B0F8FA03003018BF56
:10540000012070470120704710B504460023018039
:105410002381480063816373237307F02FF9606071
:10542000204610BD037BF3B903F0FF02038910B4DB
:105430009BB2446824F81310038901885DF8044B7B
:1054400001339BB2038103899BB2994298BF0281C9
:105450000289438992B29BB29A4205BF012303732A
:10546000012018467047012343730020704700BF96
:10547000034600895A8980B292B2904210B419D082
:105480005A895C6892B2002034F812200A8018739E
:105490005A891988013292B25A815A8992B291423C
:1054A00004D858815DF8044B0120704701205DF855
:1054B000044B70471A7B02F0FF00002AE0D15DF830
:1054C000044B704700230381437343810373704788
:1054D00000224FF480410180827042600272704766
:1054E00001EB810101807047837823B3426842F663
:1054F000DF639A4210B40BD80023013245F6BF5146
:105500008A4288BF002242605DF8044B184670470B
:10551000017A0A4BB0F9004033F911300131C9B2B8
:105520003B2903FB04F388BF0021DB13017203F363
:105530000F031BB2E1E71846704700BF982B01002C
:10554000002301228270436003727047002383703E
:10555000704700BF002202604260704702EB4202C7
:10556000D20045F6C05303FB01210160704700BF24
:1055700003680248A0FB033000097047ABAAAAAA3F
:1055800003680BB101234360704700BF00234360F1
:10559000704700BF43681BB102680AB10B44436007
:1055A000704700BF4068003018BF0120704700BF3F
:1055B000036833B1406828B183422CBF002001202A
:1055C00070471846704700BF70B506460624002590
:1055D00085F001052946304600F098FD2946304601
:1055E00000F09CFDFA21304600F09CFD631E13F094
:1055F000FF04EDD170BD00BF2DE9F04F00248046BF
:1056000083B04FF4167100F8044B02F0C9FC4FF45C
:10561000FA7108F1180002F0C3FC4FF4167108F19A
:105620002C0002F05FFC08F19803C8F83C402146CA
:10563000C8F84040C8F84440C8F848401A46C8F87E
:105640004C40C8F85040C8F85440C8F8584008F1D9
:105650004C0B08F5927622F8021B9642FBD108F516
:10566000BA793246002122F8021B4A45FBD108F5DF
:10567000D87A4A46002122F8021B5245FBD108F590
:1056800023755246002122F8021BAA42FBD108F5DD
:1056900041702A46002122F8021B0024904227462E
:1056A000F9D14FF480424FF40061A8F80623A8F81E
:1056B0000823A8F80A23A8F80C23A8F80E23A8F8B2
:1056C0001023A8F81223A8F81423A8F816234FF0E3
:1056D0000102184688F8044388F81C43C8F82043A0
:1056E00088F82543A8F82643A8F82843C8F82C438F
:1056F00088F83043A8F81813A8F81A1388F8242358
:1057000021468C22019308F097FF21465022304613
:1057100008F092FF21463C22484608F08DFF2146C2
:10572000DC22504608F088FF21467822284608F0FF
:1057300083FF0123C8F84C40CBF80440CBF8084065
:10574000CBF80C40C8F83C30019BDFF888E01D49DD
:105750001D4AC8F840B04FF00C0C88F84870C8F8E3
:105760006030C8F86C60194BC8F878901848DFF8BA
:105770006890C8F844E02A244FF0060B52272026F0
:10578000C8F86400A8F868C0C8F87010C8F87C2091
:10579000C8F888304046C8F884A0C8F89050A8F8E7
:1057A0005C40A8F874B0A8F88070A8F88C60C8F8BD
:1057B000949000F06DFB4046FFF706FF404603B0B3
:1057C000BDE8F08FB809FF1FCC0AFF1FD009FF1FEB
:1057D000D80AFF1FB40AFF1F740AFF1F38B50578E7
:1057E00005B138BD044600F067FB044B1A7801216F
:1057F0002170002AF5D01D7038BD00BF8042FF1F08
:105800002DE9F043D0F82033027801338DB00446FF
:10581000C0F82033002A5CD0D0F82C134BF67F322E
:1058200091420CD9AC4D2A78511E052904D8022A80
:1058300000F0E18000222A700022C4F82C2345F6F3
:10584000BF52934260D894F81C33002B6CD104F102
:10585000180002F0DFFB40B9A04B1A782AB118708B
:1058600094F80413204600F055FC261D304602F043
:10587000D1FB01282AD904F12C08002503AF40F6FA
:10588000FF7902AB5A190AA9304602F00DFC04ABAD
:1058900003EB4501404602F059FB94F8253343BB26
:1058A000BDF82830B4F81813B4F906235B1A1BB2FC
:1058B00003FB02F3DB1303F30F0327F81530013565
:1058C000022DDED194F83033002B39D00DB0BDE875
:1058D000F08383498B42F9D990F82413C0F8202330
:1058E00081F0010180F8241300F010FC0DB0BDE838
:1058F000F083BDF828300BB14B45D3D1B4F8262343
:105900000132A4F82623CDE794F82413002381F074
:105910000101C4F8203384F82413204600F0F6FB7C
:1059200094F81C33002B92D0204600F0E5FB84F85D
:10593000300304F1180002F06DFB002895D18BE7CD
:1059400008A92A46384607F0EBF92B460AAA08A907
:1059500004F13C0008F0BAF90A9B0B9A5E4EBDF8C0
:105960000C00BDF80E1036781A4402EBD2735B14AB
:1059700003F30F039BB2C21ACB1AADF81420ADF893
:105980001630002E47D1574B1B78002B5FD1564B5A
:105990001B78002B7ED1554B1B78002B65D1544DC5
:1059A000544E2B780BB93378B3B10223394607AA8A
:1059B00004F15C0007F030FF3378002B40F0CA8020
:1059C0002B784BB14C4B1B78002B00F0CA8007A9F9
:1059D00002224A48FCF7ECFA494B1B78002B3FF4B3
:1059E00075AF204600F088FB0223014605AA454812
:1059F000FFF782F86AE7394A1278002A3FF41AAFB3
:105A000000214148FDF740F92A78D4F82033002AD4
:105A10003FF412AF0EE7012E4AD0022E7ED0032EA5
:105A200000F0A680042E00F0B680052E00F0C6809F
:105A30000A2E00F0DD80632E00F0EA80602E7FF4F5
:105A400045AF04A902223148FBF752FB3EE707AA03
:105A50002B4605A904F1680007F0DEFE2B4604AAD8
:105A600007A92B48FEF732F891E706AA05A904F129
:105A70008000022307F0D0FE06A907AA04F18C00DB
:105A8000022307F0C9FE07A9022304AA214800F057
:105A9000FBFF84E707AA05A904F17400022307F0BD
:105AA000BBFE07A9022304AA1B4801F013FF72E7FB
:105AB0000C4B1B78002B3FF409AF04F1680007AAD8
:105AC0002B4605A907F0A8FE2B4604AA07A91048F3
:105AD000FDF7FCFFFAE600BF8042FF1FF473FF1FD3
